:020000040000FA
:10000000A00820207D010000810100008301000084
:1000100000000000000000000000000000000000E0
:10002000000000000000000000000000850100004A
:1000300000000000000000008701000089010000AE
:100040008B0100008B0100008B0100008B01000080
:100050008B0100008B0100008B0100008B01000070
:10006000000000008B0100008B0100000000000078
:10007000000000008B0100008B010000E11B00006C
:100080008B0100008B0100008B0100008B01000040
:100090008B0100008B010000000000000000000048
:1000A0008B0100008B010000000000000000000038
:1000B0008B010000000000008B0100008B0100009C
:1000C00000F002F800F04AF812A030C808382418EE
:1000D0002D18AC4201D100F041F80FCCA246AB463E
:1000E0000CA730CF2D1B083F3F197C427F1E544484
:1000F0002D090426F441641EAC4201D300F02EF811
:100100000126334200D0FB1A3343984754465D46DC
:10011000DFE700006C3800007C38000000000000C1
:100120007047000000000000002300240025002686
:10013000103A01D378C1FBD8520700D330C100D5A3
:100140000B60704710B5642902D100F073F810BD40
:10015000002010BD1FB51FBD10B510BD00F03CFA4A
:100160001146FFF7F7FF01F08FFD00F054FA03B4DA
:10017000FFF7F2FF03BC01F06DFD000006480047E9
:10018000FEE7FEE7FEE7FEE7FEE7FEE70348044979
:10019000044A054B70470000C1000000A006202063
:1001A000A0082020A0072020A00720200FB4054988
:1001B00010B503AA029800F0CBF910BC08BC04B03B
:1001C00018470000E0042020F8B50E460446002041
:1001D00020622046E1688847002829D0252802D0DF
:1001E0006268A16820E0E168204600278847050092
:1001F0001ED028464138192802D80127FF02203591
:100200003246204627602946FFF79CFF002808D089
:10021000012804D0F61DF608F6000836D9E7361D89
:10022000D7E762682846A1689047206A401CCFE75C
:10023000206AF8BDF7B5002575291068009914A645
:1002400011D0C046C046002802DA404211A608E09C
:10025000009909688A0701D50FA602E0490704D56D
:100260000EA6012501E0C046C046009F00242437A9
:1002700004E000F081F930313955641C0028F8D1D0
:100280002B4632462146009800F009F9FEBD0000D9
:10029000000000002D0000002B00000020000000E6
:1002A000002203098B4273D3030A8B4258D3030BFA
:1002B0008B423CD3030C8B4221D312E003460B4309
:1002C0007FD4002243088B4274D303098B425FD34F
:1002D000030A8B4244D3030B8B4228D3030C8B427B
:1002E0000DD30902FF2212BA030C8B4202D3121261
:1002F000090265D0030B8B4219D300E0090AC30B36
:100300008B4201D3CB03C01A5241830B8B4201D3E2
:100310008B03C01A5241430B8B4201D34B03C01ACB
:100320005241030B8B4201D30B03C01A5241C30A43
:100330008B4201D3CB02C01A5241830A8B4201D3B4
:100340008B02C01A5241430A8B4201D34B02C01A9E
:100350005241030A8B4201D30B02C01A5241CDD243
:10036000C3098B4201D3CB01C01A524183098B428E
:1003700001D38B01C01A524143098B4201D34B0177
:10038000C01A524103098B4201D30B01C01A5241DA
:10039000C3088B4201D3CB00C01A524183088B4261
:1003A00001D38B00C01A524143088B4201D34B004A
:1003B000C01A5241411A00D20146524110467047BC
:1003C0005DE0CA0F00D04942031000D340425340C1
:1003D0009C46002203098B422DD3030A8B4212D381
:1003E0008901FC2212BA030A8B420CD389019211B3
:1003F0008B4208D3890192118B4204D389013AD0F0
:10040000921100E08909C3098B4201D3CB01C01AC4
:10041000524183098B4201D38B01C01A52414309D7
:100420008B4201D34B01C01A524103098B4201D3C5
:100430000B01C01A5241C3088B4201D3CB00C01A32
:10044000524183088B4201D38B00C01A5241D9D24A
:1004500043088B4201D34B00C01A5241411A00D2CB
:1004600001465241104663465B1001D34042002BC7
:1004700000D54942704763465B1000D3404201B546
:100480000449002802DC491C084000E00846C04638
:10049000C04602BDFFFFFF7F704770477047FFB542
:1004A00004460D4681B0243000902168880604D5AA
:1004B0001022E0699143216000E00120A84201DDA3
:1004C000471B00E000270498A1697A191018081A40
:1004D000A0612078C00602D42046C046C04600264F
:1004E00008E003986268A168805D9047206A401C1C
:1004F000761C206204988642F3DB2078C0060AD579
:100500002046C046C04606E06268A1683020904799
:10051000206A401C206238467F1E0028F4DC07E079
:1005200000986268A168405D9047206A401C206284
:1005300028466D1E0028F3DC2046C046C0462078C1
:10054000000602D5022005B0F0BD0120FBE7000047
:10055000084B70B50D467B4400F027F8044628464A
:1005600000F036F8002802D00020C04370BD2046BD
:1005700070BD00000B17000001468008081A020930
:100580001018020A1018020C1018C0088200121865
:100590005200891A01E0401C0A390A29FBD270472F
:1005A00001694A1C02610878704700B58FB002915A
:1005B0000021059105490193794403911146049066
:1005C0006846FFF701FE0FB000BD0000E5FFFFFF2A
:1005D000C068802108407047754600F025F8AE4697
:1005E000050069465346C008C000854618B020B5CE
:1005F000FFF7CCFD60BCB64600260027C0C5C0C5CD
:10060000C0C5C0C5C0C5C0C5C0C5C0C5403D4908FE
:1006100049008D46704710B50446C046C046204686
:10062000FFF7A5FD10BD0000004870470000202026
:10063000811E091F00BFFCD270470000B0B5112217
:10064000120283580C4C1C400B894D881D438B793A
:100650002B430A4D1D4063198350CB798C881C4372
:10066000097821435D239B001940801842689A4312
:1006700051184160B0BDC04680CCFFFF7F33000001
:1006800010B50122120383180C785C604978815000
:1006900010BD000070B5374A82184B685360364B66
:1006A000C3180878222857D8840001A52C59A746DA
:1006B0004F070000590700004F07000059070000CE
:1006C00059070000590700005907000059070000AA
:1006D000590700005907000059070000590700009A
:1006E000590700005907000059070000590700008A
:1006F0003D070000590700003D07000059070000B2
:100700005907000059070000590700005907000069
:100710005907000059070000590700005907000059
:100720005907000059070000590700005907000049
:100730003D070000590700003D070000032424077F
:100740001568A543012464072C19146004E00324F0
:1007500024071568A54315600C8AD460CC68074D42
:1007600025401C68064E264074191C60097A014316
:10077000116070BD04180000301800007777020087
:100780008888FDFF10B50122120383180C789C6045
:100790004B7883508978014A815010BD0C110000BC
:1007A000B0B51122120283580124A34383508B78E1
:1007B0000C881C438B882343094C1C408358094DEB
:1007C0001D402B1983508B79CC791C43097A214326
:1007D0007E231940801842689A4351184160B0BD89
:1007E00018670000E798FDFF10B501221203831877
:1007F0000C789C604978815010BD0000F0B581B044
:10080000012081040091094E3160C70437608505DD
:100810003560C824204601F01EFA00983061376127
:100820003561204601F017FA01B0F0BD90320A4060
:10083000F0B5024CF834802502E0C046600020206C
:10084000002121702246083A11702246103A117098
:100850002246183A11702246203A11702246283A50
:1008600011702246303A11702246383A11702246F1
:10087000403A11702246483A11702246503A11709F
:100880002246583A11702246603A11702246683A60
:1008900011702246703A11702246783A1170224641
:1008A000803A11702246883A11702246903A1170AF
:1008B0002246983A11702246A03A11702246A83A70
:1008C00011702246B03A11702246B83A1170224691
:1008D000C03A11702246C83A11702246D03A1170BF
:1008E0002246D83A11702246E03A11702246E83A80
:1008F00011702246F03A11702246F83A1170012226
:100900001302E418203D9BD1014DF935802401E00C
:100910006000202029702E46083E31702E46103E81
:1009200031702E46183E31702E46203E31702E46D4
:10093000283E31702E46303E31702E46383E3170A2
:100940002E46403E31702E46483E31702E46503E77
:1009500031702E46583E31702E46603E31702E4624
:10096000683E31702E46703E31702E46783E3170B2
:100970002E46803E31702E46883E31702E46903E87
:1009800031702E46983E31702E46A03E31702E4674
:10099000A83E31702E46B03E31702E46B83E3170C2
:1009A0002E46C03E31702E46C83E31702E46D03E97
:1009B00031702E46D83E31702E46E03E31702E46C4
:1009C000E83E31702E46F03E3170EE18F83D297049
:1009D000203C35469ED1024DFA35802402E0C046C7
:1009E0006000202029702E46083E31702E46103EB1
:1009F00031702E46183E31702E46203E31702E4604
:100A0000283E31702E46303E31702E46383E3170D1
:100A10002E46403E31702E46483E31702E46503EA6
:100A200031702E46583E31702E46603E31702E4653
:100A3000683E31702E46703E31702E46783E3170E1
:100A40002E46803E31702E46883E31702E46903EB6
:100A500031702E46983E31702E46A03E31702E46A3
:100A6000A83E31702E46B03E31702E46B83E3170F1
:100A70002E46C03E31702E46C83E31702E46D03EC6
:100A800031702E46D83E31702E46E03E31702E46F3
:100A9000E83E31702E46F03E3170EE18F83D297078
:100AA000203C35469ED1FC4DFB35802429702E46D6
:100AB000083E31702E46103E31702E46183E317081
:100AC0002E46203E31702E46283E31702E46303E56
:100AD00031702E46383E31702E46403E31702E46E3
:100AE000483E31702E46503E31702E46583E317091
:100AF0002E46603E31702E46683E31702E46703E66
:100B000031702E46783E31702E46803E31702E4632
:100B1000883E31702E46903E31702E46983E3170A0
:100B20002E46A03E31702E46A83E31702E46B03E75
:100B300031702E46B83E31702E46C03E31702E4682
:100B4000C83E31702E46D03E31702E46D83E3170B0
:100B50002E46E03E31702E46E83E31702E46F03E85
:100B60003170EE18F83D2970203C35469ED1CA4DB3
:100B7000FC35802429702E46083E31702E46103EEA
:100B800031702E46183E31702E46203E31702E4672
:100B9000283E31702E46303E31702E46383E317040
:100BA0002E46403E31702E46483E31702E46503E15
:100BB00031702E46583E31702E46603E31702E46C2
:100BC000683E31702E46703E31702E46783E317050
:100BD0002E46803E31702E46883E31702E46903E25
:100BE00031702E46983E31702E46A03E31702E4612
:100BF000A83E31702E46B03E31702E46B83E317060
:100C00002E46C03E31702E46C83E31702E46D03E34
:100C100031702E46D83E31702E46E03E31702E4661
:100C2000E83E31702E46F03E3170EE18F83D2970E6
:100C3000203C35469ED1E04DFD35802429702E465E
:100C4000083E31702E46103E31702E46183E3170EF
:100C50002E46203E31702E46283E31702E46303EC4
:100C600031702E46383E31702E46403E31702E4651
:100C7000483E31702E46503E31702E46583E3170FF
:100C80002E46603E31702E46683E31702E46703ED4
:100C900031702E46783E31702E46803E31702E46A1
:100CA000883E31702E46903E31702E46983E31700F
:100CB0002E46A03E31702E46A83E31702E46B03EE4
:100CC00031702E46B83E31702E46C03E31702E46F1
:100CD000C83E31702E46D03E31702E46D83E31701F
:100CE0002E46E03E31702E46E83E31702E46F03EF4
:100CF0003170EE18F83D2970203C35469ED1AE4D3E
:100D0000FE35802429702E46083E31702E46103E56
:100D100031702E46183E31702E46203E31702E46E0
:100D2000283E31702E46303E31702E46383E3170AE
:100D30002E46403E31702E46483E31702E46503E83
:100D400031702E46583E31702E46603E31702E4630
:100D5000683E31702E46703E31702E46783E3170BE
:100D60002E46803E31702E46883E31702E46903E93
:100D700031702E46983E31702E46A03E31702E4680
:100D8000A83E31702E46B03E31702E46B83E3170CE
:100D90002E46C03E31702E46C83E31702E46D03EA3
:100DA00031702E46D83E31702E46E03E31702E46D0
:100DB000E83E31702E46F03E3170EE18F83D297055
:100DC000203C35469ED17C4DFF35802429702E462F
:100DD000083E31702E46103E31702E46183E31705E
:100DE0002E46203E31702E46283E31702E46303E33
:100DF00031702E46383E31702E46403E31702E46C0
:100E0000483E31702E46503E31702E46583E31706D
:100E10002E46603E31702E46683E31702E46703E42
:100E200031702E46783E31702E46803E31702E460F
:100E3000883E31702E46903E31702E46983E31707D
:100E40002E46A03E31702E46A83E31702E46B03E52
:100E500031702E46B83E31702E46C03E31702E465F
:100E6000C83E31702E46D03E31702E46D83E31708D
:100E70002E46E03E31702E46E83E31702E46F03E62
:100E80003170EE18F83D2970203C35469ED1D302D2
:100E900092039A4C8E4D05E060002020491C0829E1
:100EA00000D188E023612261B0260E43F6B22E63A2
:100EB0002E68F60608D52E68F60605D52E68F606C5
:100EC00002D52E68F606F3D42260236023612261E6
:100ED00000262E632F68FF0608D52F68FF0605D56C
:100EE0002F68FF0602D52F68FF06F3D42260236027
:100EF0002361226110272F632F68FF0608D52F6812
:100F0000FF0605D52F68FF0602D52F68FF06F3D42C
:100F10002260236004E022602360361D802EBDD055
:100F2000F7002548C719785C236022612863286888
:100F3000C00608D52868C00605D52868C00602D5B1
:100F40002868C006F3D4226023607F18387A2360B3
:100F5000226128632868C00608D52868C00605D520
:100F60002868C00602D52868C006F3D42260236032
:100F7000387C2360226128632868C00608D5286869
:100F8000C00605D52868C00602D52868C006F3D477
:100F900022602360387E2360226128632868C006AF
:100FA000B9D52868C006B6D52868C006B3D5286864
:100FB000C006F3D4AFE7F0BD6000202010B50122D9
:100FC000D1029203414B012813D0002825D119608A
:100FD0001A603F48A62404630468E4061AD504682E
:100FE000E40617D50468E40614D50468E406F3D4CF
:100FF00010E019601A603648A72404630468E40608
:1010000008D50468E40605D50468E40602D504683A
:10101000E406F3D4103B1A60196010BD10B501222C
:10102000D1029203294B012827D000284DD1196005
:101030001A602748C82404630468E40608D50468D5
:10104000E40605D50468E40602D50468E406F3D492
:101050001C46103C2260216019601A60A1240463C0
:101060000468E4062ED50468E4062BD50468E4067B
:1010700028D50468E406F3D424E019601A60144803
:10108000C02404630468E40608D50468E40605D5B2
:101090000468E40602D50468E406F3D41C46103C58
:1010A0002260216019601A60A02404630468E406C9
:1010B00008D50468E40605D50468E40602D504688A
:1010C000E406F3D4103B1A60196010BDA0320A4048
:1010D00010B14640F0B581B00124A602074D2E6143
:1010E000C820009000F0B7FD2E60E6022E61A70335
:1010F0002F61FE4CAE20206302E0C04690320A40D1
:101100002068C00608D52068C00605D52068C0063E
:1011100002D52068C006F3D42F602E602E612F61A7
:10112000002222632068C00608D52068C00605D5C5
:101130002068C00602D52068C006F3D42F602E6058
:101140002E612F61102020632068C00608D520681A
:10115000C00605D52068C00602D52068C006F3D4B5
:101160002F602E602E612F61402121632068C00610
:1011700008D52068C00605D52068C00602D52068BD
:10118000C006F3D42F602E602E612F618120206372
:101190002068C00608D52068C00605D52068C006AE
:1011A00002D52068C006F3D42F602E602E612F6117
:1011B000CF2020632068C00608D52068C00605D56A
:1011C0002068C00602D52068C006F3D42F602E60C8
:1011D0002E612F61A12020632068C00608D52068F9
:1011E000C00605D52068C00602D52068C006F3D425
:1011F0002F602E602E612F61009820632068C0064A
:1012000008D52068C00605D52068C00602D520682C
:10121000C006F3D42F602E602E612F61A6202063BC
:101220002368DB0608D52368DB0605D52368DB06C3
:1012300002D52368DB06F3D42F602E602E612F6168
:10124000A82323632368DB0608D52368DB0605D5BE
:101250002368DB0602D52368DB06F3D42F602E60FB
:101260002E612F613F2323632368DB0608D52368A3
:10127000DB0605D52368DB0602D52368DB06F3D43D
:101280002F602E602E612F61D32323632368DB063A
:1012900008D52368DB0605D52368DB0602D523685D
:1012A000DB06F3D42F602E602E612F61226322684B
:1012B000D20608D52268D20605D52268D20602D504
:1012C0002268D206F3D42F602E602E612F61D522C2
:1012D00022632268D20608D52268D20605D5226884
:1012E000D20602D52268D206F3D42F602E602E617A
:1012F0002F61802222632268D20608D52268D20696
:1013000005D52268D20602D52268D206F3D42F6012
:101310002E602E612F61D92222632268D20608D561
:101320002268D20605D52268D20602D52268D206E6
:10133000F3D42F602E602E612F61F1222263226888
:10134000D20608D52268D20605D52268D20602D573
:101350002268D206F3D42F602E602E612F61DA222C
:1013600022632268D20608D52268D20605D52268F3
:10137000D20602D52268D206F3D42F602E602E61E9
:101380002F61122222632268D20608D52268D20673
:1013900005D52268D20602D52268D206F3D42F6082
:1013A0002E602E612F61DB2222632268D20608D5CF
:1013B0002268D20605D52268D20602D52268D20656
:1013C000F3D42F602E602E612F6121632168C9063E
:1013D00008D52168C90605D52168C90602D5216846
:1013E000C906F3D42F602E602E612F612021216366
:1013F0002168C90608D52168C90605D52168C9062E
:1014000002D52168C906F3D42F602E602E612F61AA
:10141000022121632168C90608D52168C90605D5BE
:101420002168C90602D52168C906F3D42F602E6051
:101430002E612F618D2121632168C90608D521689D
:10144000C90605D52168C90602D52168C906F3D4A5
:101450002F602E602E612F61142121632168C9063F
:1014600008D52168C90605D52168C90602D52168B5
:10147000C906F3D42F602E602E612F61A421216351
:101480002168C90608D52168C90605D52168C9069D
:1014900002D52168C906F3D42F602E602E612F611A
:1014A00020632068C00608D52068C00605D52068DE
:1014B000C00602D52068C006F3D42F602E60FFF767
:1014C000B7F92E612F61AF2020632068C00608D5D0
:1014D0002068C00605D52068C00602D52068C00671
:1014E000F3D42F602E6001B0F0BDC04610B146406D
:1014F000F0B50121C80289030022484B484C03E0A3
:10150000521C082A00D188E018611961B0261643E0
:10151000F6B226632668F60608D52668F60605D5CF
:101520002668F60602D52668F606F3D41960186018
:1015300018611961002626632768FF0608D5276809
:10154000FF0605D52768FF0602D52768FF06F3D4F6
:101550001960186018611961102727632768FF0652
:1015600008D52768FF0605D52768FF0602D5276836
:10157000FF06F3D41960186004E019601860361D86
:10158000802EBDD0F700D54DEF19BD5C18601961F4
:1015900025632568ED0608D52568ED0605D525687F
:1015A000ED0602D52568ED06F3D419601860BF1862
:1015B0003D7A1860196125632568ED0608D5256810
:1015C000ED0605D52568ED0602D52568ED06F3D4B0
:1015D000196018603D7C1860196125632568ED0667
:1015E00008D52568ED0605D52568ED0602D52568E0
:1015F000ED06F3D4196018603D7E1860196125630B
:101600002568ED06B9D52568ED06B6D52568ED0641
:10161000B3D52568ED06F3D4AFE7F0BD90320A40AC
:1016200010B14640F0B58CB00B910490082B01D15D
:10163000062409E05907D808002900D0401C5C089E
:101640004443200600D13EE111980990203AD1B2DE
:101650002420009148439D49091858080290002011
:10166000E2B20192049D0446039307E00899491CE5
:10167000641CE0B2019A904200D324E1082B089147
:10168000079404D10621009A5143934A0FE0182B86
:1016900000D116E1102B07D00C2B00D013E10C2148
:1016A000009A51438B4A02E000990901884A511877
:1016B0000818059007200B9A11460A900140012452
:1016C00026468E400695E9B2C90084484718D1B233
:1016D000CD087A5D13463343B24309990029194670
:1016E00000D01146099E002E00D01A46002305980E
:1016F000C3561E46DB0700D0114679550B98411C96
:10170000CAB20A98014023468B40D5087A5D11463B
:1017100019439A43099800280B4600D092E000280C
:1017200000D093E0B10700D513467B550B99891C77
:10173000CAB20A9B194023468B40D5087A5D1146F0
:1017400019439A4300280B4600D084E0002800D0BB
:1017500085E0710700D513467B550B99C91CCAB2A9
:101760000A9B194023468B40D5087A5D11461943E0
:101770009A4300280B4677D1002878D1310700D54D
:1017800013467B550B99091DCAB20A9B1940234683
:101790008B40D5087A5D114619439A4300280B46C1
:1017A00069D100286AD1F10600D513467B550B9903
:1017B000491DCAB20A9B194023468B40D5087A5D61
:1017C000114619439A4300280B465BD100285CD18F
:1017D000B10600D513467B550B99891DCAB20A9BE9
:1017E000194023468B40D5087A5D114619439A4328
:1017F00000280B464DD100284ED1710600D5134666
:101800007B550B98C11D0A9808408440C8B2C00897
:101810003A5C1146A1431443099A002A0A4600D0B3
:101820002246099B002B069B00D00C46002E00D4BC
:1018300022463A54581C039B082B31D1054608997F
:10184000079C14E71346002800D16BE70A46B1074E
:1018500000D569E769E71346002800D179E70A4611
:10186000710700D577E777E71346002886D00A4648
:10187000310785D485E71346002894D00A46F1063F
:1018800093D493E713460028A2D00A46B106A1D408
:10189000A1E713460028B0D00A467106AFD4AFE7DF
:1018A000C1B2049A891A029A9142079C02D10B9AFA
:1018B00008320B92029A9142049D00D1D6E6054669
:1018C000D4E60591F6E60CB0F0BDC046F22B000060
:1018D000022600008E210000661F0000600020200C
:1018E000F0B589B007900893002B56D015460C46EA
:1018F0000E9841080690082800D1891C05910F9880
:1019000004900899481E891E01910026C0B20390D8
:10191000234F029418E00121284600F029FA0A21F9
:10192000FEF7BEFC0498009030220A4305987043ED
:1019300007994018C0B22146069BFFF773FE761C3C
:10194000F0B20899884228D2F0B203998842E2D0D6
:101950002C46F043089940180199891BC9B2032904
:1019600001D2012108E0FC22024000230121794339
:101970001B1DDDB29542FAD1032210402546029C80
:10198000CAD0012801D10A2005E0022802D07D201A
:10199000C00000E064204143BEE709B0F0BDC0468E
:1019A00010270000F0B583B0064617783846203877
:1019B000C0B25E281CD8082B01D05D0800E00625C7
:1019C00008980190541C029501980090F0B2FAB268
:1019D0000D461F46FFF726FE3B462946029D761917
:1019E000601C27783A46203AD2B25F2A0446EBD3ED
:1019F00003B0F0BD0F48822101650F494A1C4265C2
:101A00008322426602668A1CC2650C4A81231361E6
:101A100053619362116051628366C366836743605A
:101A2000036007480321016001640648064901601C
:101A3000016370470480424081000400A08042405E
:101A400090120A40A0320A40004C4C0010B50D4CD8
:101A50000D492046FEF714FE0C492046FEF7EEFD28
:101A60000B4841680B4A0A40511C416081681222B0
:101A70000A432D218A438260016801220A430260E1
:101A800010BDC04600A046404E390000503900004D
:101A900004B1464000FCFFFF0648002101600648F3
:101AA00001680322914301600121090342680A434E
:101AB0004260704708030B4000010B4010B5084C12
:101AC00008492046FEF75EFE07492046FEF7E2FD84
:101AD000064801680122114301600548026010BDFB
:101AE000000086405A390000603900002810864006
:101AF0000811864010B5154C15492046FEF774FEB6
:101B000014492046FEF74CFE0320C1031248026828
:101B10008A4302600169114A0A40911C01614169CE
:101B20000B220A4334218A43426141680122114059
:101B300043689343591841609102094B1C680C4358
:101B40001C6001681143016010BDC0460080104058
:101B50007439000076390000009110400000FFFF4A
:101B60002890104080B500F017F8FFF743FFFFF70B
:101B700093FFFFF7A3FFFFF7BDFFFFF767FF2420E9
:101B8000034900220A54B82002490A5480BDC046C5
:101B9000340520205C052020B0B50A480A49416080
:101BA0000A4A51600A4B59600A4C61600A4D6960EB
:101BB0000A49016011601960216029601020FEF758
:101BC00037FDB0BD00080A40030000B100280A40FC
:101BD000000886400088104000A84640010000260A
:101BE00010B512480068C0B20B281ED12548C16943
:101BF0000F4A13887E2B13D813885C1C14800D4A5F
:101C0000D1540268D20708D00268D20705D0026812
:101C1000D20702D00268D207F3D1C9B2816101E0D4
:101C20000020108004480121017010BD2090104058
:101C30009A06202018062020980620200120C003A4
:101C400002490860024908607047C04680E200E02F
:101C500000E100E0704780B57D2109024843FEF7AE
:101C6000E7FC80BD07490A68D20708D00A68D20796
:101C700005D00A68D20702D00A68D207F3D1C2B2EF
:101C80008A6170470891104084B0FFF76BFFFFF73F
:101C9000D5FFFFF71FFA00252846FFF78FF92846E2
:101CA000FFF7BCF90CE0EEB2672003232146324671
:101CB000FFF716FEFFF71CFC29A03146FEF776FA67
:101CC000FEF79CFD7D20C000FFF7C5FFFEF7B0FDCD
:101CD000FFF70EFC0126009608201027394615A2B2
:101CE0003B46FFF75FFE009614202021039115A2CA
:101CF0003B46FFF757FE009600203024214614A2F1
:101D00003B46FFF74FFE00963F20214612A23B467E
:101D1000FFF748FE0096EAB2204621463B46FFF711
:101D200081FC00970196681C039DC1B27E29BAD838
:101D30000546B8E75A484F4E474A494E475955411C
:101D40004E000000323032352F30372F313700004F
:101D500041534349493A0000434F44453A0000008B
:101D6000E588B7E696B02564E6ACA10A000000005D
:101D700043088B421AD3002203098B4279D3030A0A
:101D80008B425ED3030B8B4242D3030C8B4227D38F
:101D90000902FF2212BA030C8B4202D3121209026B
:101DA00003D0030B8B4233D31AE0D3E0411A8041B6
:101DB000401C704703460B4371D443088B42F5D354
:101DC000002203098B4254D3030A8B4239D3030BFD
:101DD0008B421DD3030C8B4202D394466EE0090A5A
:101DE000C30B8B4201D3CB03C01A5241830B8B42EE
:101DF00001D38B03C01A5241430B8B4201D34B03D7
:101E0000C01A5241030B8B4201D30B03C01A52413B
:101E1000C30A8B4201D3CB02C01A5241830A8B42C0
:101E200001D38B02C01A5241430A8B4201D34B02A9
:101E3000C01A5241030A8B4201D30B02C01A52410D
:101E4000CDD2C3098B4201D3CB01C01A52418309C1
:101E50008B4201D38B01C01A524143098B4201D3FB
:101E60004B01C01A524103098B4201D30B01C01A26
:101E70005241C3088B4201D3CB00C01A52418308A0
:101E80008B4201D38B00C01A524143088B4201D3CD
:101E90004B00C01A5241411A524110007047CA0FFC
:101EA00000D04942031000D34042534000229C46D8
:101EB00003098B422DD3030A8B4212D38901FC22E2
:101EC00012BA030A8B420CD3890192118B4208D3B8
:101ED000890192118B4204D3890137D0921100E01D
:101EE0008909C3098B4201D3CB01C01A524183092E
:101EF0008B4201D38B01C01A524143098B4201D35B
:101F00004B01C01A524103098B4201D30B01C01A85
:101F10005241C3088B4201D3CB00C01A52418308FF
:101F20008B4201D38B00C01A5241D9D243088B4255
:101F300001D34B00C01A5241411A00D2014652410E
:101F4000104663465B1000D34042704763465B1007
:101F500000D3404201B50021004201D0C9430846E8
:101F6000C046C04602BD0000000000000000002F77
:101F7000000000000700070000147F147F140024F5
:101F80002A7F2A1200626408132300364955225022
:101F900000000503000000001C2241000000412257
:101FA0001C000014083E08140008083E0808000041
:101FB00000A0600000080808080800006060000039
:101FC000002010080402003E5149453E0000427FB7
:101FD0004000004261514946002141454B31001803
:101FE00014127F10002745454539003C4A494930C5
:101FF000000171090503003649494936000649497F
:10200000291E000036360000000056360000000889
:102010001422410000141414141400004122140866
:1020200000020151090600324959513E007C12114B
:10203000127C007F49494936003E41414122007FE0
:102040004141221C007F49494941007F090909019A
:10205000003E4149497A007F0808087F0000417F1F
:102060004100002040413F01007F08142241007FD1
:1020700040404040007F020C027F007F0408107F38
:10208000003E4141413E007F09090906003E4151A1
:10209000215E007F0919294600464949493100015E
:1020A000017F0101003F4040403F001F2040201FB2
:1020B000003F4038403F0063140814630007087075
:1020C000080700615149454300007F414100005528
:1020D0002A552A55000041417F00000402010204F4
:1020E00000404040404000000102040000205454E1
:1020F0005478007F48444438003844444420003831
:102100004444487F00385454541800087E090102A2
:102110000018A4A4A47C007F080404780000447D77
:102120004000004080847D00007F102844000000B3
:10213000417F4000007C04180478007C0804047887
:1021400000384444443800FC242424180018242473
:1021500018FC007C0804040800485454542000046F
:102160003F444020003C4040207C001C2040201C7C
:10217000003C4030403C004428102844001CA0A0F3
:10218000A07C004464544C4414141414141400002F
:10219000000000000000000000000000FC00000043
:1021A000000002000000000C020C02000000000011
:1021B000000090D0BCD0BC900003000300001824A5
:1021C000FE448C000302070201001824D8B04C80A2
:1021D000000300010201C038E438E00001020201FE
:1021E00002020806000000000000000000000000DD
:1021F00000F80402000000010204000204F80000DC
:102200000004020100009060F860900000000100EE
:1022100000002020FC202000000001000000000041
:102220000000000008060000000020202020200000
:10223000000000000000000000000000000200009C
:1022400000000080601C0200040300000000F8048D
:102250000404F8000102020201000008FC00000072
:102260000002030200001884442418000302020242
:10227000020008042424D80001020202010040B038
:1022800088FC80000000000302003C242424C400D9
:10229000010202020100F824242CC0000102020203
:1022A00001000C04E41C0400000003000000D8241A
:1022B0002424D80001020202010038444444F800FA
:1022C00000030202010000001000000000000200F4
:1022D00000000000200000000000060000000020B8
:1022E000508804020000000001029090909090003D
:1022F00000000000000000020488502000020100DD
:1023000000001804C4241800000002000000F804B3
:10231000E494F80001020202020000E09CF0800058
:1023200002030000030204FC2424D800020302027A
:102330000100F80404040C0001020202010004FC84
:102340000404F80002030202010004FC24740C00DF
:1023500002030202030004FC24740C0002030200C6
:102360000000F0080444CC4000010202010004FC1B
:102370002020FC040203000003020404FC04040007
:10238000020203020200000404FC04040604040325
:10239000000004FC24D00C0402030200030204FC2D
:1023A00004000000020302020203FC3CC03CFC00EB
:1023B00003000300030004FC30C4FC040203020019
:1023C0000300F8040404F80001020202010004FC06
:1023D00024241800020302000000F8848404F8009A
:1023E00001020207050004FC2464980002030200B5
:1023F0000302182424448C000302020201000C048E
:10240000FC040C0000020302000004FC0000FC04B9
:10241000000102020100047C80E01C0400000300B3
:1024200000001CE03CE01C00000300030000049CD2
:10243000609C0400020300030200041CE01C040072
:102440000002030200000C84641C04000203020268
:1024500003000000FE020200000007040400000E5A
:1024600030C00000000000010200000202FE000077
:102470000004040700000004020400000000000043
:10248000000000000000000008080808080800001C
:10249000020000000000000000000040A0A0C000FA
:1024A00000010202030204FC2020C000000302021B
:1024B000010000C02020600000010202020000C0F4
:1024C0002024FC0000010202030200C0A0A0C00002
:1024D0000001020202000020F8242404000203028A
:1024E00002000040A0A0602000070A0A0A0404FCC1
:1024F0002020C0000203020003020020E4000000CC
:10250000000203020000000020E4000008080807A1
:10251000000004FC80E02020020302000302040407
:10252000FC000000020203020200E020E020C000E4
:1025300003000300030020E02020C000020302008B
:10254000030200C02020C00000010202010020E0C0
:102550002020C000080F0A02010000C02020E00077
:102560000001020A0F0820E04020200002030200C0
:1025700000000060A0A02000000202020300002072
:10258000F820000000000102020020E00020E0002E
:1025900000010202030220E020806020000003010D
:1025A00000006080E0806000000300030000206005
:1025B0008060200002030003020020E020806020F1
:1025C0000808070100000020A060200000020302AC
:1025D0000200000020DE02000000000704000000EE
:1025E00000FF00000000000F00000002DE200000DD
:1025F00000040700000002010204040200000000C1
:1026000000000000000000000000000000000000CA
:102610000000000000F8000000000000003330005F
:10262000000000100C06100C060000000000000066
:10263000000040C07840C0784000043F04043F04DC
:102640000400007088FC08300000001820FF211EE4
:102650000000F008F000E018000000211C031E211B
:102660001E0000F00888700000001E212324192796
:10267000211010160E0000000000000000000000F5
:102680000000000000E0180402000000000718200D
:10269000400000020418E00000000040201807007D
:1026A0000000404080F0804040000202010F010223
:1026B0000200000000F0000000000101011F010104
:1026C0000100000000000000000080B07000000069
:1026D00000000000000000000000000101010101F5
:1026E0000101000000000000000000303000000088
:1026F000000000000000806018040060180601005F
:10270000000000E010080810E000000F102020106A
:102710000F00001010F8000000000020203F2020D3
:10272000000000700808088870000030282422216A
:102730003000003008888848300000182020201120
:102740000E000000C02010F8000000070424243F01
:10275000240000F8088888080800001921202011AA
:102760000E0000E0108888180000000F11202011D2
:102770000E0000380808C83808000000003F0000BC
:1027800000000070880808887000001C22212122A7
:102790001C0000E010080810E000000031222211A7
:1027A0000F00000000C0C00000000000003030003A
:1027B00000000000008000000000000080600000B9
:1027C00000000000804020100800000102040810F2
:1027D0002000404040404040400004040404040401
:1027E00004000008102040800000002010080402AF
:1027F0000100007048080808F000000000303601B1
:102800000000C030C828E810E0000718272423146F
:102810000B000000C038E0000000203C230202272B
:10282000382008F8888888700000203F2020201178
:102830000E00C030080808083800071820202010B3
:10284000080008F808080810E000203F20202010A9
:102850000F0008F88888E8081000203F2020232077
:10286000180008F88888E8081000203F20000300BE
:102870000000C03008080838000007182020221E79
:10288000020008F808000008F808203F2101012193
:102890003F20000808F8080800000020203F202002
:1028A000000000000808F8080800C08080807F0051
:1028B000000008F888C028180800203F20012638AA
:1028C000200008F8080000000000203F2020202001
:1028D000300008F8F800F8F80800203F003F003FFB
:1028E000200008F830C00008F808203F2000071832
:1028F0003F00E01008080810E0000F102020201012
:102900000F0008F808080808F000203F2101010125
:102910000000E01008080810E0000F1824243850C8
:102920004F0008F8888888887000203F2000030C3A
:102930003020007088080808380000382021212243
:102940001C00180808F8080818000000203F2000A4
:10295000000008F808000008F808001F20202020C8
:102960001F000878880000C83808000007380E01EA
:102970000000F80800F80008F800033C0700073CD6
:102980000300081868808068180820302C03032C86
:1029900030200838C800C83808000000203F200058
:1029A000000010080808C838080020382621202018
:1029B0001800000000FE020202000000007F4040FC
:1029C0004000000C30C0000000000000000106388C
:1029D000C00000020202FE000000004040407F00F4
:1029E00000000000040202020400000000000000D9
:1029F00000000000000000000000808080808080D7
:102A000080800002020400000000000000000000BE
:102A10000000000080808080000000192422222213
:102A20003F2008F8008080000000003F11202011A6
:102A30000E000000008080800000000E1120202089
:102A40001100000000808088F800000E1120201086
:102A50003F200000808080800000001F2222222270
:102A60001300008080F0888888180020203F2020F4
:102A700000000000808080808000006B949494931C
:102A8000600008F8008080800000203F21000020C6
:102A90003F2000809898000000000020203F202068
:102AA0000000000000809898000000C08080807FB7
:102AB000000008F8000080808000203F24022D30B4
:102AC0002000000808F8000000000020203F20201F
:102AD00000008080808080808000203F20003F2098
:102AE000003F8080008080800000203F2100002087
:102AF0003F200000808080800000001F20202020D8
:102B00001F00808000808000000080FFA120201135
:102B10000E000000008080808000000E112020A0A8
:102B2000FF80808080008080800020203F21200066
:102B30000100000080808080800000332424242451
:102B40001900008080E0808000000000001F20202D
:102B500000008080000000808000001F20202010E6
:102B60003F20808080000080808000010E300806B9
:102B7000010080800080008080800F300C030C30CA
:102B80000F0000808000808080000020312E0E31F8
:102B90002000808080000080808080818E701806F8
:102BA000010000808080808080000021302C222164
:102BB000300000000000807C020200000000003FA6
:102BC000404000000000FF00000000000000FF0087
:102BD00000000002027C800000000040403F000036
:102BE00000000006010102020404000000000000D1
:102BF00000000000000000000000000000000000D5
:102C000000000000000000000000000000000000C4
:102C10000000000000000000000000F0F0F00000E4
:102C200000000000000000017F0100000000000023
:102C30000000001C1C1C0000000000008060301C14
:102C40008C60301C0C000000000000000000000040
:102C50000000000000000000000000000000000074
:102C600000E00000000000E000000086E69F86868D
:102C70008686E69F860000011F01010101011F01F8
:102C80000100000080C06020F820E0C000000000CB
:102C900003070C18FF70E18100000000070F1010FF
:102CA0007F100F0700008060206080000000E0209F
:102CB00000000F3020309F70DC371030C000000063
:102CC000100E03000718101807000000C02020E0B5
:102CD000C0000000000080E01F38E88703C43C0407
:102CE0000000070F1810100B070D101008000080CF
:102CF0008C4C3800000000000000000000000000C4
:102D000000000000000000000000000000000000C3
:102D1000000000000000000080E030080400000017
:102D2000000000FEFF0100000000000000000000A5
:102D3000030F1820400000040830E080000000006D
:102D400000000000000001FFFE0000000000004045
:102D500020180F0300000000000000000000000029
:102D6000C00000000000004266663C18FF183C6688
:102D700066420000000000000300000000000000A8
:102D80000000000080000000000000101010101073
:102D9000FF101010101000000000000003000000E1
:102DA0000000000000000000000000000000000023
:102DB0000000000000000000000000808C4C380083
:102DC0000000000000000000000000000000000003
:102DD0000000001010101010101010101000000053
:102DE00000000000000000000000000000000000E3
:102DF00000000000000000000000000000000000D3
:102E0000000000001C1C1C0000000000000000006E
:102E1000000000000000E0380C000000000080709E
:102E20001C03000000000060380E010000000000DC
:102E30000000000080C060202060C080000000FE14
:102E4000FF010000000001FFFE000001070E181046
:102E500010180E0701000000808080C0E000000014
:102E600000000000000000FFFF0000000000000064
:102E70001010101F1F101010000000804020202094
:102E80002060C080000000030300804020381F073E
:102E90000000001C1A1918181818181F00000080CC
:102EA000C020202060C0800000000003030010103C
:102EB000182FE780000000070F10101010180F07E0
:102EC0000000000000000000C0E0F000000000C0B2
:102ED000B088868180FFFF80800000000000001025
:102EE000101F1F1010000000E060606060606060F4
:102EF000000000003F1008080818F0E0000000077C
:102F00000B101010101C0F030000000080C04020A8
:102F10002020E0C0000000FCFF211008080818F085
:102F2000E0000001070C18101010080F030000004B
:102F3000C0E06060606060E06000000003000000CE
:102F4000E0180700000000000000001F1F00000044
:102F500000000080C0602020202060C0800000872A
:102F6000EF2C1818303068CF830000070F081010BE
:102F70001010180F07000000C0C020202020C080C3
:102F80000000001F3F604040402010FFFE00000096
:102F90000C1C101010080F030000000000000000BF
:102FA00000000000000000000000000E0E0E0000F7
:102FB000000000000000001C1C1C000000000000BD
:102FC0000000000000000000000000000000000CF5
:102FD0000C00000000000000000000583800000055
:102FE00000000000000000000080402010000000F1
:102FF00010284482010000000000000000000000D2
:1030000001020408100000000000000000000000A1
:103010000000008484848484848484848400000088
:1030200000000000000000000000000010204080B0
:1030300000000000000000000000000001824428A1
:10304000100000001008040201000000000000C091
:1030500020201010101030E0C0000003030000F02A
:1030600010080C070300000000001C1C1C000000DE
:103070000000000000C0406020202040C00000FC94
:10308000FF01F00E03C1FE03807F0001070E08114F
:103090001110110904020000000080E0E0000000AF
:1030A00000000000807C4340477FF880000010183B
:1030B0001F1000000000131F1C1020E0E020202043
:1030C0002060C080000000FFFF10101010182FE7D4
:1030D0008000101F1F1010101010180F07000000A4
:1030E00080C0402020202060E00000FCFF010000A4
:1030F0000000000001000001070E18101010080465
:10310000030020E0E02020202040C080000000FFDD
:10311000FF000000000001FFFE00101F1F10101034
:1031200018080E07010020E0E02020202020206069
:10313000800000FFFF101010107C00000000101F26
:103140001F10101010101018060020E0E0202020A2
:1031500020206060800000FFFF101010107C000035
:103160000100101F1F100000000000000000000000
:1031700080C06020202040E0000000FCFF01000033
:103180004040C0C140400001070E181010100F0F42
:10319000000020E0E0200000000020E0E02000FF30
:1031A000FF101010101010FFFF00101F1F10000064
:1031B0000000101F1F100000202020E0E020202031
:1031C00000000000000000FFFF0000000000000001
:1031D0001010101F1F101010000000000000202011
:1031E00020E0E020202000000000000000FFFF00A1
:1031F00000000060E0808080C07F3F00000020E091
:10320000E020000020A06020200000FFFF30187C9C
:10321000E3C000000000101F1F10000001131F1C5E
:10322000181020E0E020000000000000000000FF77
:10323000FF000000000000000000101F1F10101011
:1032400010101018060020E0E0E000000000E0E0B0
:10325000E02000FF013FFEC0E01E01FFFF00101F45
:103260001000031F0300101F1F1020E0E0C000002B
:1032700000000020E02000FF0003071C78E0800031
:10328000FF00101F100000000000030F1F000000CF
:1032900080C060202060C080000000FEFF010000B0
:1032A000000000FFFE000001070E181010180C07A8
:1032B000010020E0E0202020202060C0800000FFEE
:1032C000FF2020202020301F0F00101F1F100000A3
:1032D000000000000000000080C060202060C0806E
:1032E000000000FEFF010000000000FFFE000001E2
:1032F000070E1111133C7C67210020E0E020202004
:10330000202060C0800000FFFF101030F0D0080FB8
:103310000700101F1F10000000030F1C101000807A
:10332000C060202020204040E00000070F0C18184B
:10333000303060E08100001F0C0810101010180FD2
:1033400007008060202020E0E02020206080010035
:10335000000000FFFF000000000100000000101F3F
:103360001F100000000020E0E0200000000000200E
:10337000E02000FFFF00000000000000FF00000749
:103380000F1810101010100807002060E0E0200057
:10339000000020E060200000077FF88000807C03B0
:1033A000000000000000071F1C070000000020E0D4
:1033B000E02000E0E0200020E0200007FFF8E01F10
:1033C000FFFCE01F00000000031F0300011F0300BB
:1033D0000000002060E0A0000020E060200000006D
:1033E00000038F7CF8C6010000000010181E1300B7
:1033F00001171F1810002060E0E02000000020E00E
:103400006020000001073EF8E018070000000000FF
:103410000010101F1F1010000000008060202020EE
:1034200020A0E0E0200000000000C0F03E0F0300FC
:10343000000000101C1F17101010101806000000CC
:10344000000000FC0404040404000000000000FF6D
:1034500000000000000000000000007F40404040ED
:103460004000000010E0000000000000000000002C
:103470000000031C6080000000000000000000004D
:1034800000030C70800000000404040404FC00002D
:10349000000000000000000000FF0000000000002D
:1034A00040404040407F0000000000000010080C39
:1034B000040C0810000000000000000000000000E4
:1034C00000000000000000000000000000000000FC
:1034D00000000000000000000000000000000000EC
:1034E00000000000000080808080808080808080DC
:1034F00080800000000404080800000000000000B4
:1035000000000000000000000000000000000000BB
:1035100000000000000000000000000000000000AB
:103520000000000098D844642424FCF80000000F38
:103530001F18101010081F1F10180020E0F00000C6
:103540000000000000000000FFFF180804040CF851
:10355000F00000001F0F18101010180F03000000DB
:103560000000000000000000000000E0F818040463
:10357000043C3800000000030F0C10101010080667
:1035800000000000000000000020E0F0000000E06B
:10359000F81C04040408FFFF000000030F181010BB
:1035A00010081F0F080000000000000000000000CD
:1035B00000000000E0F8484444444C7870000000EB
:1035C000030F0C181010100804000000000080C049
:1035D000602020E0C00000040404FFFF0404040491
:1035E0000000000010101F1F10101000000000004D
:1035F00000000000000000000000000070F88C04D3
:10360000048CF874040C007076CF8D8D8D89C87889
:1036100070000020E0F0000000000000000000004A
:10362000FFFF08040404FCF8000000101F1F100036
:1036300000101F1F1000000000000060600000006C
:1036400000000000040404FCFC0000000000000076
:103650001010101F1F1010100000000000000000CC
:1036600000606000000000000000040404FCFC0096
:1036700000000000C0C08080C07F3F00000000202C
:10368000E0F000000000000000000000FFFF80C02C
:10369000F41C0404000000101F1F1100031F1C1065
:1036A00010000000202020E0F000000000000000DA
:1036B000000000FFFF000000000000001010101FBD
:1036C0001F101010000000000000000000000000AB
:1036D000000004FCFC0804FCFC0804FCFC00101FB7
:1036E0001F10001F1F10001F1F100000000000000F
:1036F0000000000000000004FCFC08080404FCF8C2
:10370000000000101F1F100000101F1F10000000FD
:103710000000000000000000000000E0F0180C04B1
:10372000040C18F0E00000030F0C101010100C0F28
:103730000300000000000000000000000000000482
:10374000FCFC080404040CF8F0000080FFFF8890E3
:1037500010101C0F0300000000000000000000001B
:10376000000000E0F81C04040408F8FC000000035A
:103770000F1810109088FFFF80000000000000006C
:10378000000000000000040404FCFC100804040C09
:103790000C001010101F1F1010100000000000007F
:1037A0000000000000000000000000003078CCC4E1
:1037B0008484840C1C0000001E1810101011190FB6
:1037C00006000000000000C000000000000000042F
:1037D0000404FFFF040404000000000000000F1FA9
:1037E0001010100C0000000000000000000000009D
:1037F00000000004FCFE00000004FCFE00000000CD
:103800000F1F181010081F0F080000000000000014
:1038100000000000000000040C3CFCC40000C43C9C
:103820000C0400000000010F1E0E0100000000004B
:1038300000000000000000000000043CFCC400E4A4
:103840007CFC84807C040000071F070000071F0722
:103850000000000000000000000000000000000464
:10386000041C7CE4C0341C0404000010101C16016D
:10387000131F1C18100000000000000000000000D2
:10388000000000040C3CFCC400C43C040400000024
:10389000C080C1370E0100000000000000000000E1
:1038A00000000000000000001C0404C4F47C1C04A0
:1038B00000000000101C1F17111010180E0000004F
:1038C0000000000000F80C040000000000000010E0
:1038D00028EF00000000000000000000003F6040F2
:1038E0000000000000000000FF00000000000000D9
:1038F00000000000FF0000000000000000000000C9
:10390000FF00000000000000040CF80000000000B0
:10391000000000000000EF28100000000000000080
:1039200040603F0000000000000000180602020492
:1039300008102020300800000000000000000000F7
:10394000000000000000000000000000000008006F
:1039500004000001000007100000080063000000E0
:1039600022000000FF18000000000000000000001E
:1039700000000000040000001800000000300000FB
:103980009039000000002020A0080000280100005D
:04000005000000C136
:00000001FF
