:020000040000FA
:10000000580920207D0100008101000083010000CB
:1000100000000000000000000000000000000000E0
:10002000000000000000000000000000850100004A
:1000300000000000000000008701000089010000AE
:100040008B0100008B0100008B0100008B01000080
:100050008B0100008B0100008B0100008B01000070
:10006000000000008B0100008B0100000000000078
:10007000000000008B0100008B0100004D18000003
:100080008B0100008B0100008B0100008B01000040
:100090008B0100008B010000000000000000000048
:1000A0008B0100008B010000000000000000000038
:1000B0008B010000000000008B0100008B0100009C
:1000C00000F002F800F04AF812A030C808382418EE
:1000D0002D18AC4201D100F041F80FCCA246AB463E
:1000E0000CA730CF2D1B083F3F197C427F1E544484
:1000F0002D090426F441641EAC4201D300F02EF811
:100100000126334200D0FB1A3343984754465D46DC
:10011000DFE700002419000034190000000000008F
:100120007047000000000000002300240025002686
:10013000103A01D378C1FBD8520700D330C100D5A3
:100140000B60704710B5642902D100F073F810BD40
:10015000002010BD1FB51FBD10B510BD00F056F931
:100160001146FFF7F7FF01F0C5FB00F06EF903B48D
:10017000FFF7F2FF03BC01F0A3FB000006480047B5
:10018000FEE7FEE7FEE7FEE7FEE7FEE70348044979
:10019000044A054B70470000C100000058072020AA
:1001A0005809202058082020580820200FB405495D
:1001B00010B503AA029800F0E5F810BC08BC04B022
:1001C00018470000E0042020F8B50E460446002041
:1001D00020622046E1688847002829D0252802D0DF
:1001E0006268A16820E0E168204600278847050092
:1001F0001ED028464138192802D80127FF02203591
:100200003246204627602946FFF79CFF002808D089
:10021000012804D0F61DF608F6000836D9E7361D89
:10022000D7E762682846A1689047206A401CCFE75C
:10023000206AF8BDF7B5002575291068009914A645
:1002400011D0C046C046002802DA404211A608E09C
:10025000009909688A0701D50FA602E0490704D56D
:100260000EA6012501E0C046C046009F00242437A9
:1002700004E000F09BF830313955641C0028F8D1B7
:100280002B4632462146009800F023F8FEBD0000C0
:10029000000000002D0000002B00000020000000E6
:1002A00010B5044603E001F013FB401C08D0207891
:1002B0000549641C0028F6D10A2001F009FB10BD95
:1002C0000020C04310BD0000E004202070477047AC
:1002D0007047FFB504460D4681B024300090216878
:1002E000880604D51022E0699143216000E00120D6
:1002F000A84201DD471B00E000270498A1697A1994
:100300001018081AA0612078C00602D42046C04602
:10031000C046002608E003986268A168805D9047A7
:10032000206A401C761C206204988642F3DB207809
:10033000C0060AD52046C046C04606E06268A168ED
:1003400030209047206A401C206238467F1E0028DB
:10035000F4DC07E000986268A168405D9047206A7D
:10036000401C206228466D1E0028F3DC2046C04653
:10037000C0462078000602D5022005B0F0BD01205D
:10038000FBE70000084B70B50D467B4400F027F8F2
:100390000446284600F036F8002802D00020C0436A
:1003A00070BD204670BD0000431500000146800866
:1003B000081A02091018020A1018020C1018C008B6
:1003C000820012185200891A01E0401C0A390A29D9
:1003D000FBD2704701694A1C02610878704700B57A
:1003E0008FB0029100210591054901937944039151
:1003F000114604906846FFF7E7FE0FB000BD00000D
:10040000E5FFFFFFC068802108407047754600F097
:1004100025F8AE46050069465346C008C00085462B
:1004200018B020B5FFF7B2FE60BCB6460026002724
:10043000C0C5C0C5C0C5C0C5C0C5C0C5C0C5C0C594
:10044000403D490849008D46704710B50446C046F6
:10045000C0462046FFF78BFE10BD000000487047E5
:1004600000002020F0B581B01A4E0D4C002530461A
:1004700021462A4600F0AEF90127304621463A4689
:1004800000F0A8F91B4E304621462A4600F0A2F99A
:10049000304621463A4600F09DF901B0F0BDC04615
:1004A000E7030000F0B581B00C46064600250128A0
:1004B000294600D02146074F38462A4600F08AF9DF
:1004C000012E00D02C4601223846214600F082F948
:1004D00001B0F0BD00208640B0B50C46054D0021AE
:1004E00028460A4600F076F901222846214600F007
:1004F00071F9B0BD00400840811E091F00BFFCD249
:1005000070470000B0B51122120283580C4C1C40F9
:100510000B894D881D438B792B430A4D1D40631970
:100520008350CB798C881C43097821435D239B0041
:100530001940801842689A4351184160B0BDC046C6
:1005400080CCFFFF7F33000010B501221203831817
:100550000C785C604978815010BD0000F0B583B024
:100560000B794A79002A2AD01A4A1B4C1B4F2125A5
:100570002D01202B00D07035861802190092C21967
:10058000002B00D188251768464C27407F1917603B
:10059000576827407D1955603568804F3D4035606C
:1005A00075683D4075600025009C256065608F245E
:1005B000E44315692540156155692540556101AA37
:1005C00013718B79537109680191114600F008F895
:1005D00003B0F0BD3818000058180000781800006B
:1005E000F0B584B06B4A82180292734BC618784BF0
:1005F000C21800922A4BC4180A7901910D68294F3C
:10060000202A03920AD0254BC018002A17D16B1E4E
:10061000029A536023683B40882517E0681E029ABF
:10062000506020683840204B184320606068384094
:1006300018436060012045071C4F104608E06B0816
:10064000029A536023683B400525ED012B4323604C
:10065000009903683B402B43036030684F4B1840C0
:1006600030607068184070600020086048608F201B
:10067000C0432369034023616369034063610198B8
:10068000407903990843BD2101401068084B03409D
:10069000C818801C106004B0F0BDC046741800007B
:1006A0007018000024493E0001040000FFFFFFCF46
:1006B0004000FFCF70B5374A82184B6853603E4BFD
:1006C000C3180878222857D8840001A52C59A746BA
:1006D0006F070000790700006F070000790700002E
:1006E000790700007907000079070000790700000A
:1006F00079070000790700007907000079070000FA
:1007000079070000790700007907000079070000E9
:100710005D070000790700005D0700007907000011
:1007200079070000790700007907000079070000C9
:1007300079070000790700007907000079070000B9
:1007400079070000790700007907000079070000A9
:100750005D070000790700005D07000003242407FF
:100760001568A543012464072C19146004E00324D0
:1007700024071568A54315600C8AD460CC68064D23
:1007800025401C68054E264074191C60097A0143F7
:10079000116070BD04180000777702008888FDFFA3
:1007A00010B507239B04194092008018024A845810
:1007B0009C436118815010BD3018000010B5029C98
:1007C000A400001911431943014A815010BDC046CD
:1007D0005018000092008018014A81507047C046AE
:1007E0001018000010B50122120383180C789C60C9
:1007F0004B7883508978014A815010BD0C1100005C
:10080000B0B51122120283580124A34383508B7880
:100810000C881C438B882343094C1C408358094D8A
:100820001D402B1983508B79CC791C43097A2143C5
:100830007E231940801842689A4351184160B0BD28
:1008400018670000E798FDFF10B501221203831816
:100850000C789C604978815010BD0000F0B5024CC6
:10086000F834802502E0C04660002020002121707D
:100870002246083A11702246103A11702246183A60
:1008800011702246203A11702246283A11702246F1
:10089000303A11702246383A11702246403A1170AF
:1008A0002246483A11702246503A11702246583A70
:1008B00011702246603A11702246683A1170224641
:1008C000703A11702246783A11702246803A1170BF
:1008D0002246883A11702246903A11702246983A80
:1008E00011702246A03A11702246A83A1170224691
:1008F000B03A11702246B83A11702246C03A1170CF
:100900002246C83A11702246D03A11702246D83A8F
:1009100011702246E03A11702246E83A11702246E0
:10092000F03A11702246F83A117001221302E418CD
:10093000203D9BD1014DF935802401E0600020204D
:1009400029702E46083E31702E46103E31702E46DC
:10095000183E31702E46203E31702E46283E3170B2
:100960002E46303E31702E46383E31702E46403E87
:1009700031702E46483E31702E46503E31702E4624
:10098000583E31702E46603E31702E46683E3170C2
:100990002E46703E31702E46783E31702E46803E97
:1009A00031702E46883E31702E46903E31702E4674
:1009B000983E31702E46A03E31702E46A83E3170D2
:1009C0002E46B03E31702E46B83E31702E46C03EA7
:1009D00031702E46C83E31702E46D03E31702E46C4
:1009E000D83E31702E46E03E31702E46E83E3170E2
:1009F0002E46F03E3170EE18F83D2970203C354609
:100A00009ED1024DFA35802402E0C04660002020CD
:100A100029702E46083E31702E46103E31702E460B
:100A2000183E31702E46203E31702E46283E3170E1
:100A30002E46303E31702E46383E31702E46403EB6
:100A400031702E46483E31702E46503E31702E4653
:100A5000583E31702E46603E31702E46683E3170F1
:100A60002E46703E31702E46783E31702E46803EC6
:100A700031702E46883E31702E46903E31702E46A3
:100A8000983E31702E46A03E31702E46A83E317001
:100A90002E46B03E31702E46B83E31702E46C03ED6
:100AA00031702E46C83E31702E46D03E31702E46F3
:100AB000D83E31702E46E03E31702E46E83E317011
:100AC0002E46F03E3170EE18F83D2970203C354638
:100AD0009ED1FC4DFB35802429702E46083E317096
:100AE0002E46103E31702E46183E31702E46203E66
:100AF00031702E46283E31702E46303E31702E46E3
:100B0000383E31702E46403E31702E46483E3170A0
:100B10002E46503E31702E46583E31702E46603E75
:100B200031702E46683E31702E46703E31702E4632
:100B3000783E31702E46803E31702E46883E3170B0
:100B40002E46903E31702E46983E31702E46A03E85
:100B500031702E46A83E31702E46B03E31702E4682
:100B6000B83E31702E46C03E31702E46C83E3170C0
:100B70002E46D03E31702E46D83E31702E46E03E95
:100B800031702E46E83E31702E46F03E3170EE1840
:100B9000F83D2970203C35469ED1CA4DFC35802455
:100BA00029702E46083E31702E46103E31702E467A
:100BB000183E31702E46203E31702E46283E317050
:100BC0002E46303E31702E46383E31702E46403E25
:100BD00031702E46483E31702E46503E31702E46C2
:100BE000583E31702E46603E31702E46683E317060
:100BF0002E46703E31702E46783E31702E46803E35
:100C000031702E46883E31702E46903E31702E4611
:100C1000983E31702E46A03E31702E46A83E31706F
:100C20002E46B03E31702E46B83E31702E46C03E44
:100C300031702E46C83E31702E46D03E31702E4661
:100C4000D83E31702E46E03E31702E46E83E31707F
:100C50002E46F03E3170EE18F83D2970203C3546A6
:100C60009ED1E04DFD35802429702E46083E31701E
:100C70002E46103E31702E46183E31702E46203ED4
:100C800031702E46283E31702E46303E31702E4651
:100C9000383E31702E46403E31702E46483E31700F
:100CA0002E46503E31702E46583E31702E46603EE4
:100CB00031702E46683E31702E46703E31702E46A1
:100CC000783E31702E46803E31702E46883E31701F
:100CD0002E46903E31702E46983E31702E46A03EF4
:100CE00031702E46A83E31702E46B03E31702E46F1
:100CF000B83E31702E46C03E31702E46C83E31702F
:100D00002E46D03E31702E46D83E31702E46E03E03
:100D100031702E46E83E31702E46F03E3170EE18AE
:100D2000F83D2970203C35469ED1AE4DFE358024DD
:100D300029702E46083E31702E46103E31702E46E8
:100D4000183E31702E46203E31702E46283E3170BE
:100D50002E46303E31702E46383E31702E46403E93
:100D600031702E46483E31702E46503E31702E4630
:100D7000583E31702E46603E31702E46683E3170CE
:100D80002E46703E31702E46783E31702E46803EA3
:100D900031702E46883E31702E46903E31702E4680
:100DA000983E31702E46A03E31702E46A83E3170DE
:100DB0002E46B03E31702E46B83E31702E46C03EB3
:100DC00031702E46C83E31702E46D03E31702E46D0
:100DD000D83E31702E46E03E31702E46E83E3170EE
:100DE0002E46F03E3170EE18F83D2970203C354615
:100DF0009ED17C4DFF35802429702E46083E3170EF
:100E00002E46103E31702E46183E31702E46203E42
:100E100031702E46283E31702E46303E31702E46BF
:100E2000383E31702E46403E31702E46483E31707D
:100E30002E46503E31702E46583E31702E46603E52
:100E400031702E46683E31702E46703E31702E460F
:100E5000783E31702E46803E31702E46883E31708D
:100E60002E46903E31702E46983E31702E46A03E62
:100E700031702E46A83E31702E46B03E31702E465F
:100E8000B83E31702E46C03E31702E46C83E31709D
:100E90002E46D03E31702E46D83E31702E46E03E72
:100EA00031702E46E83E31702E46F03E3170EE181D
:100EB000F83D2970203C35469ED1D30292039A4CCE
:100EC0008E4D05E060002020491C082900D188E0F3
:100ED00023612261B0260E43F6B22E632E68F60619
:100EE00008D52E68F60605D52E68F60602D52E68BA
:100EF000F606F3D4226023602361226100262E636C
:100F00002F68FF0608D52F68FF0605D52F68FF0656
:100F100002D52F68FF06F3D422602360236122618B
:100F200010272F632F68FF0608D52F68FF0605D509
:100F30002F68FF0602D52F68FF06F3D422602360D6
:100F400004E022602360361D802EBDD0F7002548C6
:100F5000C719785C2360226128632868C00608D519
:100F60002868C00605D52868C00602D52868C006CE
:100F7000F3D4226023607F18387A236022612863CB
:100F80002868C00608D52868C00605D52868C006A8
:100F900002D52868C006F3D422602360387C236021
:100FA000226128632868C00608D52868C00605D5D0
:100FB0002868C00602D52868C006F3D422602360E2
:100FC000387E2360226128632868C006B9D5286866
:100FD000C006B6D52868C006B3D52868C006F3D4C5
:100FE000AFE7F0BD6000202010B50122D1029203CE
:100FF000414B012813D0002825D119601A603F48C1
:10100000A62404630468E4061AD50468E40617D528
:101010000468E40614D50468E406F3D410E019600B
:101020001A603648A72404630468E40608D50468F7
:10103000E40605D50468E40602D50468E406F3D4A2
:10104000103B1A60196010BD10B50122D102920345
:10105000294B012827D000284DD119601A60274854
:10106000C82404630468E40608D50468E40605D5CA
:101070000468E40602D50468E406F3D41C46103C78
:101080002260216019601A60A12404630468E406E8
:101090002ED50468E4062BD50468E40628D5046838
:1010A000E406F3D424E019601A601448C0240463F1
:1010B0000468E40608D50468E40605D50468E40677
:1010C00002D50468E406F3D41C46103C226021607B
:1010D00019601A60A02404630468E40608D5046853
:1010E000E40605D50468E40602D50468E406F3D4F2
:1010F000103B1A60196010BDA0320A4010B1464082
:10110000F0B581B00124A602074D2E61C8200090E1
:1011100000F0D7FB2E60E6022E61A7032F61FE4C84
:10112000AE20206302E0C04690320A402068C0062C
:1011300008D52068C00605D52068C00602D52068FD
:10114000C006F3D42F602E602E612F61002222632F
:101150002068C00608D52068C00605D52068C006EE
:1011600002D52068C006F3D42F602E602E612F6157
:10117000102020632068C00608D52068C00605D569
:101180002068C00602D52068C006F3D42F602E6008
:101190002E612F61402121632068C00608D5206898
:1011A000C00605D52068C00602D52068C006F3D465
:1011B0002F602E602E612F61812020632068C00681
:1011C00008D52068C00605D52068C00602D520686D
:1011D000C006F3D42F602E602E612F61CF202063D4
:1011E0002068C00608D52068C00605D52068C0065E
:1011F00002D52068C006F3D42F602E602E612F61C7
:10120000A12020632068C00608D52068C00605D547
:101210002068C00602D52068C006F3D42F602E6077
:101220002E612F61009820632068C00608D52068D1
:10123000C00605D52068C00602D52068C006F3D4D4
:101240002F602E602E612F61A62020632368DB06AD
:1012500008D52368DB0605D52368DB0602D523689D
:10126000DB06F3D42F602E602E612F61A823236349
:101270002368DB0608D52368DB0605D52368DB0673
:1012800002D52368DB06F3D42F602E602E612F6118
:101290003F2323632368DB0608D52368DB0605D5D7
:1012A0002368DB0602D52368DB06F3D42F602E60AB
:1012B0002E612F61D32323632368DB0608D52368BF
:1012C000DB0605D52368DB0602D52368DB06F3D4ED
:1012D0002F602E602E612F6122632268D20608D50E
:1012E0002268D20605D52268D20602D52268D20627
:1012F000F3D42F602E602E612F61D52222632268E5
:10130000D20608D52268D20605D52268D20602D5B3
:101310002268D206F3D42F602E602E612F618022C6
:1013200022632268D20608D52268D20605D5226833
:10133000D20602D52268D206F3D42F602E602E6129
:101340002F61D92222632268D20608D52268D206EC
:1013500005D52268D20602D52268D206F3D42F60C2
:101360002E602E612F61F12222632268D20608D5F9
:101370002268D20605D52268D20602D52268D20696
:10138000F3D42F602E602E612F61DA22226322684F
:10139000D20608D52268D20605D52268D20602D523
:1013A0002268D206F3D42F602E602E612F611222A4
:1013B00022632268D20608D52268D20605D52268A3
:1013C000D20602D52268D206F3D42F602E602E6199
:1013D0002F61DB2222632268D20608D52268D2065A
:1013E00005D52268D20602D52268D206F3D42F6032
:1013F0002E602E612F6121632168C90608D52168FE
:10140000C90605D52168C90602D52168C906F3D4E5
:101410002F602E602E612F61202121632168C90673
:1014200008D52168C90605D52168C90602D52168F5
:10143000C906F3D42F602E602E612F610221216333
:101440002168C90608D52168C90605D52168C906DD
:1014500002D52168C906F3D42F602E602E612F615A
:101460008D2121632168C90608D52168C90605D5E3
:101470002168C90602D52168C906F3D42F602E6001
:101480002E612F61142121632168C90608D52168C6
:10149000C90605D52168C90602D52168C906F3D455
:1014A0002F602E602E612F61A42121632168C9065F
:1014B00008D52168C90605D52168C90602D5216865
:1014C000C906F3D42F602E602E612F61206320683F
:1014D000C00608D52068C00605D52068C00602D51C
:1014E0002068C006F3D42F602E60FFF7B7F92E6195
:1014F0002F61AF2020632068C00608D52068C00691
:1015000005D52068C00602D52068C006F3D42F6038
:101510002E6001B0F0BDC04610B1464010B5154870
:101520008721816401214A04134B1A608522426499
:101530000C041C60842444630C031C608263490314
:101540001960822101600D494A1C42608322426178
:1015500002618A1CC2608122C26502664267C16460
:1015600001678261C26182620548064901600163C8
:1015700010BDC04654804240D0120A408100040091
:10158000A0320A40004C4C00F0B581B01B4C1C4905
:101590002046FFF727F91B492046FEF7DFFF7D2095
:1015A000C6000025204631462A46FFF713F900956C
:1015B0001027204629463A462B46FFF7FFF82046DB
:1015C00029462A46FFF7ECF801240C48314622460A
:1015D000FFF700F900940948064629463A462B468B
:1015E000FFF7ECF8304629462246FFF7D9F80648BF
:1015F00084600321016001B0F0BDC0460020864038
:10160000EC190000F019000000318640F0B581B0FF
:101610001B4C1C492046FFF7E5F81B492046FEF706
:10162000DFFF7D20C6000025204631462A46FFF711
:10163000D1F800951027204629463A462B46FFF759
:10164000BDF8204629462A46FFF7AAF801240C488F
:1016500031462246FFF7BEF800940948064629465F
:101660003A462B46FFF7AAF8304629462246FFF7AE
:1016700097F8064884600321016001B0F0BDC046C0
:1016800000400840F8190000FC1900000051084013
:1016900010B50D4C0D492046FEF756FF0C4920466B
:1016A000FEF730FF0B4841680B4A0A40511C41606D
:1016B000816812220A432D218A4382600168012237
:1016C0000A43026010BDC04600A04640041A000054
:1016D000061A000004B1464000FCFFFF0648002146
:1016E000016006480168032291430160012109035A
:1016F00042680A434260704708030B4000010B40F8
:1017000010B5084C08492046FFF76CF807492046F9
:10171000FEF7D0FF06480168012211430160054829
:10172000026010BD00008640101A0000141A00006C
:10173000281086400811864010B5154C15492046E2
:10174000FFF782F814492046FFF75AF80320C10337
:10175000124802688A4302600169114A0A40911CDA
:10176000016141690B220A4334218A434261416885
:101770000122114043689343591841609102094B7B
:101780001C680C431C6001681143016010BDC04619
:1017900000801040281A00002A1A00000091104012
:1017A0000000FFFF2890104080B500F01FF8FFF701
:1017B000B5FEFFF793FFFFF7E7FEFFF727FFFFF701
:1017C0009FFFFFF7B9FFFFF763FFB820044900222E
:1017D0000A5404490A54242003490A5480BDC046CF
:1017E0001806202034052020F0052020F0B581B017
:1017F0000D480E4941600E4A51600E4B59600E4C27
:1018000061600E4D69600E4E71600E4F79600E4939
:101810000160116019602160296031603960102019
:10182000FEF76AFE01B0F0BD00080A40030000B1F7
:1018300000280A40002886400048084000088640EA
:101840000088104000A846400100002610B512484C
:101850000068C0B20B281ED12548C1690F4A138801
:101860007E2B13D813885C1C14800D4AD154026857
:10187000D20708D00268D20705D00268D20702D08A
:101880000268D207F3D1C9B2816101E00020108063
:1018900004480121017010BD2090104056072020FF
:1018A000D4062020540720200120C00302490860EC
:1018B000024908607047C04680E200E000E100E0B5
:1018C000704780B57D2109024843FEF715FE80BDB3
:1018D00007490A68D20708D00A68D20705D00A6803
:1018E000D20702D00A68D207F3D1C2B28A61704728
:1018F0000891104084B0FFF757FFFFF7D5FFFFF7BF
:10190000FFFB00242046FFF76FFB2046FFF79CFB00
:10191000FEF7A8FD21A0FEF7C3FC7D208500264F21
:1019200001940395012630462146FEF7BBFD304663
:101930002146FEF7D1FD21A02146FEF737FC2846BF
:10194000FFF7BFFF20463230BC420446EAD3FEF721
:1019500089FD384632300290FFF7B3FF3120C6438D
:101960003D461CA73236012420463146FEF79AFD3B
:1019700020463146FEF7B0FD38463146FEF716FCEC
:101980000398FFF79EFFAE42ECD3FEF76BFD029883
:10199000FFF797FF019C2F46039DC3E70A4C32399E
:1019A000384E204D6F746F722044656D6F205374F4
:1019B0006172742E2E2E0D00B60300004469725B16
:1019C0002031205D202020695B202564205D0D0AE8
:1019D000000000004469725B2030205D20202069F7
:1019E0005B202564205D0D0A000000000807000050
:1019F000E80300000000010008070000E803000001
:101A000000010000080004000001000007100000B1
:101A10000800630022000000FF1800000000000022
:101A2000000000000000000004000000180000009A
:101A30000030000000000000481A000000002020D4
:081A4000580900002801000014
:04000005000000C136
:00000001FF
