:020000040000FA
:1000000008102020AD010000B1010000B301000084
:1000100000000000000000000000000000000000E0
:10002000000000000000000000000000B50100001A
:100030000000000000000000B7010000B90100004E
:10004000BB010000011E0000BB010000BB0100005D
:10005000BB010000BB010000BB010000BB010000B0
:1000600000000000BB010000BB0100000000000018
:1000700000000000BB010000BB0100000D2A0000D1
:10008000F5280000BB01000021270000BB01000093
:1000900059290000BB010000000000000000000022
:1000A000BB010000BB0100000000000000000000D8
:1000B000BB01000000000000BB010000BB0100000C
:1000C00000F002F800F063F812A030C808382418D5
:1000D0002D18AC4201D100F05AF80FCCA246AB4625
:1000E0000CA730CF2D1B083F3F197C427F1E544484
:1000F0002D090426F441641EAC4201D300F047F8F8
:100100000126334200D0FB1A3343984754465D46DC
:10011000DFE7000014460000344600000000000045
:10012000103A02D378C878C1FAD8520701D330C840
:1001300030C101D504680C60704700000000000069
:100140007047000000000000002300240025002666
:10015000103A01D378C1FBD8520700D330C100D583
:100160000B60704710B5642902D100F07BF810BD18
:10017000002010BD1FB501F0E7FA040000200021A7
:1001800004F09CF8401C60601FBD10B510BD01F06C
:100190008BFA1146FFF7EEFF02F032FE01F0ACFAE7
:1001A00003B4FFF7F2FF03BC02F08AFC06480047E5
:1001B000FEE7FEE7FEE7FEE7FEE7FEE70348044949
:1001C000044A054B70470000C1000000080E2020C3
:1001D00008102020080F2020080F20200FB4054908
:1001E00010B503AA029800F023FF10BC08BC04B0AD
:1001F00018470000B0002020F8B50E460446002045
:1002000020622046E1688847002829D0252802D0AE
:100210006268A16820E0E168204600278847050061
:100220001ED028464138192802D80127FF02203560
:100230003246204627602946FFF794FF002808D061
:10024000012804D0F61DF608F6000836D9E7361D59
:10025000D7E762682846A1689047206A401CCFE72C
:10026000206AF8BDF7B5002575291068009914A615
:1002700011D0C046C046002802DA404211A608E06C
:10028000009909688A0701D50FA602E0490704D53D
:100290000EA6012501E0C046C046009F0024243779
:1002A00004E000F023FF30313955641C0028F8D1F8
:1002B0002B4632462146009800F062FEFEBD00004B
:1002C000000000002D0000002B00000020000000B6
:1002D0000FB400B58DB010A909900B900020C04359
:1002E00000910A9000200C90074878440690074837
:1002F00078446A4607900F9909A800F0C3FE0DB034
:1003000008BC04B018470000BB0D0000D50D00006C
:10031000FFB51D460027FF4383B05C6800200190B5
:100320009E68A96904987F1C88470090296A8847BD
:100330000028F6D10098401C0CD0032040028443D2
:10034000002E19DD600614D500982B2809D02D2821
:100350000FD103E00020C04307B0F0BD01208002B0
:100360000443A96904987F1C8847761E002E0090DC
:1003700002DD0098302803D00598002825D035E00C
:100380000120A96940020443761E04987F1C884717
:10039000002E009003DD782805D0582803D005985A
:1003A000002810D022E00598002801D010281DD187
:1003B0000120A96940028443761E04987F1C884767
:1003C0000090102002E0082000E00A2005900DE0D7
:1003D0000121059A49020C430199761E51430818E0
:1003E0000190A96904987F1C88470090002E05DDC4
:1003F0000599009800F030FE0028E9DAE9690498D0
:100400008847A00502D40120C043A5E7E00722D118
:10041000600611D56005019800D5404229680A1D83
:100420002A600968220501D5087014E0220701D569
:10043000088010E008600EE02868011D296000684F
:10044000210502D50199017005E02107019901D527
:10045000018000E0016038467EE7FFB5144683B0B6
:1004600000200026009050680190916997680498D8
:1004700088470C9905460698084305D009E0A1690C
:100480000498761C88470546216A28468847002834
:10049000F5D1681C03D00198C00704D017E00020F4
:1004A000C04307B0F0BD2068011D216000680090C6
:1004B0000DE00198C00704D1009805700098401C19
:1004C0000090A169761C04987F1E88470546002F7E
:1004D0001CDD681C1AD0069800280FD0E817C00E43
:1004E0004019411140098A000699400151182A1A01
:1004F0000968012090400142DBD107E00C980028F8
:10050000D7D12846216A88470028D2D0E1690498CB
:1005100088470C98002807D1002E05DD0198C007F8
:1005200002D1009800210170A068B84204DD0C9847
:10053000002804D0002F02D00120C043B1E730468C
:10054000AFE7000010B5044603E002F065FB401C75
:1005500008D020780549641C0028F6D10A2002F052
:100560005BFB10BD0020C04310BD0000B000202088
:1005700070477047704700000246C80FC0078143AC
:100580004B0030B54B405B009B0D20D01923DB06A0
:10059000C91801231B05994220DB0324A407042565
:1005A0001346AB400BD3002B04D1EB0613409B004A
:1005B000E34204D401246407002312195941FF23A4
:1005C0001B0599420BD2C9000143500F09E0CB0231
:1005D00004D501430803024305D0054830BDFF217F
:1005E000C905084330BD084607210905884330BDC9
:1005F0000000C07FF0B5F94D0C091E092C402E40BB
:100600002F468BB0A7437DD0B543FCD0002E7AD0C7
:10061000002CFCD00D465D40ED0F2543AC1BFF25A3
:10062000AD0464190894C502440DC9022143500D5C
:10063000DC0204430120C00701430443D2020191BC
:10064000200C110C00958C46010423468B430A9123
:1006500061460904E24D8A430991010A7D44491922
:100660008039097805464D4301266D18F605751B3E
:100670006943C90C640B891C4C436418B5012C1BDD
:10068000250C2E04B4434C434D43210C69188909B1
:100690000591009DE90701D00121C90704912C466D
:1006A00001996708CD072F434C08059DE10B4D4389
:1006B0002D0C29466646754302950D4645432E4648
:1006C000029D7D1BB44100950D465D4301942C0CA9
:1006D0002F040D465543AE462D0C3D430295039421
:1006E0007546049C2D04641B049406D2029C039D51
:1006F000641C002675410395029401AC70CC009FE8
:100700007D1B01E03EE162E1B441090400950791DF
:1007100001940599A4086143090C0C464443650BF8
:10072000E7040C4666467443A646640B3C430395B7
:1007300002947446049DE4042C1B049406D2029C8B
:10074000039D641C002675410395029401AC70CC96
:10075000009F7D1BB44101940C465C430095650FDE
:10076000E7000C465443A646640F3C4303950294AD
:100770007446049DE4002C1B049406D2029C039D45
:10078000641C002675410395029401AC70CC009F57
:100790007D1BB441AE09AF06049DC900AD092F43CE
:1007A000049DA406AD060495079D3443691807917E
:1007B000059DE10B4D432D0C294666467543029578
:1007C0000D4645432E46029D7D1BB44100950D46C6
:1007D0005D4301942C0C2F040D465543AE462D0C61
:1007E0003D43029503947546049C2D04641B0494B8
:1007F00006D2029C039D641C002675410395029459
:1008000001AC70CC009F7D1BB44101948C05069413
:10081000079C890A611800950791019C0599A40815
:100820006143090C0D464543680BEF040D466446D1
:1008300065436C0B3C43049FED047D1BAC4602D228
:100840000025641C6841009E019D371B85410846B8
:10085000584301950C46460FC5005443600F28438A
:100860006546E4002C1B02D20025401C6E41019D10
:100870003F1AB5412846BD09800628438446A00991
:10088000BF064E020699A40676180743079D00206E
:1008900068410A99079019430020099B009060461F
:1008A000FF1913434041E20F64003A43A446044653
:1008B000D71A8C41A04203D90120009020463A4625
:1008C000C70F941840416246D20F22436446640029
:1008D0000494009CBE466400D71AA44604460297BE
:1008E0008C417746002F01D1A04204D96046401CBC
:1008F0008446029A2046C40FA64694184041049AA2
:100900000546D20F224364466400D31A8D417146D6
:10091000002901D1A84202D928461A46641C104376
:100920000122002800D0164361020020079B89198C
:1009300004465C410223002C02DB49181346644143
:10094000089DCE0A2D145D194B056705E10A2C059B
:100950000D1908993E43C9076940002B08D0934000
:1009600006D30022761C5141002B01D17608760077
:100970001C4A002D43DB154241D0AA433FD03046EC
:100980000BB0F0BD06180D464D41174C7642AC41F8
:100990001AD395181C465C41134A6D42A24113D3E9
:1009A000012252054C00D4420AD15C00D4420BD043
:1009B0004B4002D592021143E2E749004908DFE7C4
:1009C0005940C90FC90718E000200849D8E7054871
:1009D00001420DD10342F7D0F2E700000000FF070B
:1009E000543F00000000F07F0000E0FF0000F87FAF
:1009F000114859400143C01241400020C0E7012383
:100A0000089A9B069A4205DC032252078918C90FEF
:100A1000C907B5E7052252078918074A1143D212C0
:100A20005140ADE770B515461C4602460B462846B8
:100A30002146FFF7DFFD70BDFFFFFF7F1F22030C84
:100A400002D10F22000402D0030E03D004E00020E4
:100A5000014670470002083A030F01D10001121F3E
:100A6000830F01D18000921E002801DB4000521E3E
:100A7000120551184205C012411810467047C10FA7
:100A8000C90700D04042012292071143D6E7012155
:100A90008907D3E7F0B58B4C0F09254689B0BD43D4
:100AA0007BD01D092646AE43FAD00E465E40274055
:100AB000F60F3E43254071D024012142FBD0FF2494
:100AC000AD19A4042D1B039501252D05DB02DB0ABE
:100AD000C9022B43C90A29431E010901040F130F40
:100AE000050121431701880B820391432D098C4690
:100AF000A90B1E438A039543B30B9A0396433F0900
:100B0000BA0B9403A74302962E467E430497B6463B
:100B10004E19D7190C460196544305977E43371B4F
:100B20007646BF1B3601B646BE0B36190096764692
:100B3000BC043719009C01D3641C00946400002F8E
:100B400001D001263443029E049F754366467E43CE
:100B50000496760034196E0034190094029C019EAC
:100B60001C196643751BAE46069465464519059CDF
:100B700005956C43594375460891691A0191049E85
:100B800001465143A41B0491611A009C0791E106A0
:100B900005D061090122114302E072E06EE06109B3
:100BA000089D00272C0A2D066918049D7C412A0AFD
:100BB0002D066918019D6241AC0DAD026D185441BE
:100BC000079A910D920255196141029A6446584361
:100BD0005443069B059A5A43121A131B9A0E9B0103
:100BE0005B187A41010B0005C3185141220A200607
:100BF00044195A419A4200D2491C012040028142C4
:100C000003D315230226F64302E014230326F643FA
:100C10002020C51AA9401746AF40DA400A432046B3
:100C20000399D8400914731819055118039A3843C9
:100C3000D2075140AC4009D00122944006D3002293
:100C4000401C5141002C01D1400840001E4A9342F3
:100C500012D3012203989206904207DB0520400739
:100C600009181A480143C012414004E0032040071C
:100C70000818C10FC907002009B0F0BD0020F10716
:100C8000FAE705180C464C4111486D42A04115D3B6
:100C900094181A465A410E48644290410ED30120DE
:100CA0004A004005824209D35A00824206D3594085
:100CB000C90F084AC90700201143DDE70020064993
:100CC000DAE700000000FF07FE070000FFFFFF7FDC
:100CD0000000E0FF0000F07F0000F87F0121C9055F
:100CE0000123411842001B06D3185B0E0AD0C11025
:100CF0000722D206891840075242D14201D552003C
:100D000089187047090208D50146002A03D0C10F8F
:100D1000C9070020704710467047420202D00020E9
:100D200002497047072109050143F4E70000F87FF5
:100D3000F0B5FF252D04C609C209FF2704462E4041
:100D40000137CB093E4348402A402B400746002A42
:100D50006BD0002B69D0AA4267D0AB4265D0002887
:100D600000DA32460125ED0529432C430902200211
:100D7000090AD21A4B0C7F24E31A434C000A7C4424
:100D8000E35C7D242404121914145B00A218884229
:100D900001D3521C00E0400049420C465C43241140
:100DA0005C43DB016415E318040A5C43C502200DB3
:100DB0000C4644436419250A5D432303EC0C0D469D
:100DC000654300030019EB184C42A34201D35B18A2
:100DD000401CD4052018002B07D05B00C91804D391
:100DE000401C002901D1400840003F2189048A426B
:100DF00009D3002A08DC1106090F04D00321490792
:100E00004018C00FC007F0BD01224100120689182A
:100E10007F2252069142F6D205214907C84201D5E8
:100E20009010F0BDFF20C005F0BD002F00DA324663
:100E30001648AA4207D2AB4205D21902090E17D0B2
:100E4000F80FC007F0BDFF2563002D06AB42F9D8AF
:100E50004900A942F6D8AB4201D1A942F2D0A94239
:100E600001D1002101E061004908D0050843F0BD2F
:100E70001102090EFBD0FF200243D005F0BD0A4647
:100E80000146104654E70000B23800000000C07F61
:100E900010B501469E240002CA15A307002A02D0FD
:100EA0001843002A04DBA21A002A0CDDD04010BD32
:100EB0001206120E01D140004008A21A03D4D040FD
:100EC00040420028F3DDFF2248001206904201D97B
:100ED000002010BDC817C043584010BD0102C21504
:100EE00004D00123DB071943002A0ADB9E239A1A48
:100EF00002D40846D0407047FF22410012069142BA
:100F000001D900207047C017C04370471F22030C4F
:100F100002D10F2200041CD0030E01D10002083AB6
:100F2000030F01D10001121F830F01D18000921E17
:100F3000002801DB4000521ED20551180212511840
:100F40001922904004D3491C002801D149084900C6
:100F500008467047C10FC90700D0404201229207DE
:100F60001143D3E701218907D0E710B500F05AF902
:100F7000006810BD10B5044600F054F9046010BDBF
:100F8000FFB504460D4681B02430009021688806E4
:100F900004D51022E0699143216000E00120A842BD
:100FA00001DD471B00E000270498A1697A19101899
:100FB000081AA0612078C00602D42046C046C04668
:100FC000002608E003986268A168805D9047206A67
:100FD000401C761C206204988642F3DB2078C00611
:100FE0000AD52046C046C04606E06268A1683020A7
:100FF0009047206A401C206238467F1E0028F4DC9F
:1010000007E000986268A168405D9047206A401C34
:10101000206228466D1E0028F3DC2046C046C046EC
:101020002078000602D5022005B0F0BD0120FBE7C4
:10103000084B70B50D467B4400F007F9044628467E
:1010400000F0D6FA002802D00020C04370BD204630
:1010500070BD0000DF1B00003A2800D2303820238A
:1010600002469A43412A01D310463738884201D3B9
:101070000020C043704700000268511813780160D7
:101080001846704710B5D16005497944516105494A
:101090007944116200211161114600F0E9F810BD98
:1010A000EBFFFFFF990100004268002A08D00168A9
:1010B0000B78491C002B03D0521E06C018467047FF
:1010C0000121C160881E70474268002A0BD0C368A6
:1010D0000168002B07D183688B4204D0491E521C43
:1010E00006C0002070470020C043704701468008BA
:1010F000081A02091018020A1018020C1018C00869
:10110000820012185200891A01E0401C0A390A298B
:10111000FBD27047C10D10B50906090E2ED0FF296C
:1011200031D07E292DD319D0962916D20246753991
:101130008A4005D0002402468A4003D3012302E0FE
:101140000124F8E700230222CA41511E8843002BE4
:1011500003D08018002C00D0904310BD0121420222
:1011600001D1012200E00022C00FC0070029F4D005
:10117000002AF2D17F21C905084310BDC00FC00766
:1011800010BD0021EFE74102FAD0014810BD000078
:101190000000C07F30B5C30D1906214A090E31D0B9
:1011A000FF292FD000283ADB010250020143012021
:1011B0007D33C34000D24908012080071724091A53
:1011C0002406490882102343FF252D064C00211ACE
:1011D00004D4891A02D45400201800E02146520891
:1011E0005B19F3D51A220446944007D382068A423B
:1011F00003D180218030884300E08030C009D905C8
:10120000081830BDFF2904D04100FAD0C00FC00734
:1012100030BD410201D0104630BD0028FCDAFAE7AB
:101220000000C07F004870471000202010B5044621
:1012300000F05AFA0068005DC007C00F10BD000042
:1012400001694A1C02610878704700B58FB00291AD
:1012500000210591054901937944039111460490B9
:101260006846FEF7C9FF0FB000BD0000E5FFFFFFB5
:10127000F3B50C468FB000200C90012000260E9094
:1012800008460C3003906269039801219047051EBF
:101290002ED0252D2DD0216A8847002818D06269CC
:1012A000039801219047216A88470028F7D1626995
:1012B000411E0398904700E0761CA1690F9888476B
:1012C000216A88470028F7D1E1690F988847DAE753
:1012D000A1690F988847A842074601D1761CD2E73A
:1012E000E1690F9888477F1C02D10C98002877D0BD
:1012F0006BE16269039800273D46394690472A28EA
:101300000CD16269039801219047012506E00A216A
:101310004F433F18303FEBD41020054362690398D8
:1013200001219047014630390A2903D2AC498F4246
:10133000DEDCECE7E90600D4AA4F6C280AD04C2882
:1013400010D0682824D06A282ED074280CD07A288F
:101350000AD00DE062690398012190476C2823D0E0
:1013600004211CE020200543626903980121904775
:10137000A760652865604FD026DC582839D01ADC74
:10138000452849D012DC252834D04128B0D143E08B
:101390006269039801219047682802D008210D4313
:1013A000E6E70120C002DEE70220DCE7462833D072
:1013B00047289DD130E05B2870D061282CD063286D
:1013C0006CD0642894D161E06F284FD009DC662886
:1013D00022D0672820D0692826D06E2817D12EE089
:1013E000EFE070284DD073286FD075284ED0782844
:1013F0000DD154E0A1690F9888472528054600D1F2
:101400006CE7E1690F9888476D1C00D16DE7DCE05F
:101410000A224CE00A2252E0012023466A460F9934
:10142000C043C046C046C5E0402128462346084385
:101430006060A80701D5002239E000223FE0E807FC
:1014400000D020E72068011D21600068290501D532
:10145000067018E7290701D5068014E7A90703D508
:10146000F117066041600EE706600CE74021284650
:10147000234608436060A80701D5082217E0082228
:101480001DE0594928460840606016E04021284682
:10149000234608436060A807BCD5B9E715E04021A2
:1014A000284608436060A80707D52346102201207C
:1014B0000F99C043C046C0467CE01022234601205D
:1014C0000F99C043FEF724FF74E0002163280B4608
:1014D0000191009102910D9102D05B2807D03BE071
:1014E000E80601D40120A0600120009034E0E0680B
:1014F00001210D906269039890475E2807D1012071
:101500000190E06801210D9062690398904721697C
:10151000002906D10B4604AA8F00491C0829D35183
:10152000FADB002851D02169002926D00298401CFE
:10153000029062690398012190475D28F1D10198DA
:10154000002808D0002004AB8100401C5A58D24328
:1015500008285A50F8DB04AB2069002820791CD0F9
:101560004007029A00980D9B0092224602901F4865
:101570000F991DD5C046C0461CE0C117C90E0918F9
:101580004A114909930004AA9A184901411A13689B
:101590000120884003431360CBE7400722461348ED
:1015A0000F9902D5C046C04604E0FEF756FF01E0A1
:1015B000C046C04600280ADA401C06D10E98002812
:1015C00003D00020C04311B0F0BD0C98FBE7E90741
:1015D00002D10C99491C0C91361800200E9052E64D
:1015E000CCCCCC0CFFFFFF7FF1F7FFFFFEFFFFFF2E
:1015F000C06880210840704710B5FF231B064400D7
:101600009C421DD84C009C421AD80346124A0B43F8
:1016100007D4401A02D3EFF3008010BDEFF300802F
:1016200010BD081A03D3EFF30080904305E0EFF3F9
:10163000008001219043C907084380F3008810BD52
:101640000D231B041A4204D01146002000F05CF860
:1016500010BD00F071F810BD0000009010B5FF2221
:10166000C30D134009D05A4007D0914205DA5C42BD
:10167000A14202DDC905081810BDC40FE407002B04
:1016800006D0002A06D0002902DBFF20C005044353
:10169000204610BD4102FCD0004810BD0000C07FB4
:1016A00000487047100020207546FFF7F9FFAE464E
:1016B000050069465346C008C000854618B020B5ED
:1016C000FEF77CFD60BCB64600260027C0C5C0C53D
:1016D000C0C5C0C5C0C5C0C5C0C5C0C5403D49081E
:1016E00049008D467047000010B500F02DF8001D30
:1016F00010BD00BFC92B000010B50446C046C0464F
:101700002046FEF74DFD10BDC80212D54803400F1C
:10171000002804D0C803C043012188407047EFF37C
:1017200000800001000903210907084380F30088B5
:10173000704700207047000010B5024800F008F81C
:1017400010BD00000000C07F00487047300020201E
:1017500010B50C461107090F092904D00A290AD02F
:1017600008290CD104E011460820FFF7CDFF06E060
:10177000510606D501E0510601D50120C0072146DA
:1017800010BDD10607D501010909CC084907000E93
:101790000006044309E0410F20024907000A014303
:1017A000200E00061D22D14101430846E7E7000054
:1017B00082078B079A423FD170B5920F0AD003245B
:1017C00002780B78401C491C002A33D09A4231D150
:1017D0002042F5D1214EF40104C808C9951B954358
:1017E000254018D19A420FD104C808C9951B9543CA
:1017F000254010D19A4207D104C808C9951B9543CA
:10180000254008D19A42E7D012BA1BBA01209A4269
:1018100000D2404270BD12BA1BBA2DBA1824100073
:10182000E0401900E140401A05D12E00E64002D107
:10183000083CF4D1D01A70BD02780B78401C491CCA
:10184000002A09D09A4207D102780B78401C491C23
:10185000002A01D09A42EFD0D01A7047010101014D
:1018600070B5012815D8CA087D2A12D21A4B1C4619
:1018700010340128254600D01D46012296032E6013
:10188000012800D02346D0031860264800F0F0F964
:1018900070BD1348FEF756FE70BDC04670B50128F6
:1018A00016D8CA087D2A13D20B4A134610330128D2
:1018B0001D4600D01546012426032E60012800D0C5
:1018C0001A46600310600548002200F0D1F970BD8F
:1018D0000348FEF737FE70BD90120A400080864034
:1018E0000447000070B5012816D8CA087D2A13D213
:1018F0000B4A1346103301281D4600D0154601241B
:1019000066042E60012800D01A46A0041060054825
:10191000002200F0ADF970BD03A0FEF713FE70BD0C
:1019200090320A40002086400A434F5F436F6E7436
:10193000726F6C20706172616D6574657220657282
:10194000726F722121210D00811E091F00BFFCD280
:101950007047F0B582B0002A31D091235B01C318E3
:101960000220801A0190009255420F2006020320A7
:10197000DC69344227D00F18FC1E24781C602C1818
:10198000022C1AD0DA6932421FD0BA1E12781A60BD
:10199000019A1218032A10D0DA69324217D07A1E3F
:1019A00012781A60002C08D0DA69324208D00A5C3A
:1019B0001A60001D2A18032ADAD1009800E00020DE
:1019C00080B202B0F0BDC01EFAE7801EF8E7401EEC
:1019D000F6E770B50A780C231A4001242403051990
:1019E0006E689E43B2186A60497807221140035915
:1019F00093435918015170BDF0B583B00B794A7902
:101A0000002A2AD01A4A1B4C1B4F21252D01202BBE
:101A100000D07035861802190092C219002B00D12F
:101A200088251768464C27407F191760576827405C
:101A30007D1955603568804F3D40356075683D4083
:101A400075600025009C256065608F24E44315695E
:101A50002540156155692540556101AA13718B799F
:101A6000537109680191114600F008F803B0F0BD08
:101A7000381800005818000078180000F0B584B03D
:101A80006B4A82180292734BC618784BC2180092A8
:101A90002A4BC4180A7901910D68294F202A039214
:101AA0000AD0254BC018002A17D16B1E029A53602A
:101AB00023683B40882517E0681E029A5060206822
:101AC0003840204B184320606068384018436060FD
:101AD000012045071C4F104608E06B08029A53602E
:101AE00023683B400525ED012B43236000990368E3
:101AF0003B402B43036030684F4B184030607068A8
:101B0000184070600020086048608F20C04323693F
:101B1000034023616369034063610198407903993D
:101B20000843BD2101401068084B0340C818801CC1
:101B3000106004B0F0BDC0467418000070180000BA
:101B400024493E0001040000FFFFFFCF4000FFCF0B
:101B500070B5374A82184B6853603E4BC3180878FB
:101B6000222857D8840001A52C59A7460B1C000039
:101B7000151C00000B1C0000151C0000151C0000AB
:101B8000151C0000151C0000151C0000151C000091
:101B9000151C0000151C0000151C0000151C000081
:101BA000151C0000151C0000151C0000F91B00008E
:101BB000151C0000F91B0000151C0000151C00007E
:101BC000151C0000151C0000151C0000151C000051
:101BD000151C0000151C0000151C0000151C000041
:101BE000151C0000151C0000151C0000F91B00004E
:101BF000151C0000F91B0000032424071568A543E9
:101C0000012464072C19146004E0032424071568D8
:101C1000A54315600C8AD460CC68064D25401C682D
:101C2000054E264074191C60097A0143116070BD8D
:101C300004180000777702008888FDFF10B507239D
:101C40009B04194092008018024A84589C436118F2
:101C5000815010BD3018000010B5029CA40000197E
:101C600011431943014A815010BDC046501800006D
:101C700092008018014A81507047C0461018000039
:101C800010B50122120383180C789C604B788350A6
:101C90008978014A815010BD0C110000B0B51122A5
:101CA000120283580124A34383508B780C881C4371
:101CB0008B882343094C1C408358094D1D402B1928
:101CC00083508B79CC791C43097A21437E231940B8
:101CD000801842689A4351184160B0BD18670000EF
:101CE000E798FDFF10B50122120383180C789C6061
:101CF0004978815010BD000070B5012815D8CA0878
:101D00007D2A12D20B4B1C4610340128254600D0E8
:101D10001D46012216022E60012800D023465002E3
:101D200018600548FFF7A4FF70BD04A0FEF70AFC89
:101D300070BDC04690120A40008086400A444F5F42
:101D4000436F6E74726F6C20706172616D65746543
:101D500072206572726F722121210D006C48002182
:101D600001606C4801606D4801606D48016070471A
:101D7000401E032804D8800002A10858006870475C
:101D80000020704774002020800020208C0020203C
:101D900098002020401E032804D8800002A1085883
:101DA00000687047002070477800202084002020C1
:101DB000900020209C00202080B50748022101606F
:101DC000064A11600160116001210904016011607F
:101DD00003A0FEF7B7FB80BD80E200E000E100E079
:101DE0004D6F746F7220696E697469616C697A6590
:101DF00064207375636365737366756C6C790D002D
:101E0000F0B54148103807680568404B103B1C6826
:101E1000012290061B683E01BC4E09D4074213D034
:101E2000D10637683A4800680F420AD1471C09E0DA
:101E30003168374F3F68014201D17F1E02E07F1CAD
:101E400000E0471E324807601007002D08D4054205
:101E500012D031682F48006800290AD4451C09E0D7
:101E600031682C4D2D68014201D16D1E02E06D1CC0
:101E700000E0451E27480560D0026105264D09D4C3
:101E8000044213D091022C68244800680C420AD105
:101E9000441C09E02968214C2468014201D1641ED8
:101EA00002E0641C00E0441E1C4804605003D90496
:101EB00009D4034213D011032A68194800680A4262
:101EC0000AD1421C09E02968154A1268014201D171
:101ED000521E02E0521C00E0421E11480260032222
:101EE0009006094B19680143196009200007196819
:101EF000014319609002054B1968014319601003F2
:101F0000196801431960F0BD48100A4048300A4082
:101F1000700020207C00202080330A408800202090
:101F200094002020F0B581B07649B7480860764D1E
:101F300002262E60754F386880070BD532240520A5
:101F400000F065FE641E3868800701D52006F6D1D2
:101F500020060CD001242C60052000F058FE2C61D6
:101F60008120684908602E64002001B0F0BD812006
:101F7000644908602E6401272F612E612F600524BB
:101F8000204600F044FE2E60204600F040FE384619
:101F900001B0F0BD80B500F0E1FE012080040849E9
:101FA000086008490860084800210160074801608E
:101FB00007480170074801600748016080BDC046BE
:101FC00080E200E000E100E0FC0D202090042020F1
:101FD000080120209404202004012020F0B587B0BF
:101FE000484889490160484D01262E610524204654
:101FF00000F00DFE2E60204600F009FE43490868FF
:102000000F460690204600F002FE2E61204600F0AA
:10201000FEFD2E60204600F0FAFD3868059020464F
:1020200000F0F5FD2E61204600F0F1FD2E60204607
:1020300000F0EDFD38680490204600F0E8FD2E61C8
:10204000204600F0E4FD2E60204600F0E0FD3868F8
:102050000390204600F0DBFD2E61204600F0D7FD06
:102060002E60204600F0D3FD38680290204600F034
:10207000CEFD2E61204600F0CAFD2E60204600F005
:10208000C6FD38680190204600F0C1FD2E61204653
:1020900000F0BDFD2E60204600F0B9FD1B4807682A
:1020A000204600F0B4FD2E61204600F0B0FD2E6009
:1020B000204600F0ACFD15480568204600F0A7FD5D
:1020C0000698420004210A400220059B03409A180A
:1020D0009200049B5B000B40D218039B03409A18AC
:1020E0009200029B5B000B40D118019A02405118EC
:1020F000490007407818A907C90F0818C0B207B0EF
:10210000F0BDC0460880424090120A4080130A4049
:10211000F0B53A4B8720586101204104384A1160DC
:1021200085241C6101041160DC65850635490D605C
:102130001C66C4060C60344DEE1C344C6660266090
:1021400046066768374367602768374327608226FB
:10215000A6616E1CE661DD632746203F81263E6056
:102160001E649E60DE601E605E605E629E6226612E
:1021700066619D665D662346243B1D602346303BB9
:102180001D6025636563A563E5632346343B1E60DC
:10219000383C26601346303B04241C601346403B09
:1021A0001B4C1C60231D13601A4A13681A4C1C43F5
:1021B000146027229206194B1C6A14431C621C6887
:1021C00014431C600A46303A8005106008464038C7
:1021D00003225204026023204004086055200005B9
:1021E0000F490A6802430A600F2080020D490A6AFB
:1021F00002430A620A6802430A60F0BD88804240D6
:10220000D0120A40D0320A40810004003C80424093
:1022100003F30000A0130A400000504128100A40B8
:1022200090330A4028300A4080B511481149FFF721
:10223000D0FB03204102104802680A4302600121DA
:102240000A020368134303600022426107224262CC
:10225000836B934383631202836B93438363826A2A
:10226000042313438362826A0A43826280BDC046AC
:1022700000200F409446000000320F40F0B581B0BE
:102280001B4C1C492046FFF7FBFC1B492046FFF76F
:10229000B3FB7D20C6000025204631462A46FFF7C5
:1022A000E7FC00951027204629463A462B46FFF7C3
:1022B000D3FC204629462A46FFF7C0FC01240C48DF
:1022C00031462246FFF7D4FC0094094806462946C9
:1022D0003A462B46FFF7C0FC304629462246FFF718
:1022E000ADFC064884600321016001B0F0BDC0462A
:1022F00000208640964600009C4600000031864043
:10230000F0B581B01B4C1C492046FFF7B9FC1B49B6
:102310002046FFF7B3FB7D20C6000025204631464E
:102320002A46FFF7A5FC00951027204629463A4685
:102330002B46FFF791FC204629462A46FFF77EFCF4
:1023400001240C4831462246FFF792FC00940948CC
:10235000064629463A462B46FFF77EFC304629467C
:102360002246FFF76BFC064884600321016001B040
:10237000F0BDC04600808640A4460000A84600008C
:102380000091864009480021016009480168032244
:10239000914301600121090342680A434260FF2022
:1023A000000204490A6882430A60704708030B4030
:1023B00000010B4000E400E010B50C4C0C49204635
:1023C000FFF75EFC0B492046FFF7C2FB0A48016895
:1023D0000122114301600948016880230B437F21DA
:1023E0008B4303600648026010BDC04600400840B1
:1023F000B0460000B44600002850084010E400E059
:102400000851084010B5084C08492046FFF738FC31
:1024100007492046FFF79CFB06480168012211434B
:1024200001600548026010BD00A08640C84600005B
:10243000CC46000028B0864008B1864010B5064C56
:1024400006492046FFF71CFC05492046FFF780FBA4
:1024500004480121016010BD00008640E0460000F4
:10246000E44600000811864010B5154C1549204679
:10247000FFF738FC14492046FFF710FC0320C10386
:10248000124802688A4302600169114A0A40911C9D
:10249000016141690B220A4334218A434261416848
:1024A0000122114043689343591841609102094B3E
:1024B0001C680C431C6001681143016010BDC046DC
:1024C00000801040F8460000FA46000000911040DD
:1024D0000000FFFF2890104080B500F027F8FFF7BC
:1024E00017FEFFF74FFFFFF7C9FEFFF709FFFFF7E2
:1024F00063FFFFF7A3FFFFF785FFFFF795FEFFF7E9
:10250000B3FF7420054900220A54B821044B5A54E1
:10251000044B5A5404490A5480BDC046D8012020B7
:102520001C012020C802202050022020F0B581B0DC
:102530001248134A42601348426013484260134CE9
:102540006260134D6A60134E7260134F7A601349D4
:102550004A6013484260134A084B1A60094B1A60DC
:10256000094B1A6022602A6032603A600A60026099
:102570001020FFF7E9F901B0F0BDC04600080A409D
:10258000030000B100280A400028864000888640E9
:10259000004808400008864000A8864000280F40F8
:1025A0000088104001000026F0B581B04E4A81211C
:1025B00011604E4902240C6301250D60009040B269
:1025C0000F46103F0028084600DA384604602046CF
:1025D00000F01DFB3D600526304600F018FB434827
:1025E0000560304600F013FB009840063F4800D5D8
:1025F00038460460204600F00AFB3D60304600F09B
:1026000006FB3A480560304600F001FB0098800662
:10261000364800D538460460204600F0F8FA3D60A0
:10262000304600F0F4FA31480560304600F0EFFA29
:102630000098C0062D4800D538460460204600F0BA
:10264000E6FA3D60304600F0E2FA28480560304680
:1026500000F0DDFA00980007244800D538460460F1
:10266000204600F0D4FA3D60304600F0D0FA1F4812
:102670000560304600F0CBFA009840071B4800D5B3
:1026800038460460204600F0C2FA3D60304600F053
:10269000BEFA16480560304600F0B9FA0098800787
:1026A000124800D538460460204600F0B0FA3D607C
:1026B000304600F0ACFA0D480560304600F0A7FA4D
:1026C0000098C007094800D038460460204600F052
:1026D0009EFA3D60304600F09AFA044805603046A4
:1026E00000F095FA01B0F0BD08804240A0120A4007
:1026F00001208103084A1160C103116001031160C8
:10270000410311604104054B196081041960010205
:10271000116040021060704790120A4090320A40E7
:10272000F0B585B00120FFF735FB04460220FFF726
:1027300031FB05465E4800680394201AFEF70AFC48
:1027400004465C4800680495281AFEF703FC01461D
:10275000204601F0C9FD3F21090601F05FFE564900
:10276000FEF7E6FA0446554E3068214601F0BCFDFE
:10277000306000F063FA5249086080680190FEF70B
:10278000ADFA504A504BFEF785F900224F4B0292AA
:10279000FDF730FFFDF7F0FE054601F0FBFB0146BB
:1027A000204601F03BFE4A4F396801F09DFD38603C
:1027B000284601F0ABFC0146204601F02FFE454DB6
:1027C000296801F091FD28603068434901F089FAD9
:1027D000002821D14148007801281DD1374C2068BC
:1027E0003F4901F081FD20603E480168C72913D8A8
:1027F00001680C2251433C4B019C5C5001685143E1
:102800005918334C24684C6001680468641C0460E7
:1028100051435818296881603048007802283FD118
:1028200000F014FC314E30680C2778432E4D2818E8
:1028300040682749096801F055FE0446306878432E
:102840002818806823490968244E01F04BFE014690
:1028500001F0E4FD05462046214601F0DFFD294652
:1028600001F042FD01F014FD214901F017FA0028A2
:1028700016D11E4A10681B490968491E884206D2B3
:102880001068401C10600D480299016008E0307823
:10289000022805D1029C2046214600F0E5FA34705A
:1028A00003480399016004980249086005B0F0BD2F
:1028B000880320208C032020008054440401202021
:1028C000AC0020204AD8124DFB2109400080664010
:1028D0000C012020100120200000204108012020B0
:1028E000000020C1FC0D202098042020900420200E
:1028F0000000A040B0B513480068C0B2012820D144
:10290000114A106840425060104B186858601048D7
:102910000168494241600F490C6864424C60546848
:1029200095682C1994605A689C68A2189A6042684D
:1029300083689A18826048688A681018886000F076
:102940000DFBB0BD20500840700020207C002020EE
:10295000880020209400202027480078012825D1D5
:1029600024480078012821D12148007801281DD170
:102970001E480078012819D11B480078012815D17C
:1029800018480078012811D11548007801280DD188
:1029900012480078012809D1194801684A1C0260D0
:1029A00003290BDD15490120087014E013490020AC
:1029B000087013490860002804D00CE00F48007824
:1029C000002808D10F490968814204D00E490A78CD
:1029D000012353400B700B4908607047070E2020FD
:1029E000060E2020050E2020040E2020030E20209D
:1029F000020E2020010E2020000E20209003202017
:102A0000F80D20209403202098032020B0B582B038
:102A10001A480068C0B20B282DD119480068194D1A
:102A200029887E2916D829884A1C2A80164C605489
:102A3000C0B22D2811D02B281AD117A101AA184BEA
:102A40002046FDF745FC28880019401E0021017032
:102A500029800DE0002028800AE00CA101AA0D4B7E
:102A60002046FDF735FC28880019401E0021017022
:102A70000C480121017002B0B0BDC046209010404A
:102A8000249110408E0420200C0420202533733D17
:102A900025642D00040420202533733D25642B007C
:102AA0000C0020208C0420200120C0030249086073
:102AB000024908607047C04680E200E000E100E0A3
:102AC00070470000F0B589B005AC0EC4039008A9AA
:102AD00030200870444801242246FEF73AFF43485C
:102AE0000168082291430160414E119804901098AA
:102AF00002900F9801900E9800903068800608D4DC
:102B00003068800605D43068800602D430688006BC
:102B1000F3D53746083F3868364D284024303860B2
:102B2000301F036834490B40344A9B1803603368F4
:102B30005B0612D533685B060FD533685B060CD590
:102B400033685B06F3D408E033689B0608D4336827
:102B50009B0605D433689B0602D433689B06F3D5E5
:102B60003B682B4025251D433D6003680B40134304
:102B700003603068400612D5306840060FD53068D3
:102B800040060CD530684006F3D408E03068800673
:102B900008D43068800605D43068800602D43068D6
:102BA0008006F3D57068C1B2C909039A1170410655
:102BB000C90F059A11708106C90F069A1170C106D6
:102BC000C90F079A11700107C90F009A11704107C8
:102BD000C90F019A11708107C90F029A1170044040
:102BE0000498047009B0F0BD00200F4028300F4059
:102BF00018320F4000F8FFFFF8FF00F00700010057
:102C000080B57D2109024843FEF79EFE80BD80B558
:102C10004001FEF799FE80BD07490A68D20708D037
:102C20000A68D20705D00A68D20702D00A68D2071C
:102C3000F3D1C2B28A61704708911040F0B583B0F9
:102C400001AA00209080019050203D21062300F031
:102C50003FFC002802D138A0FDF774FC01A80088D1
:102C6000FDF70DFF3F221506002422462B46FDF7F7
:102C700011FF354B2246FDF70DFFFDF77DFC0446A5
:102C8000324901F021F8002801D1334906E03049EA
:102C9000204601F003F8002804D12E49204601F017
:102CA00023FB044601A84088FDF7E9FE00263246D2
:102CB0002B46FDF7EFFE244B3246FDF7EBFEFDF70A
:102CC0005BFC0646214900F0FFFF002801D12249A4
:102CD00006E01F49304600F0E1FF002804D11D49FD
:102CE000304601F001FB064601A88088FDF7C7FECB
:102CF00000273A462B46FDF7CDFE134B3A46FDF72B
:102D0000C9FEFDF739FC0546104900F0DDFF00283B
:102D100001D1114906E00E49284600F0BFFF002806
:102D200004D10C49284601F0DFFA0546334850C06B
:102D3000056003B00838F0BD0A5265616420457231
:102D4000726F720D00000000008066400000344386
:102D5000000034C30000B4430000B4C3F0B589B030
:102D600008AA25481080502569210291022428468E
:102D7000234600F035FEC8263046FFF741FF07AA7C
:102D800004201080012101912846234600F028FEEE
:102D90003046FFF735FF06AA002717802846394638
:102DA000234600F01DFE3046FFF72AFF05AA124811
:102DB000108028460299234600F012FE3046FFF7A5
:102DC0001FFF04AA0820108028460199234600F01E
:102DD00007FE3046FFF714FF03AA1780284639463E
:102DE000234600F0FDFD3046FFF70AFF0348076069
:102DF0004760876009B0F0BD88B5FFFFA0002020C4
:102E000082B0FFF769FB7D20C000FFF7F9FEFFF7F6
:102E10004BFE114D2B68114E3268114F38680090EF
:102E200082480124214600F009F92B68326838688D
:102E300000908048214600F001F9FFF759FCFEF7A9
:102E4000BBFFFFF7A7F8A0050649086000F0BCFD2E
:102E500000F004FDFCE7C046000020200400202014
:102E60001801202090320A4010B50C46C10F6E4A5E
:102E70001170E10F6E4A1170C1174840401AFEF7F9
:102E800069F86A490860E0174440201AFEF762F8C2
:102E90006849086010BDC046F0B583B004460068BC
:102EA000616801F01FFB0546A060206B00282DD053
:102EB00001284ED1A169284601F0B0FA0290A06223
:102EC000E6682846314601F00DFB0146606901F0D5
:102ED000A5FA019020623046314601F005FA01461C
:102EE000284601F0FFFA216901F0FEF90146E06988
:102EF00001F094FA074660620198029901F0F4F932
:102F0000394601F0F1F90146E06A1EE061692846A0
:102F100001F084FA02902062A069294601F07EFA4D
:102F2000A16A01F0E1F90190A062E6682846314605
:102F300001F0D8FA0146E06901F070FA07466062D4
:102F40000298019901F0D0F9394601F0CDF9E0621B
:102F500000E0E668E560266103B0F0BDF0B581B041
:102F6000314804780120FEF703FF002C00D04042D6
:102F7000FDF7F0FF2D4E70602D4804780220FEF71B
:102F8000F7FE002C00D04042FDF7E4FF294D6860B9
:102F9000FEF7E4FE3046FFF77FFF2846FFF77CFF91
:102FA000F66A254F3046394600F078FE002806D1F3
:102FB00000273046394600F07CFE002802D11B482D
:102FC000C7623E46EC6A1C4F2046394600F066FE5A
:102FD000002806D100272046394600F06AFE002866
:102FE00000D1EF623046FDF779FF01460E4C2078A4
:102FF000FEF736FC0D48C06AFDF770FF01462078E9
:10300000FEF770FCE86AFDF769FF0146084C20787E
:10301000FEF744FCE86AFDF761FF01462078FEF701
:103020006BFE01B0F0BDC046080020209C032020AC
:1030300009002020D003202000C0794410B5029C54
:1030400042618361C461016310BD0000F0B581B0CD
:10305000D44F3868D4490968884200D31BE23968E4
:103060003868002900D138E139680C225143CF4B30
:103070005D585043C0180C380468CD49204600F014
:1030800023FE002829D1CB4EC94F2046314601F0FE
:103090002BF90446394600F017FE00281DD12046C2
:1030A000314601F021F90446394600F00DFE0028B2
:1030B00013D12046314601F017F90446394600F095
:1030C00003FE002809D12046314601F00DF90446DF
:1030D000394600F0EEFD0028D7D1F449204600F033
:1030E000DDFD002829D1F24EF04F2046314601F097
:1030F000FBF80446394600F0D1FD00281DD12046DA
:10310000314601F0F1F80446394600F0C7FD0028C9
:1031100013D12046314601F0E7F80446394600F065
:10312000BDFD002809D12046314601F0DDF80446F6
:10313000394600F0D6FD0028D7D1DA49284600F0FC
:10314000C3FD002829D1D84ED64F2846314601F07C
:10315000CBF80546394600F0B7FD00281DD12846BA
:10316000314601F0C1F80546394600F0ADFD0028B2
:1031700013D12846314601F0B7F80546394600F02C
:10318000A3FD002809D12846314601F0ADF80546D7
:10319000394600F08EFD0028D7D1C449284600F0FA
:1031A0007DFD002829D1C24EC04F2846314601F08E
:1031B0009BF80546394600F071FD00281DD12846D0
:1031C000314601F091F80546394600F067FD0028C8
:1031D00013D12846314601F087F80546394600F0FC
:1031E0005DFD002809D12846314601F07DF80546ED
:1031F000394600F076FD0028D7D12846214601F057
:1032000071F90646A74900F054FD0546A649304627
:1032100001F06AF80746002D00D13746A349384629
:1032200000F05FFD0546A249384601F05DF806460C
:10323000002D00D13E469F4800689F49FDF778FD6C
:1032400005467F20C7052846394600F032FD002894
:1032500000D12F460021384600F02BFD002800D178
:1032600007463846314601F0D9F8214601F03CF8CE
:1032700004468C4900F028FD002800D09CE08A4DCF
:10328000884E864F2046294601F02EF804463146E6
:1032900000F01AFD002800D08FE02046294601F0FA
:1032A00023F80446314600F00FFD002800D084E0EA
:1032B0002046294601F018F80446314600F004FD86
:1032C00000287AD12046294601F00EF804463146FE
:1032D00000F0EFFC0028D5D16FE00C21414370488D
:1032E00044587049204600F0EFFC002829D16E4D6B
:1032F0006C4E2046294600F0F7FF0446314600F0A8
:10330000E3FC00281DD12046294600F0EDFF0446CD
:10331000314600F0D9FC002813D12046294600F0A0
:10332000E3FF0446314600F0CFFC002809D12046D7
:10333000294600F0D9FF0446314600F0BAFC0028C7
:10334000D7D15A49204600F0A9FC002865D1584D34
:10335000564E2046294600F0C7FF0446314600F08D
:103360009DFC002859D12046294600F0BDFF0446A7
:10337000314600F093FC00284FD12046294600F04A
:10338000B3FF0446314600F089FC002845D12046B1
:10339000294600F0A9FF0446314600F0A2FC0028AF
:1033A000D7D13AE090042020FC0D20209804202062
:1033B000000034430000B4C3384F3C49204600F0BD
:1033C0006DFC002829D13A4D384E2046294600F0A0
:1033D0008BFF0446314600F061FC00281DD12046D9
:1033E000294600F081FF0446314600F057FC0028D2
:1033F00013D12046294600F077FF0446314600F0FD
:103400004DFC002809D12046294600F06DFF0446F6
:10341000314600F066FC0028D7D1386839680C22A4
:1034200051431F4B5E1850431818406823490968E0
:1034300001F058F80546B0682149096801F052F8D2
:103440000646294600F058FC3046314600F0E6FFBB
:1034500006462846294600F0E1FF314600F044FFC9
:1034600000F016FF174900F0D9FF0646164D294611
:1034700000F01FFC002800D13546144E2846314686
:1034800000F017FC002800D135462046294600F000
:103490002BFF00F0C3F801B0F0BDC046900420201F
:1034A00098042020000034430000B4C3000034C35B
:1034B0000000B44304012020000020410C01202022
:1034C00010012020CDCC4C3F0000F0410000F0C1A5
:1034D000F0B589B001930892039105904D48812180
:1034E000069101604C4D02242C6301262E60103D94
:1034F0002C602E6005273846FFF789FB464804609C
:103500003846FFF784FB444806603846FFF77FFBE8
:1035100005984700F8B2FFF747F800200590FEF73E
:1035200001FD002808D1049507940398FFF73CF8A3
:10353000FEF7F8FC002802D0059809B0F0BD052080
:103540000390FFF764FB334806990160079C3248FB
:1035500004630660049D2C602E600398FFF757FB00
:103560002D480460039C2046FFF751FB2A48066063
:103570002046FFF74CFB3743F8B2FFF715F8FEF78C
:10358000D1FC00280598D8D1019800283246079E22
:10359000089F29D0044602920FE007990160029E1D
:1035A0002E600598FFF733FB3246079E3A602E6087
:1035B000641E089F7F1C002C16D035461646FEF769
:1035C0000DFD08973870134806990160124F3D634E
:1035D0003E603D6005200590FFF719FB012C049D1E
:1035E0002846DAD03846D8E70A48069901600A4DDD
:1035F0002E632A602E60103D2A600524204617465F
:10360000FFF705FB2E602046FFF701FB384609B0A7
:10361000F0BDC04608804240A0120A40F0B583B019
:103620000446FFF70BFB7D4908608168204600F0E7
:1036300059FF0446E34900F047FB002829D1784DA3
:10364000E04E2046294600F04FFE0446314600F089
:103650003BFB00281DD12046294600F045FE0446CC
:10366000314600F031FB002813D12046294600F0F6
:103670003BFE0446314600F027FB002809D12046D6
:10368000294600F031FE0446314600F012FB0028C6
:10369000D7D16449204600F001FB002829D1624DB2
:1036A000604E2046294600F01FFE0446314600F0D9
:1036B000F5FA00281DD12046294600F015FE0446E3
:1036C000314600F0EBFA002813D12046294600F0DD
:1036D0000BFE0446314600F0E1FA002809D12046ED
:1036E000294600F001FE0446314600F0FAFA0028AF
:1036F000D7D14E4F3968204600F0F6FD06464C4DB6
:10370000294600F0D6FA002800D13546494E284611
:10371000314600F0E6FA002800D12E463E604648C9
:103720000168204600F0DEFE05464449204600F0D0
:1037300075FE06464249284600F070FE314600F00C
:10374000D3FD06463F4D294600F0B3FA002800D1CC
:1037500035463D4E2846314600F0C3FA002800D1D8
:103760002E463A4806603A4D3046294600F0A1FA06
:1037700000282F4600D13746364E3846314600F0F5
:1037800098FA002800D137463348394600F0AAFE9F
:10379000FDF77EFB0021C9430028019100D00146BE
:1037A0000846FDF7D7FB0646294600F082FA0028B6
:1037B000284600D130460290264E314600F079FA74
:1037C000002800D102963846234900F08DFDFDF710
:1037D0005FFB0028019900D001460846FDF7BAFBBF
:1037E0000646294600F065FA002800D135462846ED
:1037F000184900F05EFA07460298FDF749FB0646B5
:10380000002F00D1134D2846FDF742FB01463046FC
:10381000FFF72AFB0848046003B0F0BDAC0020208D
:103820000000B4C3000034C30000B443840320206C
:103830000000C8420000C8C2080420209A99993E9E
:103840000AD7A33C00007042000070C2140120207F
:1038500000002041000020C10000A040F0B589B068
:10386000414803904148029041480190414D0095E4
:103870004148424C424F434E21463A463346FFF7B9
:1038800021F93F7823783C48027830782D78384900
:103890000C7836490E7834490978009001950294E5
:1038A0000396049138A011461A463B46FCF796FC55
:1038B00031480778002F43D030480678002E3FD09B
:1038C0002A480478002C3ED027480378002B3AD0B1
:1038D0002B480578002D39D02A480178002935D0A9
:1038E00024480278002A34D021480078002830D0BB
:1038F000059006920791082001460893FFF7B4FA55
:10390000089801282ED1012C2CD1012F2AD1012E6B
:1039100028D1012D26D10798012823D10698012806
:1039200020D1059801281DD124480068002801D025
:10393000052817DB22480078002810D021480FE026
:103940000320092107E00920032104E002200621C9
:1039500001E006200221FFF787FA09B0F0BD002040
:10396000FFF75CFE09B0F0BD070E2020060E2020F8
:10397000050E2020040E2020000E2020010E202005
:10398000020E2020030E202078313D25642C783251
:103990003D25642C78333D25642C78343D25642CFA
:1039A00078353D25642C78363D25642C78373D25C7
:1039B000642C78383D25640A00000000F80D2020B2
:1039C00098032020000034430120000502490860CC
:1039D000024908607047C04680E200E000E100E074
:1039E000F0B587B0049316460591069029488121C9
:1039F0000191016028480225056301240460014605
:103A000010390D6002910C6005273846FFF7FFF86A
:103A10000395214805603846FFF7F9F825461E480A
:103A200004603846FFF7F3F806984006000EFEF7EC
:103A3000BBFD0027FEF776FA002827D106950598EA
:103A4000FEF7B2FDFEF76EFA00281FD1049D002D8F
:103A5000104C09D03078FEF7A7FDFEF763FA002876
:103A600014D1761C6D1EF5D101982060039C0A4884
:103A70000463069F07600460029E376005252846A0
:103A8000FFF7C5F834602846FFF7C1F8384607B09D
:103A9000F0BDC04608804240A0120A40F0B4040CB9
:103AA0008BB2264682B25E430D0C1046370C58434B
:103AB000360480190021794116466E43370C3604CE
:103AC0008019794126466E438919F0BC7047410040
:103AD000080200D004200A0E01D001221043090E72
:103AE000FF2901D102210843012800D10520704798
:103AF00010B50121FDF7B2FD10BD10B500F0F4FBCB
:103B000010BD10B500210846FDF712F910BD5E2169
:103B100010B5C9430807FDF7A1FD10BDF0B50E466D
:103B200014465100FF22120687B0914203D31116AA
:103B3000316007B0F0BD01202502C0070543E00D4C
:103B40007838C206D20E2020871A6000000E78381E
:103B5000401181004D4878440B189C464358002A78
:103B600014D06046406893400146F84003436046E5
:103B7000806891408646F840014303916046714653
:103B8000C0689140F84001430F4603E06046416839
:103B90000391876818462946FFF780FF0291049039
:103BA00029460398FFF77AFF039106903846294685
:103BB000FFF774FF0F460698029B3D18049A03997D
:103BC000BD4201D2012700E000278818C019002F4C
:103BD00002D0884202D903E0884201D2012100E0EC
:103BE000002159180A4620329709C20C890652034F
:103BF00040033760114301900846FDF7ABF902908E
:103C00000198FDF7AFF91221C943FDF727FD019097
:103C10002846FDF7A7F92521C943FDF71FFD0090B0
:103C20000199029800F060FB009900F05DFB012112
:103C3000C9024018050B2D032846029900F052FCDA
:103C4000019900F04FFC009900F040FC104900F091
:103C5000E5FB00900F49284600F0E0FB009900F0DA
:103C600043FB00900C49284600F0D8FB009900F077
:103C70003BFB002C00DB5CE701210907C91B31601D
:103C80000121C907484007B0F0BD00001A0B000031
:103C9000DB0FC92F22AAFD290000C92F10B500F0A3
:103CA00069FBEFF30080800001D5012010BD0020EA
:103CB00010BD10B500F05EFBEFF300804000800FF8
:103CC000012800D0002010BD10B500F07DFBEFF3FF
:103CD00000804000800F012801D0012010BD00208D
:103CE00010BD10B500F070FBEFF30080800001D430
:103CF000012010BD002010BDF0B50C4601461D226C
:103D00004B00D2069F18E52605463606620087B0AE
:103D10002046B7427BD21D27FF06D719B74276D27D
:103D20004F0043003E0E1A0EB21A1B2A07DD00296F
:103D300002DA854807B0F0BD844807B0F0BD1A2606
:103D4000F2422FDA002807DA002902DA804807B0A9
:103D5000F0BD804807B0F0BD21462846FCF7E8FFDB
:103D60000646FFF7B4FE042801D1FFF7D0FE28462F
:103D7000FFF7ADFE05462046FFF7A9FE0446304694
:103D8000FFF7A5FE042D01D0052D08D1042C01D08C
:103D9000052C04D1002802D10220FDF7EBF83046B3
:103DA00007B0F0BD9F4211D9002902DA6A4F6B4E6D
:103DB00001E06B4F6B4E23462C461D460122034605
:103DC000D20708465440504019460BE0002807DA55
:103DD000002902DA644F654E04E0654F654E01E04C
:103DE00000263746421A012352001B069A422FD260
:103DF000484061490CD5BF2000060290384600F0CB
:103E000071FB07465D49304600F06CFB0BE053E068
:103E10003F2000060290384600F066FA07465749F0
:103E2000304600F061FA06462846029900F0F6FA9C
:103E3000214600F059FA00902146029800F0EEFA6F
:103E4000294600F043FB0099FCF772FF044604E0AA
:103E500021462846FCF76CFF0446014600F0DEFAD6
:103E60004749009000F0DAFA464900F03DFA00991F
:103E700000F0D4FA444900F037FA009900F0CEFA85
:103E8000424900F031FA009900F0C8FA404900F0C8
:103E90002BFA05462046009900F0C0FA294600F0AA
:103EA000BDFA314600F020FA214600F01DFA3946ED
:103EB00000F01AFA07B0F0BDFF263606B34201D86B
:103EC000B24205D901462846FFF717FE07B0F0BDFC
:103ED0002F4607437F000AD0B3420CD1B2420AD129
:103EE00001229207904391430D46044618E7FF22B2
:103EF000D2051043F9E7B3420CD047000AD0B242D2
:103F00000ED04E000CD05340F0D4002A0EDB9F267A
:103F1000F6050DE0FF22D2051143E00FC007FFE6D2
:103F2000C90FC907FF22D2051043F9E65F26F6053F
:103F30003146284600F072FA05463146204600F028
:103F40006DFA04462946EBE6DB0FC9BFDB0FC93F1C
:103F5000DB0F49C0DB0F49400000C9BF22AAFDB9F1
:103F60000000C93F22AAFD39000049C022AA7DBA3B
:103F70000000494022AA7D3A0060ED3EC30ACE37D8
:103F80002DAD65BD8FB8D53D0FB511BE61C84C3E96
:103F9000A8AAAABEF0B5024604464E4B83B0400024
:103FA0006946984209D273210906884202D200204C
:103FB000C04300E00020009030E05000464B400835
:103FC00098426CD24549104600F028FAFDF7A2F855
:103FD0000746FCF75DFF8007800F00904049384698
:103FE00000F01CFA01903F49384600F017FA0646E7
:103FF0003D49384600F012FA05463C49384600F083
:104000000DFA214600F062FA294600F06BFA3146BB
:1040100000F068FA019900F065FA044625467F270A
:10402000009CFF05002C3EDBE007314E2946084688
:104030001BD000F0F3F907462E4900F0EFF92E49A6
:1040400000F052F9394600F0E9F92C4900F04CF93A
:10405000394600F0E3F9294600F0E0F9294600F07E
:1040600043F9A10718D503B0F0BD00F0D7F9054614
:10407000234900F0D3F9234900F036F9294600F02E
:10408000CDF9214900F030F9294600F0C7F9394649
:1040900000F02AF9A107E6D5704003B0F0BD104644
:1040A000FFF73CFDB9E7FF2168000906884202D20C
:1040B000384603B0F0BD884206D10120FCF75AFF14
:1040C000FFF71FFD03B0F0BD2846FFF711FD03B059
:1040D000F0BD0000B61F927E490E494683F9223F8B
:1040E0001A61342C0020A23300A0FD390000C93F22
:1040F00000000080336D4CB9DA82083CA0AA2ABEC9
:10410000B93AB2BACA9F2A3DDDFFFFBEF0B50246FA
:104110000446514B83B040006946984209D273214E
:104120000906884202D20020C04300E0002000902F
:1041300030E05000494B400898426BD24849104645
:1041400000F06CF9FCF7E6FF0746FCF7A1FE8007DC
:10415000800F00904349384600F060F901904249D1
:10416000384600F05BF906464049384600F056F9FB
:1041700005463F49384600F051F9214600F0A6F9BE
:10418000294600F0AFF9314600F0ACF9019900F092
:10419000A9F904462546009C002C3FDBE007354E7C
:1041A000294608461AD000F039F90546324900F090
:1041B00035F9324900F098F8294600F02FF93049D6
:1041C00000F092F8294600F029F97F21C90500F096
:1041D0008BF8A10700D5704003B0F0BD00F01EF9C8
:1041E0000746284900F01AF9274900F07DF83946BA
:1041F00000F014F9254900F077F8394600F00EF97F
:10420000294600F00BF9294600F06EF8A107E2D428
:1042100003B0F0BD1046FFF781FCBAE7FF2168004C
:104220000906884209D22846FFF751FC042801D12B
:10423000FFF76DFC284603B0F0BD884206D101208F
:10424000FCF798FEFFF75DFC03B0F0BD2846FFF7D2
:104250004FFC03B0F0BD0000B61F927E490E4946E8
:1042600083F9223F1A61342C0020A23300A0FD39CB
:104270000000C93F00000080B93AB2BACA9F2A3D87
:10428000DDFFFFBE336D4CB9DA82083CA0AA2ABE1E
:1042900070B50546FCF77EFF41000446FF20490843
:1042A000C005411AC90F07D069004908401AC00F5C
:1042B00002D10120FCF75EFE204670BD10B500293A
:1042C0000AD00878002807D005487844FDF770FA2E
:1042D000002801D0002010BD0248784410BD000025
:1042E0007E0400007604000070B50125ED0704008F
:1042F0004C4020D4441A01D2001B0919C60D4B00B2
:10430000F2B2FF2A29D01B0E2CD000020C02284347
:104310002C43D31ADC40051910D2280A02D3401CC2
:104320006D0611D0761EF6058019FF2A00DA70BDE1
:10433000C00DC00570BD694000F0DAF801200543EA
:10434000C541521C761CE8E764089C40C9016140E5
:104350008900E7D10124A043E4E71B0E440200D00A
:10436000034870BD002AFCD1C00FC00770BD00BF5C
:104370000000C07F0123DB0502000A430DD4DA42AE
:1043800003D49A4207D488427047D84214D4D94201
:1043900012D48842704780427047DA4203D59A426D
:1043A000F9D5814270475B004200DA4204D24A00EC
:1043B000DA4201D28142704710B5024AFDF71CF97A
:1043C00010BD00BF090013040123DB0502000A43EE
:1043D0000DD4DA4203D49A4207D488427047D842B7
:1043E00014D4D94212D48842704780427047DA42CE
:1043F00003D59A42F9D5814270475B004200DA4208
:1044000004D24A00DA4201D28142704710B5024A12
:10441000FDF7F2F810BD00BF0900160470B54200A8
:1044200064414B005C41120E39D01B0E38D0FF2A7C
:104430003CD0FF2B3AD0D2187F3A40024902400AC2
:10444000490A4518ED0106004E43000A090A48438F
:104450000104731A4019190C4318990F04D05B0812
:10446000012149075B1A521CD80904D3401CF503EB
:1044700001D19D0607D0FF2A08D2D50506D0E40752
:104480002043401970BD0125A843F4E7002A01DC50
:10449000E00770BD2402FF202043C00570BD1B0E45
:1044A000FF2A03D0FF2B01D0E00770BDFF263606A0
:1044B0004500B54206D84D00B54203D8D218FF2AB0
:1044C00000D0E7E7004870BD0000C07F70B501254F
:1044D000ED07684004004C4002D5694000F008F840
:1044E000FFF708FF70B50125ED0704004C4022D40A
:1044F000441A02D26C40001B0919C60D4B00F2B2DF
:10450000FF2A4BD01B0E50D000020C02A8432C43B4
:10451000D31ADC40051B05D5AD0019D36D08761EF6
:10452000521E37D0F605280A01D2801970BD70419D
:104530006D0603D070BD6940FFF7DCFE9C400902A8
:104540006140490001D0401E70BD0124A04370BDF0
:104550006D081DD001202B0C01D12D0410302B0E25
:1045600001D12D0208302B0F01D12D01001DAB0F01
:1045700001D1AD00801CEB0F01D16D00401C361A3B
:10458000121A6D00680AF5054019012A02DB70BD98
:10459000002070BDC036300AC00770BD1B0E44023B
:1045A00001D1FF2B00D1024870BD002AF0D070BDB0
:1045B0000000C07F80807F7E7D7C7B7A79787776F3
:1045C00076757473727171706F6E6E6D6C6C6B6AF0
:1045D0006A6968686766666564646363626161608E
:1045E000605F5F5E5E5D5D5C5C5B5B5A5A5959580B
:1045F0005857575656555555545453535252525175
:10460000515050504F4F4F4E4E4D4D4D4C4C4C4BCA
:104610004B4B4A4A4A494949484848474747474611
:10462000464645454544444444434343434242424D
:10463000424141418182838485868788898B8C8D24
:104640008E8F919293959697999A9C9D9FA0A2A3E5
:10465000A5A7A8AAACAEB0B2B3B5B7B9BCBEC0C22C
:10466000C5C7C9CCCED1D4D7D9DCDFE2E6E9ECF0BE
:10467000F3F7FAFE000000006E83F9A22915444EFC
:10468000D15727FCC0DD34F5999562DB4190433C5E
:10469000AB6351FE0800080700000000E8030000BB
:1046A0000000010008070000E8030000000100000E
:1046B00008070000220000001F4E0000010000005B
:1046C00000000000000000000807040022000000B5
:1046D0003F9C0000010000000000000000000000FE
:1046E00008030000220000003F9C000001000000C1
:1046F000000000000000000004000000180000009E
:10470000003000000A414F5F436F6E74726F6C207F
:10471000706172616D65746572206572726F72216D
:1047200021210D000000000058480000000020205A
:104730001000000020010000684800001000202048
:10474000F80F0000480100001001000043000000C5
:10475000F8FFFFFF004040404040404040404141A2
:104760004141414040404040404040404040404046
:1047700040404040400502020202020202020202E0
:1047800002020202022020202020202020202002DD
:10479000020202020202909090909090101010106D
:1047A0001010101010101010101010101010101009
:1047B000020202020202888888888888080808089D
:1047C0000808080808080808080808080808080869
:1047D0000202020240000000000000000000000091
:1047E00000000000000000000000000000000000C9
:1047F00000000000000000000000000000000000B9
:1048000000000000000000000000000000000000A8
:104810000000000000000000000000000000000098
:104820000000000000000000000000000000000088
:104830000000000000000000000000000000000078
:104840000000000000000000000000000000000068
:104850000000000000000000000060400000704107
:08486000010100000A00000044
:04000005000000C136
:00000001FF
