:020000040000FA
:10000000200920206D010000710100007301000033
:1000100000000000000000000000000000000000E0
:10002000000000000000000000000000750100005A
:1000300000000000000000007701000079010000CE
:100040007B0100007B0100007B0100007B010000C0
:100050007B0100007B0100007B0100007B010000B0
:10006000000000007B0100007B0100000000000098
:10007000000000007B010000BD1300006D130000B4
:100080007B0100007B0100007B0100007B01000080
:100090007B0100007B010000000000000000000068
:1000A0007B0100007B010000000000000000000058
:1000B0007B010000000000007B0100007B010000CC
:1000C00000F002F800F042F812A030C808382418F6
:1000D0002D18AC4201D100F039F80FCCA246AB4646
:1000E0000CA730CF2D1B083F3F197C427F1E544484
:1000F0002D090426F441641EAC4201D300F026F819
:100100000126334200D0FB1A3343984754465D46DC
:10011000DFE7000054160000641600000000000035
:100120007047000000000000002300240025002686
:10013000103A01D378C1FBD8520700D330C100D5A3
:100140000B6070471FB51FBD10B510BD00F05FF804
:100150001146FFF7F7FF01F093F900F077F803B4C9
:10016000FFF7F2FF03BC01F073F9000006480047F7
:10017000FEE7FEE7FEE7FEE7FEE7FEE70348044989
:10018000044A054B70470000C100000020072020F2
:1001900020092020200820202008202010B5044617
:1001A00003E001F05DF9401C08D020780549641C8B
:1001B0000028F6D10A2001F053F910BD0020C043F9
:1001C00010BD0000E004202001E004C0091F042944
:1001D000FBD28B0701D50280801CC90700D00270BA
:1001E000704700290BD0C30702D00270401C491E83
:1001F000022904D3830702D50280801C891EE3E70D
:100200000022EEE70022DFE770477047704775462F
:1002100000F024F8AE46050069465346C008C00009
:10022000854618B020B5FFF7A9FF60BCB64600268A
:100230000027C0C5C0C5C0C5C0C5C0C5C0C5C0C5F4
:10024000C0C5403D490849008D46704710B5044679
:10025000C046C0462046FFF782FF10BD00487047E9
:1002600000002020811E091F00BFFCD27047000043
:10027000B0B51122120283580C4C1C400B894D88DA
:100280001D438B792B430A4D1D4063198350CB7955
:100290008C881C43097821435D239B0019408018FA
:1002A00042689A4351184160B0BDC04680CCFFFF00
:1002B0007F33000010B50122120383180C785C60B4
:1002C0004978815010BD000070B5374A82184B68DC
:1002D0005360364BC3180878222857D8840001A5EC
:1002E0002C59A746830300008D0300008303000000
:1002F0008D0300008D0300008D0300008D030000BE
:100300008D0300008D0300008D0300008D030000AD
:100310008D0300008D0300008D0300008D0300009D
:100320008D030000710300008D03000071030000C5
:100330008D0300008D0300008D0300008D0300007D
:100340008D0300008D0300008D0300008D0300006D
:100350008D0300008D0300008D0300008D0300005D
:100360008D030000710300008D0300007103000085
:10037000032424071568A543012464072C1914607D
:1003800004E0032424071568A54315600C8AD46093
:10039000CC68074D25401C68064E264074191C6029
:1003A000097A0143116070BD041800003018000084
:1003B000777702008888FDFF10B5012212038318A9
:1003C0000C789C604B7883508978014A815010BD2D
:1003D0000C110000B0B51122120283580124A3436E
:1003E00083508B780C881C438B882343094C1C401A
:1003F0008358094D1D402B1983508B79CC791C43B0
:10040000097A21437E231940801842689A43511883
:100410004160B0BD18670000E798FDFF10B50122EC
:10042000120383180C789C604978815010BD00003D
:10043000F0B581B0012081040091094E3160C704FC
:10044000376085053560C824204601F002F8009821
:10045000306137613561204600F0FBFF01B0F0BD2F
:1004600090320A40F0B5024CF834802502E0C046D4
:1004700060002020002121702246083A1170224697
:10048000103A11702246183A11702246203A117023
:100490002246283A11702246303A11702246383AE4
:1004A00011702246403A11702246483A1170224695
:1004B000503A11702246583A11702246603A117033
:1004C0002246683A11702246703A11702246783AF4
:1004D00011702246803A11702246883A11702246E5
:1004E000903A11702246983A11702246A03A117043
:1004F0002246A83A11702246B03A11702246B83A04
:1005000011702246C03A11702246C83A1170224634
:10051000D03A11702246D83A11702246E03A117052
:100520002246E83A11702246F03A11702246F83A13
:10053000117001221302E418203D9BD1014DF935C1
:10054000802401E06000202029702E46083E317092
:100550002E46103E31702E46183E31702E46203EFB
:1005600031702E46283E31702E46303E31702E4678
:10057000383E31702E46403E31702E46483E317036
:100580002E46503E31702E46583E31702E46603E0B
:1005900031702E46683E31702E46703E31702E46C8
:1005A000783E31702E46803E31702E46883E317046
:1005B0002E46903E31702E46983E31702E46A03E1B
:1005C00031702E46A83E31702E46B03E31702E4618
:1005D000B83E31702E46C03E31702E46C83E317056
:1005E0002E46D03E31702E46D83E31702E46E03E2B
:1005F00031702E46E83E31702E46F03E3170EE18D6
:10060000F83D2970203C35469ED1024DFA358024B4
:1006100002E0C0466000202029702E46083E31705E
:100620002E46103E31702E46183E31702E46203E2A
:1006300031702E46283E31702E46303E31702E46A7
:10064000383E31702E46403E31702E46483E317065
:100650002E46503E31702E46583E31702E46603E3A
:1006600031702E46683E31702E46703E31702E46F7
:10067000783E31702E46803E31702E46883E317075
:100680002E46903E31702E46983E31702E46A03E4A
:1006900031702E46A83E31702E46B03E31702E4647
:1006A000B83E31702E46C03E31702E46C83E317085
:1006B0002E46D03E31702E46D83E31702E46E03E5A
:1006C00031702E46E83E31702E46F03E3170EE1805
:1006D000F83D2970203C35469ED1FC4DFB358024E9
:1006E00029702E46083E31702E46103E31702E463F
:1006F000183E31702E46203E31702E46283E317015
:100700002E46303E31702E46383E31702E46403EE9
:1007100031702E46483E31702E46503E31702E4686
:10072000583E31702E46603E31702E46683E317024
:100730002E46703E31702E46783E31702E46803EF9
:1007400031702E46883E31702E46903E31702E46D6
:10075000983E31702E46A03E31702E46A83E317034
:100760002E46B03E31702E46B83E31702E46C03E09
:1007700031702E46C83E31702E46D03E31702E4626
:10078000D83E31702E46E03E31702E46E83E317044
:100790002E46F03E3170EE18F83D2970203C35466B
:1007A0009ED1CA4DFC35802429702E46083E3170FA
:1007B0002E46103E31702E46183E31702E46203E99
:1007C00031702E46283E31702E46303E31702E4616
:1007D000383E31702E46403E31702E46483E3170D4
:1007E0002E46503E31702E46583E31702E46603EA9
:1007F00031702E46683E31702E46703E31702E4666
:10080000783E31702E46803E31702E46883E3170E3
:100810002E46903E31702E46983E31702E46A03EB8
:1008200031702E46A83E31702E46B03E31702E46B5
:10083000B83E31702E46C03E31702E46C83E3170F3
:100840002E46D03E31702E46D83E31702E46E03EC8
:1008500031702E46E83E31702E46F03E3170EE1873
:10086000F83D2970203C35469ED1E04DFD35802471
:1008700029702E46083E31702E46103E31702E46AD
:10088000183E31702E46203E31702E46283E317083
:100890002E46303E31702E46383E31702E46403E58
:1008A00031702E46483E31702E46503E31702E46F5
:1008B000583E31702E46603E31702E46683E317093
:1008C0002E46703E31702E46783E31702E46803E68
:1008D00031702E46883E31702E46903E31702E4645
:1008E000983E31702E46A03E31702E46A83E3170A3
:1008F0002E46B03E31702E46B83E31702E46C03E78
:1009000031702E46C83E31702E46D03E31702E4694
:10091000D83E31702E46E03E31702E46E83E3170B2
:100920002E46F03E3170EE18F83D2970203C3546D9
:100930009ED1AE4DFE35802429702E46083E317082
:100940002E46103E31702E46183E31702E46203E07
:1009500031702E46283E31702E46303E31702E4684
:10096000383E31702E46403E31702E46483E317042
:100970002E46503E31702E46583E31702E46603E17
:1009800031702E46683E31702E46703E31702E46D4
:10099000783E31702E46803E31702E46883E317052
:1009A0002E46903E31702E46983E31702E46A03E27
:1009B00031702E46A83E31702E46B03E31702E4624
:1009C000B83E31702E46C03E31702E46C83E317062
:1009D0002E46D03E31702E46D83E31702E46E03E37
:1009E00031702E46E83E31702E46F03E3170EE18E2
:1009F000F83D2970203C35469ED17C4DFF35802442
:100A000029702E46083E31702E46103E31702E461B
:100A1000183E31702E46203E31702E46283E3170F1
:100A20002E46303E31702E46383E31702E46403EC6
:100A300031702E46483E31702E46503E31702E4663
:100A4000583E31702E46603E31702E46683E317001
:100A50002E46703E31702E46783E31702E46803ED6
:100A600031702E46883E31702E46903E31702E46B3
:100A7000983E31702E46A03E31702E46A83E317011
:100A80002E46B03E31702E46B83E31702E46C03EE6
:100A900031702E46C83E31702E46D03E31702E4603
:100AA000D83E31702E46E03E31702E46E83E317021
:100AB0002E46F03E3170EE18F83D2970203C354648
:100AC0009ED1D30292039A4C8E4D05E06000202007
:100AD000491C082900D188E023612261B0260E4319
:100AE000F6B22E632E68F60608D52E68F60605D5F2
:100AF0002E68F60602D52E68F606F3D4226023602F
:100B00002361226100262E632F68FF0608D52F6817
:100B1000FF0605D52F68FF0602D52F68FF06F3D420
:100B2000226023602361226110272F632F68FF0654
:100B300008D52F68FF0605D52F68FF0602D52F6858
:100B4000FF06F3D42260236004E022602360361D98
:100B5000802EBDD0F7002548C719785C236022613C
:100B600028632868C00608D52868C00605D5286807
:100B7000C00602D52868C006F3D4226023607F181F
:100B8000387A2360226128632868C00608D528685F
:100B9000C00605D52868C00602D52868C006F3D46B
:100BA00022602360387C2360226128632868C006A5
:100BB00008D52868C00605D52868C00602D528686B
:100BC000C006F3D422602360387E2360226128634C
:100BD0002868C006B9D52868C006B6D52868C006FA
:100BE000B3D52868C006F3D4AFE7F0BD600020207D
:100BF00010B50122D1029203414B012813D00028E5
:100C000025D119601A603F48A62404630468E406ED
:100C10001AD50468E40617D50468E40614D50468F8
:100C2000E406F3D410E019601A603648A724046380
:100C30000468E40608D50468E40605D50468E406FB
:100C400002D50468E406F3D4103B1A60196010BDA5
:100C500010B50122D1029203294B012827D0002888
:100C60004DD119601A602748C82404630468E4065B
:100C700008D50468E40605D50468E40602D50468CE
:100C8000E406F3D41C46103C2260216019601A600F
:100C9000A12404630468E4062ED50468E4062BD579
:100CA0000468E40628D50468E406F3D424E0196057
:100CB0001A601448C02404630468E40608D5046874
:100CC000E40605D50468E40602D50468E406F3D416
:100CD0001C46103C2260216019601A60A024046345
:100CE0000468E40608D50468E40605D50468E4064B
:100CF00002D50468E406F3D4103B1A60196010BDF5
:100D0000A0320A4010B14640F0B581B00124A602DD
:100D1000074D2E61C820009000F09BFB2E60E6027C
:100D20002E61A7032F61FE4CAE20206302E0C04677
:100D300090320A402068C00608D52068C00605D554
:100D40002068C00602D52068C006F3D42F602E604C
:100D50002E612F61002222632068C00608D520681A
:100D6000C00605D52068C00602D52068C006F3D4A9
:100D70002F602E602E612F61102020632068C00636
:100D800008D52068C00605D52068C00602D52068B1
:100D9000C006F3D42F602E602E612F6140212163A5
:100DA0002068C00608D52068C00605D52068C006A2
:100DB00002D52068C006F3D42F602E602E612F610B
:100DC000812020632068C00608D52068C00605D5AC
:100DD0002068C00602D52068C006F3D42F602E60BC
:100DE0002E612F61CF2020632068C00608D52068BF
:100DF000C00605D52068C00602D52068C006F3D419
:100E00002F602E602E612F61A12020632068C00614
:100E100008D52068C00605D52068C00602D5206820
:100E2000C006F3D42F602E602E612F6100982063DE
:100E30002068C00608D52068C00605D52068C00611
:100E400002D52068C006F3D42F602E602E612F617A
:100E5000A62020632368DB0608D52368DB0605D5BA
:100E60002368DB0602D52368DB06F3D42F602E60EF
:100E70002E612F61A82323632368DB0608D523682E
:100E8000DB0605D52368DB0602D52368DB06F3D431
:100E90002F602E602E612F613F2323632368DB06C2
:100EA00008D52368DB0605D52368DB0602D5236851
:100EB000DB06F3D42F602E602E612F61D3232363D2
:100EC0002368DB0608D52368DB0605D52368DB0627
:100ED00002D52368DB06F3D42F602E602E612F61CC
:100EE00022632268D20608D52268D20605D5226878
:100EF000D20602D52268D206F3D42F602E602E616E
:100F00002F61D52222632268D20608D52268D20634
:100F100005D52268D20602D52268D206F3D42F6006
:100F20002E602E612F61802222632268D20608D5AE
:100F30002268D20605D52268D20602D52268D206DA
:100F4000F3D42F602E602E612F61D9222263226894
:100F5000D20608D52268D20605D52268D20602D567
:100F60002268D206F3D42F602E602E612F61F12209
:100F700022632268D20608D52268D20605D52268E7
:100F8000D20602D52268D206F3D42F602E602E61DD
:100F90002F61DA2222632268D20608D52268D2069F
:100FA00005D52268D20602D52268D206F3D42F6076
:100FB0002E602E612F61122222632268D20608D58C
:100FC0002268D20605D52268D20602D52268D2064A
:100FD000F3D42F602E602E612F61DB222263226802
:100FE000D20608D52268D20605D52268D20602D5D7
:100FF0002268D206F3D42F602E602E612F61216308
:101000002168C90608D52168C90605D52168C90621
:1010100002D52168C906F3D42F602E602E612F619E
:10102000202121632168C90608D52168C90605D594
:101030002168C90602D52168C906F3D42F602E6045
:101040002E612F61022121632168C90608D521681C
:10105000C90605D52168C90602D52168C906F3D499
:101060002F602E602E612F618D2121632168C906BA
:1010700008D52168C90605D52168C90602D52168A9
:10108000C906F3D42F602E602E612F6114212163D5
:101090002168C90608D52168C90605D52168C90691
:1010A00002D52168C906F3D42F602E602E612F610E
:1010B000A42121632168C90608D52168C90605D580
:1010C0002168C90602D52168C906F3D42F602E60B5
:1010D0002E612F6120632068C00608D52068C006F5
:1010E00005D52068C00602D52068C006F3D42F605D
:1010F0002E60FFF7B7F92E612F61AF2020632068C3
:10110000C00608D52068C00605D52068C00602D5EF
:101110002068C006F3D42F602E6001B0F0BDC04639
:1011200010B1464010B50E48822101600D4A531C93
:1011300043600D4C21606360832141610161911C1A
:10114000C1608121C16501664167C2640267816136
:10115000C1618162054806490160016310BDC04656
:101160005480424081000400D4804240A0320A40B2
:10117000004C4C0010B50D4C0D492046FFF79AF875
:101180000C492046FFF774F80B4841680B4A0A40A7
:10119000511C4160816812220A432D218A438260DA
:1011A000016801220A43026010BDC04600A046400B
:1011B000D4160000D616000004B1464000FCFFFF24
:1011C000064800210160064801680322914301603E
:1011D0000121090342680A434260704708030B403B
:1011E00000010B4010B5084C08492046FFF7E4F811
:1011F00007492046FFF768F80648016801221143B5
:1012000001600548026010BD00008640E016000045
:10121000E4160000281086400811864010B5E24C04
:1012200014492046FFF7FAF813492046FFF7D2F891
:101230000320C103114802688A4302600169274AFA
:101240000A40911C016141690B220A4334218A43FF
:10125000426141680122114043689343591841603B
:101260009102074B1C680C431C600168114301602C
:1012700010BDC046F8160000FA160000009110409C
:101280002890104010B5C74C11492046FFF7C6F80A
:1012900010492046FFF79EF80320C1030E4802685C
:1012A0008A43026001690D4A0A40911C016141694B
:1012B0000B220A4334218A434261416801221140D2
:1012C000436893435918416001681143016010BDA0
:1012D0000417000006170000003110400000FFFF57
:1012E00080B500F019F8FFF71DFFFFF769FFFFF762
:1012F00079FFFFF793FFFFF7C5FFFFF73BFF2420C0
:10130000034900220A54B82002490A5480BDC0464D
:10131000340520205C05202070B50C480C49416044
:101320000C4A51600C4B59600C4C61600C4D69606B
:101330000C4E71600C4901601160196021602960D8
:1013400031601020FEF78EFF70BDC04600080A40D5
:10135000030000B100280A400008864000881040C1
:101360000028104000A846400100002610B5124891
:101370000068C0B20B281ED1A548C169C84A1388AD
:101380007E2B13D813885C1C1480C64AD154026883
:10139000D20708D00268D20705D00268D20702D06F
:1013A0000268D207F3D1C9B2816101E00020108048
:1013B000C7480121017010BD2090104010B512489F
:1013C0000068C0B20B281ED1A748C169B24A138871
:1013D0007E2B13D813885C1C1480B04AD154026849
:1013E000D20708D00268D20705D00268D20702D01F
:1013F0000268D207F3D1C9B2816101E000201080F8
:10140000B0480121017010BD2030104080B501208E
:10141000C103054A1160054B196080031060186014
:1014200003A0FEF7BBFE80BD80E200E000E100E02B
:10143000426F61726420496E6974205B5B202A2AC6
:10144000204C434B4642202A2A205D5D0D000000BF
:10145000704780B57D2109024843FEF703FF80BD38
:101460006B490A68D20708D00A68D20705D00A6813
:10147000D20702D00A68D207F3D1C2B28A6170479C
:10148000FFF72EFFFFF7C2FFFFF73EFC00242046C8
:10149000FFF7AEFB2046FFF7DBFB21A000F09EF834
:1014A00027A000F09BF82EA000F0C4F834A000F0B4
:1014B000C1F8854D854EFEF7BBFF7D20C000FFF7CC
:1014C000C8FFE0B24F214143C80A1A214143671ABD
:1014D00038464130C0B200F071F8344800F07EF870
:1014E0006137F8B200F096F8314800F0A3F83046C2
:1014F00000F0DAF8002805D02E4800F06FF83046EA
:1015000000F0B4F8641C284600F0CEF80028D2D0D1
:10151000294800F08FF8284600F0A8F8CBE7C0462D
:101520004D53503433304733353037204D756C745C
:10153000692D5541525420546573740D0A00000002
:10154000554152545F303A20504131302854582987
:101550002C2050413131285258290D0A000000003A
:10156000554152545F313A20504132332854582962
:101570002C2050413234285258290D0A0000000016
:1015800053797374656D20696E697469616C697AE9
:101590006564207375636365737366756C6C79211C
:1015A0000D0A00000020104000801040401700008D
:1015B00051170000101700002817000014490A688E
:1015C000D20708D00A68D20705D00A68D20702D02D
:1015D0000A68D207F3D188617047C04601780029B4
:1015E00014D00B4A04E09161581C597800290DD0A1
:1015F00003461068C007F6D01068C007F3D0106823
:10160000C007F0D01068C007F3D1ECE77047C046C0
:101610000891104014490A68D20708D00A68D20716
:1016200005D00A68D20702D00A68D207F3D18861D0
:101630007047C0460178002914D00B4A04E091613C
:10164000581C597800290DD003461068C007F6D001
:101650001068C007F3D01068C007F0D01068C0074A
:10166000F3D1ECE77047C04608311040B0B51649D9
:10167000884206D0154988420CD1154C084D0948BE
:1016800002E0104C044D05488021FEF7B9FD002012
:1016900028802070B0BDC0461E0720209C06202058
:1016A0009A062020180620200749884205D00749BD
:1016B000884205D106480078704702480078704794
:1016C000002070471C0720200020104000801040A0
:1016D0009806202008000400000100000710000008
:1016E0000800630022000000FF1800000000000056
:1016F00000000000000000000400000018000000CE
:10170000003000000400000018000000003000005D
:10171000554152545F302072656365697665642077
:1017200064617461210D0A00554152545F31207289
:10173000656365697665642064617461210D0A00E2
:10174000202D20554152545F3020546573740D0A8A
:1017500000202D20554152545F3120546573740D83
:101760000A000000000000007817000000002020A0
:0817700020090000280100001F
:04000005000000C136
:00000001FF
