:020000040000FA
:10000000200220206D01000071010000730100003A
:1000100000000000000000000000000000000000E0
:10002000000000000000000000000000750100005A
:1000300000000000000000007701000079010000CE
:100040007B0100007B0100007B0100007B010000C0
:100050007B0100007B0100007B0100007B010000B0
:10006000000000007B0100007B0100000000000098
:10007000000000007B0100007B0100007B0100000C
:100080007B0100007B0100007B0100007B01000080
:100090007B0100007B010000000000000000000068
:1000A0007B0100007B010000000000000000000058
:1000B0007B010000000000007B0100007B010000CC
:1000C00000F002F800F042F812A030C808382418F6
:1000D0002D18AC4201D100F039F80FCCA246AB4646
:1000E0000CA730CF2D1B083F3F197C427F1E544484
:1000F0002D090426F441641EAC4201D300F026F819
:100100000126334200D0FB1A3343984754465D46DC
:10011000DFE700001C0F00002C0F000000000000B3
:100120007047000000000000002300240025002686
:10013000103A01D378C1FBD8520700D330C100D5A3
:100140000B6070471FB51FBD10B510BD00F01FF943
:100150001146FFF7F7FF00F006FE00F037F903B491
:10016000FFF7F2FF03BC00F03DF90000064800472E
:10017000FEE7FEE7FEE7FEE7FEE7FEE70348044989
:10018000024A044B70470000C100000020012020FB
:100190002002202020012020704770477047000077
:1001A000F0B5FF252D04C609C209FF2704462E40DD
:1001B0000137CB093E4348402A402B400746002ADE
:1001C0006BD0002B69D0AA4267D0AB4265D0002823
:1001D00000DA32460125ED0529432C4309022002AD
:1001E000090AD21A4B0C7F24E31A434C000A7C44C0
:1001F000E35C7D242404121914145B00A2188842C5
:1002000001D3521C00E0400049420C465C432411DB
:100210005C43DB016415E318040A5C43C502200D4E
:100220000C4644436419250A5D432303EC0C0D4638
:10023000654300030019EB184C42A34201D35B183D
:10024000401CD4052018002B07D05B00C91804D32C
:10025000401C002901D1400840003F2189048A4206
:1002600009D3002A08DC1106090F04D0032149072D
:100270004018C00FC007F0BD0122410012068918C6
:100280007F2252069142F6D205214907C84201D584
:100290009010F0BDFF20C005F0BD002F00DA3246FF
:1002A0001648AA4207D2AB4205D21902090E17D04E
:1002B000F80FC007F0BDFF2563002D06AB42F9D84B
:1002C0004900A942F6D8AB4201D1A942F2D0A942D5
:1002D00001D1002101E061004908D0050843F0BDCB
:1002E0001102090EFBD0FF200243D005F0BD0A46E3
:1002F0000146104654E70000CE0D00000000C07F0C
:100300000102C21504D00123DB071943002A0ADBCE
:100310009E239A1A02D40846D0407047FF2241001B
:100320001206914201D900207047C017C0437047A0
:100330001F22030C02D10F2200041CD0030E01D196
:100340000002083A030F01D10001121F830F01D1EF
:100350008000921E002801DB4000521ED205511879
:10036000021251181922904004D3491C002801D1CF
:100370004908490008467047C10FC90700D04042EC
:10038000012292071143D3E701218907D0E775467F
:1003900000F024F8AE46050069465346C008C00088
:1003A000854618B020B5FFF7E9FE60BCB6460026CA
:1003B0000027C0C5C0C5C0C5C0C5C0C5C0C5C0C573
:1003C000C0C5403D490849008D46704710B50446F8
:1003D000C046C0462046FFF7C2FE10BD0048704729
:1003E0000000202001491820ABBEFEE726000200D5
:1003F000704782B001900199881E001F00BFFCD297
:10040000009002B0704784B003900291019203986B
:100410000068009000980199884300900098029924
:10042000019A114008430399086004B0704784B0F2
:10043000039002910192039800680090009801993E
:100440008843009000980299019A1140084303994B
:10045000086004B0704784B0039002910192039841
:1004600000680090009801998843009000980299D4
:10047000019A114008430399086004B0704782B0A4
:10048000019000910098019995225201885002B084
:100490007047000082B00190009100980199024AD3
:1004A000885002B07047C046D012000081B0009062
:1004B00000990120C2023D48885001B07047C046F3
:1004C00081B0009000988100154A0248885001B020
:1004D0007047C0468100040081B000900098810000
:1004E0000F4A8120885001B07047C04682B0019009
:1004F000009100980349084301998900084A8850EF
:1005000002B070478000040082B001900091009812
:100510008021084301998900014A885002B0704740
:100520000480424081B000900099A74AA7488850B3
:1005300001B0704781B001466846017000780249F9
:10054000086001B07047C04608030B4080B582B018
:10055000014601A80170017802480322FFF753FF0A
:1005600002B080BD00010B4081B000900099024AAA
:100570000120885001B070470811000082B001903E
:100580000091009B0199034A88581843885002B093
:100590007047C0462810000081B0009000990120EB
:1005A000C2020248885001B07047C04601000026D0
:1005B00080B58AB0099008910898007907900028C2
:1005C00004D0FFE70798202812D029E0099808995D
:1005D0000968491E00F0CEF9099888210691002289
:1005E00000F018F906990998012200F013F92AE0A1
:1005F000099808990968491E00F0BCF909982D4925
:100600000491002200F006F904990998012205924C
:1006100000F000F905990998490700F09BF912E0EC
:10062000099808990968490800F0A4F90998052172
:10063000C9010391002200F0EDF803990998012205
:1006400000F0E8F8FFE709980023019319461A46DD
:1006500000F0FAF8019A099801230293114600F07C
:10066000F3F8019B0998009319461A4600F024F903
:10067000019B02990998009119461A4600F01CF94D
:10068000019B099819461A4600F0FCF8019A029B52
:100690000998114600F0F6F80998B5494018089AEB
:1006A00011795279114302221143034AFFF7BFFE29
:1006B0000AB080BD01040000BFFF003080B584B0E7
:1006C0000390029103980299496800F053F9029847
:1006D00000780190222856D80198810001A0405846
:1006E0008746C0467D070000870700007D070000A1
:1006F00087070000870700008707000087070000C2
:1007000087070000870700008707000087070000B1
:1007100087070000870700008707000087070000A1
:1007200087070000710700008707000071070000BD
:100730008707000087070000870700008707000081
:100740008707000087070000870700008707000071
:100750008707000087070000870700008707000061
:10076000870700007107000087070000710700007D
:1007700003980121490700F0EDF805E003980021F6
:1007800000F0E8F800E0FFE703980299098A0022E8
:10079000009200F0B1F8009B03980299C9681A46CC
:1007A00000F052F802990878097A08430399704AD0
:1007B000885004B080BDC04681B000900099A14A25
:1007C000A148885001B0704704080000030000B140
:1007D00082B0019000910098019911221202885074
:1007E00002B0704780B584B00390029101A80270F6
:1007F0000399224A891800910178009889004018CD
:1008000000900098029907229204FFF710FE04B0AE
:1008100080BDC04680B584B00390029101A80270EB
:100820000399074A891800910178009889004018B7
:10083000009000980299034AFFF7F9FD04B080BDCB
:1008400070180000DBB6C1FF10B586B005900491AA
:10085000039202A803700599084A8918019101784A
:10086000019889004018019001980499039A114356
:10087000034AFFF7DCFD06B010BDC046301800008B
:100880007777020010B586B005900491039202A814
:10089000037005993122D2018918019101780198DC
:1008A00089004018019001980499039A11438F22FE
:1008B000FFF7BDFD06B010BD10B587B0009104462E
:1008C00000980999069405900492039302A8017078
:1008D0000699084A89180191017801988900401801
:1008E0000190059804990843039908430199086009
:1008F00007B010BD5018000084B00390029101A809
:1009000002700399064A89180091017800988900BD
:100910004018009002980099086004B07047C046E3
:100920001018000082B001900091009800780199A1
:10093000614A88500098407801990122120388503A
:10094000009880780199024A885002B07047C046EA
:100950000C11000080B582B001900091019804490B
:100960004018009903221207FFF761FD02B080BD15
:100970000418000082B00190009100980199024A89
:10098000885002B07047C0460818000081B000903F
:10099000009911200202885801239843885001B021
:1009A000704781B0009000991120020288580123FD
:1009B0001843885001B0704782B001900091009BAD
:1009C0000199034A88581843885002B07047C046BE
:1009D0002810000081B0009000990120C202024856
:1009E000885001B07047C0460100002680B582B033
:1009F000019000910198FFF7C9FF019811210902A8
:100A00004018009A11889378194392881143084A34
:100A1000FFF721FD01981F494018009A9179D37979
:100A20001943127A11437E22FFF715FD02B080BDF3
:100A30001867020081B000900099024A024888506D
:100A400001B0704704080000030000B180B584B015
:100A500003900291019203980B49401802990B4AA6
:100A6000FFF7D1FC03980A49401801993F22FFF78C
:100A7000CAFC0399074A8818895801221140FFF7D8
:100A8000C2FC04B080BDC04610110000FFFF000092
:100A9000141100000411000082B001900091009830
:100AA00000780199044A8850009840780199012201
:100AB0001203885002B070470810000080B582B061
:100AC0000190009101981121090240180099032218
:100AD000D203FFF798FC02B080BD000080B588B05B
:100AE000212004210291FFF70FFD01200390010353
:100AF00072480490FFF7CEFC142002210191FFF709
:100B000003FD01991520FFF7F1FC2B20FFF7E4FC12
:100B10002C20FFF7E1FC2720FFF7D2FC3020FFF765
:100B2000CFFC1E20FFF7D8FC0298FFF7D5FC0399F5
:100B3000049889070591FFF7A2FC04980599FFF72F
:100B4000A9FC3120810307915D480690FFF797FCCF
:100B500006980799FFF79EFC08B080BD80B584B069
:100B6000124979480390FFF7DDFE03981049FFF71B
:100B70001FFD03981921090100220292FFF7BCFE14
:100B8000029B0398009310221946FFF795FE029AE4
:100B900003981146FFF726FE0398FFF7E5FC03983C
:100BA0000121FFF715FE04B080BDC0460010000013
:100BB0000410000080B582B000200190FFF7BAFC5D
:100BC0000198FFF7C3FC02B080BD000080B582B081
:100BD00008493C480190FFF7A5FE01980649FFF738
:100BE0006DFD01980121FFF7C9FC0198FFF7BCFCDE
:100BF00002B080BD0C1000001010000080B582B063
:100C00000D4931480190FFF747FF01980B49FFF765
:100C1000EDFE01980021FFF751FF0198D021152228
:100C2000FFF714FF019801218902FFF7C5FE019823
:100C3000FFF7B7FE02B080BD2410000026100000B0
:100C400080B500F011F8FFF749FFFFF7B3FFFFF79A
:100C500085FFFFF7BBFFFFF7D1FF0249B822002055
:100C6000885480BD6400202080B586B01348019070
:100C7000FFF758FC12480290FFF754FC32480390EB
:100C8000FFF79AFD0F480490FFF796FD0E48059078
:100C9000FFF7D0FE0198FFF709FC0298FFF706FC6A
:100CA0000398FFF779FC0498FFF776FC0598FFF7A7
:100CB00091FE1020FFF79DFB06B080BD00000A40AA
:100CC00000200A40000086400080104080B588B0B7
:100CD00007901920000106900798B52803D3FFE775
:100CE000B4200790FFE70798134908601348059060
:100CF000134804900498059900F0FAF803900598B9
:100D000001900798FFF740FB0E49FFF749FA039956
:100D100000F096F8019900F04DF8029002983F21FA
:100D2000090600F047F8FFF7EBFA014606480022F3
:100D3000FFF7E2FD08B080BD6000202000002041E8
:100D400000004842000034430040084080B582B0B3
:100D5000019001997D200002484301900198FFF71E
:100D600048FB02B080BD80B584B0002000900390A5
:100D70000290FFF765FFB420FFF7A8FF7D20C000B9
:100D80000190FFF7E3FF0098FFF7A0FF0198FFF73E
:100D9000DDFFFFE70298411C0291FFF797FF0298E1
:100DA000B42803DBFFE700200290FFE70A20FFF7EB
:100DB000CDFFEFE770B50125ED0704004C4020D4CE
:100DC000441A01D2001B0919C60D4B00F2B2FF2ACA
:100DD00029D01B0E2CD000020C0228432C43D31A1E
:100DE000DC40051910D2280A02D3401C6D0611D030
:100DF000761EF6058019FF2A00DA70BDC00DC00509
:100E000070BD694000F07AF801200543C541521CCD
:100E1000761CE8E764089C40C90161408900E7D17D
:100E20000124A043E4E71B0E440200D0034870BD38
:100E3000002AFCD1C00FC00770BD00BF0000C07FFA
:100E400070B5420064414B005C41120E39D01B0E5C
:100E500038D0FF2A3CD0FF2B3AD0D2187F3A40023C
:100E60004902400A490A4518ED0106004E43000AAE
:100E7000090A48430104731A4019190C4318990FC1
:100E800004D05B08012149075B1A521CD80904D31E
:100E9000401CF50301D19D0607D0FF2A08D2D505D5
:100EA00006D0E4072043401970BD0125A843F4E7AC
:100EB000002A01DCE00770BD2402FF202043C005AA
:100EC00070BD1B0EFF2A03D0FF2B01D0E00770BDC1
:100ED000FF2636064500B54206D84D00B54203D878
:100EE000D218FF2A00D0E7E7004870BD0000C07F9D
:100EF00070B50125ED0704004C4022D4441A02D2FB
:100F00006C40001B0919C60D4B00F2B2FF2A4BD0F2
:100F10001B0E50D000020C02A8432C43D31ADC4015
:100F2000051B05D5AD0019D36D08761E521E37D0AE
:100F3000F605280A01D2801970BD70416D0603D0F4
:100F400070BD6940FFF73CFF9C40090261404900C9
:100F500001D0401E70BD0124A04370BD6D081DD09E
:100F600001202B0C01D12D0410302B0E01D12D02AC
:100F700008302B0F01D12D01001DAB0F01D1AD00A9
:100F8000801CEB0F01D16D00401C361A121A6D0047
:100F9000680AF5054019012A02DB70BD002070BD0A
:100FA000C036300AC00770BD1B0E440201D1FF2BB2
:100FB00000D1024870BD002AF0D070BD0000C07F93
:100FC0008182838485868788898B8C8D8E8F919290
:100FD00093959697999A9C9D9FA0A2A3A5A7A8AA2E
:100FE000ACAEB0B2B3B5B7B9BCBEC0C2C5C7C9CC50
:100FF000CED1D4D7D9DCDFE2E6E9ECF0F3F7FAFEA4
:101000000807C7009001000000010000080063000D
:1010100022000000FF180000000000000000000097
:101020000000000008000000180000000030000070
:1010300040100000000020202002000028010000D5
:04000005000000C136
:00000001FF
