:020000040000FA
:10000000A80820207D01000081010000830100007C
:1000100000000000000000000000000000000000E0
:10002000000000000000000000000000850100004A
:1000300000000000000000008701000089010000AE
:100040008B0100008B0100008B0100008B01000080
:100050008B0100008B0100008B0100008B01000070
:10006000000000008B0100008B0100000000000078
:10007000000000008B0100008B010000E51600006D
:100080008B0100008B0100008B0100008B01000040
:100090008B0100008B010000000000000000000048
:1000A0008B0100008B010000000000000000000038
:1000B0008B010000000000008B0100008B0100009C
:1000C00000F002F800F04AF812A030C808382418EE
:1000D0002D18AC4201D100F041F80FCCA246AB463E
:1000E0000CA730CF2D1B083F3F197C427F1E544484
:1000F0002D090426F441641EAC4201D300F02EF811
:100100000126334200D0FB1A3343984754465D46DC
:10011000DFE70000FC1800000C19000000000000E0
:100120007047000000000000002300240025002686
:10013000103A01D378C1FBD8520700D330C100D5A3
:100140000B60704710B5642902D100F073F810BD40
:10015000002010BD1FB51FBD10B510BD00F056F931
:100160001146FFF7F7FF01F0B1FB00F06EF903B4A1
:10017000FFF7F2FF03BC01F0EFFA0000064800476A
:10018000FEE7FEE7FEE7FEE7FEE7FEE70348044979
:10019000044A054B70470000C1000000A80620205B
:1001A000A8082020A8072020A80720200FB4054970
:1001B00010B503AA029800F0E5F810BC08BC04B022
:1001C00018470000E0042020F8B50E460446002041
:1001D00020622046E1688847002829D0252802D0DF
:1001E0006268A16820E0E168204600278847050092
:1001F0001ED028464138192802D80127FF02203591
:100200003246204627602946FFF79CFF002808D089
:10021000012804D0F61DF608F6000836D9E7361D89
:10022000D7E762682846A1689047206A401CCFE75C
:10023000206AF8BDF7B5002575291068009914A645
:1002400011D0C046C046002802DA404211A608E09C
:10025000009909688A0701D50FA602E0490704D56D
:100260000EA6012501E0C046C046009F00242437A9
:1002700004E000F09BF830313955641C0028F8D1B7
:100280002B4632462146009800F023F8FEBD0000C0
:10029000000000002D0000002B00000020000000E6
:1002A00010B5044603E001F0FFFA401C08D02078A6
:1002B0000549641C0028F6D10A2001F0F5FA10BDAA
:1002C0000020C04310BD0000E004202070477047AC
:1002D0007047FFB504460D4681B024300090216878
:1002E000880604D51022E0699143216000E00120D6
:1002F000A84201DD471B00E000270498A1697A1994
:100300001018081AA0612078C00602D42046C04602
:10031000C046002608E003986268A168805D9047A7
:10032000206A401C761C206204988642F3DB207809
:10033000C0060AD52046C046C04606E06268A168ED
:1003400030209047206A401C206238467F1E0028DB
:10035000F4DC07E000986268A168405D9047206A7D
:10036000401C206228466D1E0028F3DC2046C04653
:10037000C0462078000602D5022005B0F0BD01205D
:10038000FBE70000084B70B50D467B4400F027F8F2
:100390000446284600F036F8002802D00020C0436A
:1003A00070BD204670BD00001B150000014680088E
:1003B000081A02091018020A1018020C1018C008B6
:1003C000820012185200891A01E0401C0A390A29D9
:1003D000FBD2704701694A1C02610878704700B57A
:1003E0008FB0029100210591054901937944039151
:1003F000114604906846FFF7E7FE0FB000BD00000D
:10040000E5FFFFFFC068802108407047754600F097
:1004100025F8AE46050069465346C008C00085462B
:1004200018B020B5FFF7B2FE60BCB6460026002724
:10043000C0C5C0C5C0C5C0C5C0C5C0C5C0C5C0C594
:10044000403D490849008D46704710B50446C046F6
:10045000C0462046FFF78BFE10BD000000487047E5
:1004600000002020811E091F00BFFCD27047F0B59C
:1004700082B0002A31D091235B01C3180220801A78
:100480000190009255420F2006020320DC6934429D
:1004900027D00F18FC1E24781C602C18022C1AD0B0
:1004A000DA6932421FD0BA1E12781A60019A121805
:1004B000032A10D0DA69324217D07A1E12781A60F5
:1004C000002C08D0DA69324208D00A5C1A60001D9C
:1004D0002A18032ADAD1009800E0002080B202B086
:1004E000F0BDC01EFAE7801EF8E7401EF6E70000E8
:1004F00010B50F4A835880210B4383508018012286
:10050000D2020F231B0244681C4094420BD0446863
:100510001C40944207D044681C40944203D0446875
:100520001C409442EFD102688A43026010BDC0466D
:100530003812000070B50A780C231A4001242403F5
:1005400005196E689E43B2186A6049780722114007
:10055000035993435918015170BD0000B0B51122E1
:10056000120283580C4C1C400B894D881D438B791B
:100570002B430A4D1D4063198350CB798C881C4353
:10058000097821435D239B001940801842689A43F3
:1005900051184160B0BDC04680CCFFFF7F330000E2
:1005A00010B50122120383180C785C6049788150E1
:1005B00010BD000070B5374A82184B685360364B47
:1005C000C3180878222857D8840001A52C59A746BB
:1005D0006F060000790600006F0600007906000033
:1005E000790600007906000079060000790600000F
:1005F00079060000790600007906000079060000FF
:1006000079060000790600007906000079060000EE
:100610005D060000790600005D0600007906000016
:1006200079060000790600007906000079060000CE
:1006300079060000790600007906000079060000BE
:1006400079060000790600007906000079060000AE
:100650005D060000790600005D0600000324240703
:100660001568A543012464072C19146004E00324D1
:1006700024071568A54315600C8AD460CC68074D23
:1006800025401C68064E264074191C60097A0143F7
:10069000116070BD04180000301800007777020068
:1006A0008888FDFF10B50122120383180C789C6026
:1006B0004B7883508978014A815010BD0C1100009D
:1006C000B0B51122120283580124A34383508B78C2
:1006D0000C881C438B882343094C1C408358094DCC
:1006E0001D402B1983508B79CC791C43097A214307
:1006F0007E231940801842689A4351184160B0BD6A
:1007000018670000E798FDFF10B501221203831857
:100710000C789C604978815010BD000010B582B003
:1007200001AB597018701F4C022220461946FFF782
:100730009EFE1D480168890608D40168890605D413
:100740000168890602D401688906F3D50146083993
:100750000A68164B134024330B60011F0A68144BC0
:100760001340144A9A180A600168490612D50168B4
:1007700049060FD5016849060CD501684906F3D42E
:1007800008E00168890608D40168890605D4016873
:10079000890602D401688906F3D52046FFF7A8FE32
:1007A00002B010BD00200F4018320F4000F8FFFFCC
:1007B000F8FF00F007000200F0B5024CF834802585
:1007C00002E0C04660002020002121702246083A45
:1007D00011702246103A11702246183A11702246C2
:1007E000203A11702246283A11702246303A117090
:1007F0002246383A11702246403A11702246483A51
:1008000011702246503A11702246583A1170224611
:10081000603A11702246683A11702246703A11709F
:100820002246783A11702246803A11702246883A60
:1008300011702246903A11702246983A1170224661
:10084000A03A11702246A83A11702246B03A1170AF
:100850002246B83A11702246C03A11702246C83A70
:1008600011702246D03A11702246D83A11702246B1
:10087000E03A11702246E83A11702246F03A1170BF
:100880002246F83A117001221302E418203D9BD150
:10089000014DF935802401E06000202029702E46AA
:1008A000083E31702E46103E31702E46183E317093
:1008B0002E46203E31702E46283E31702E46303E68
:1008C00031702E46383E31702E46403E31702E46F5
:1008D000483E31702E46503E31702E46583E3170A3
:1008E0002E46603E31702E46683E31702E46703E78
:1008F00031702E46783E31702E46803E31702E4645
:10090000883E31702E46903E31702E46983E3170B2
:100910002E46A03E31702E46A83E31702E46B03E87
:1009200031702E46B83E31702E46C03E31702E4694
:10093000C83E31702E46D03E31702E46D83E3170C2
:100940002E46E03E31702E46E83E31702E46F03E97
:100950003170EE18F83D2970203C35469ED1024D8D
:10096000FA35802402E0C0466000202029702E461F
:10097000083E31702E46103E31702E46183E3170C2
:100980002E46203E31702E46283E31702E46303E97
:1009900031702E46383E31702E46403E31702E4624
:1009A000483E31702E46503E31702E46583E3170D2
:1009B0002E46603E31702E46683E31702E46703EA7
:1009C00031702E46783E31702E46803E31702E4674
:1009D000883E31702E46903E31702E46983E3170E2
:1009E0002E46A03E31702E46A83E31702E46B03EB7
:1009F00031702E46B83E31702E46C03E31702E46C4
:100A0000C83E31702E46D03E31702E46D83E3170F1
:100A10002E46E03E31702E46E83E31702E46F03EC6
:100A20003170EE18F83D2970203C35469ED1FC4DC2
:100A3000FB35802429702E46083E31702E46103E2C
:100A400031702E46183E31702E46203E31702E46B3
:100A5000283E31702E46303E31702E46383E317081
:100A60002E46403E31702E46483E31702E46503E56
:100A700031702E46583E31702E46603E31702E4603
:100A8000683E31702E46703E31702E46783E317091
:100A90002E46803E31702E46883E31702E46903E66
:100AA00031702E46983E31702E46A03E31702E4653
:100AB000A83E31702E46B03E31702E46B83E3170A1
:100AC0002E46C03E31702E46C83E31702E46D03E76
:100AD00031702E46D83E31702E46E03E31702E46A3
:100AE000E83E31702E46F03E3170EE18F83D297028
:100AF000203C35469ED1CA4DFC35802429702E46B7
:100B0000083E31702E46103E31702E46183E317030
:100B10002E46203E31702E46283E31702E46303E05
:100B200031702E46383E31702E46403E31702E4692
:100B3000483E31702E46503E31702E46583E317040
:100B40002E46603E31702E46683E31702E46703E15
:100B500031702E46783E31702E46803E31702E46E2
:100B6000883E31702E46903E31702E46983E317050
:100B70002E46A03E31702E46A83E31702E46B03E25
:100B800031702E46B83E31702E46C03E31702E4632
:100B9000C83E31702E46D03E31702E46D83E317060
:100BA0002E46E03E31702E46E83E31702E46F03E35
:100BB0003170EE18F83D2970203C35469ED1E04D4D
:100BC000FD35802429702E46083E31702E46103E99
:100BD00031702E46183E31702E46203E31702E4622
:100BE000283E31702E46303E31702E46383E3170F0
:100BF0002E46403E31702E46483E31702E46503EC5
:100C000031702E46583E31702E46603E31702E4671
:100C1000683E31702E46703E31702E46783E3170FF
:100C20002E46803E31702E46883E31702E46903ED4
:100C300031702E46983E31702E46A03E31702E46C1
:100C4000A83E31702E46B03E31702E46B83E31700F
:100C50002E46C03E31702E46C83E31702E46D03EE4
:100C600031702E46D83E31702E46E03E31702E4611
:100C7000E83E31702E46F03E3170EE18F83D297096
:100C8000203C35469ED1AE4DFE35802429702E463F
:100C9000083E31702E46103E31702E46183E31709F
:100CA0002E46203E31702E46283E31702E46303E74
:100CB00031702E46383E31702E46403E31702E4601
:100CC000483E31702E46503E31702E46583E3170AF
:100CD0002E46603E31702E46683E31702E46703E84
:100CE00031702E46783E31702E46803E31702E4651
:100CF000883E31702E46903E31702E46983E3170BF
:100D00002E46A03E31702E46A83E31702E46B03E93
:100D100031702E46B83E31702E46C03E31702E46A0
:100D2000C83E31702E46D03E31702E46D83E3170CE
:100D30002E46E03E31702E46E83E31702E46F03EA3
:100D40003170EE18F83D2970203C35469ED17C4D1F
:100D5000FF35802429702E46083E31702E46103E05
:100D600031702E46183E31702E46203E31702E4690
:100D7000283E31702E46303E31702E46383E31705E
:100D80002E46403E31702E46483E31702E46503E33
:100D900031702E46583E31702E46603E31702E46E0
:100DA000683E31702E46703E31702E46783E31706E
:100DB0002E46803E31702E46883E31702E46903E43
:100DC00031702E46983E31702E46A03E31702E4630
:100DD000A83E31702E46B03E31702E46B83E31707E
:100DE0002E46C03E31702E46C83E31702E46D03E53
:100DF00031702E46D83E31702E46E03E31702E4680
:100E0000E83E31702E46F03E3170EE18F83D297004
:100E1000203C35469ED1D30292039A4C8E4D05E07C
:100E200060002020491C082900D188E0236122614C
:100E3000B0260E43F6B22E632E68F60608D52E684D
:100E4000F60605D52E68F60602D52E68F606F3D40A
:100E5000226023602361226100262E632F68FF0633
:100E600008D52F68FF0605D52F68FF0602D52F6825
:100E7000FF06F3D4226023602361226110272F63D1
:100E80002F68FF0608D52F68FF0605D52F68FF06D7
:100E900002D52F68FF06F3D42260236004E02260AD
:100EA0002360361D802EBDD0F7002548C719785C19
:100EB0002360226128632868C00608D52868C00618
:100EC00005D52868C00602D52868C006F3D422607C
:100ED00023607F18387A2360226128632868C0065F
:100EE00008D52868C00605D52868C00602D5286838
:100EF000C006F3D422602360387C2360226128631B
:100F00002868C00608D52868C00605D52868C00628
:100F100002D52868C006F3D422602360387E23609F
:100F2000226128632868C006B9D52868C006B6D5EE
:100F30002868C006B3D52868C006F3D4AFE7F0BD73
:100F40006000202010B50122D1029203414B0128FC
:100F500013D0002825D119601A603F48A6240463E5
:100F60000468E4061AD50468E40617D50468E406A4
:100F700014D50468E406F3D410E019601A6036480A
:100F8000A72404630468E40608D50468E40605D5CC
:100F90000468E40602D50468E406F3D4103B1A6042
:100FA000196010BD10B50122D1029203294B01280E
:100FB00027D000284DD119601A602748C82404633F
:100FC0000468E40608D50468E40605D50468E40668
:100FD00002D50468E406F3D41C46103C226021606C
:100FE00019601A60A12404630468E4062ED504681D
:100FF000E4062BD50468E40628D50468E406F3D497
:1010000024E019601A601448C02404630468E406EC
:1010100008D50468E40605D50468E40602D504682A
:10102000E406F3D41C46103C2260216019601A606B
:10103000A02404630468E40608D50468E40605D522
:101040000468E40602D50468E406F3D4103B1A6091
:10105000196010BDA0320A4010B14640F0B581B011
:101060000124A602074D2E61C820009000F014FC58
:101070002E60E6022E61A7032F61FE4CAE20206396
:1010800002E0C04690320A402068C00608D52068B9
:10109000C00605D52068C00602D52068C006F3D476
:1010A0002F602E602E612F61002222632068C0060F
:1010B00008D52068C00605D52068C00602D520687E
:1010C000C006F3D42F602E602E612F6110202063A4
:1010D0002068C00608D52068C00605D52068C0066F
:1010E00002D52068C006F3D42F602E602E612F61D8
:1010F000402121632068C00608D52068C00605D5B8
:101100002068C00602D52068C006F3D42F602E6088
:101110002E612F61812020632068C00608D52068D9
:10112000C00605D52068C00602D52068C006F3D4E5
:101130002F602E602E612F61CF2020632068C006B3
:1011400008D52068C00605D52068C00602D52068ED
:10115000C006F3D42F602E602E612F61A120206382
:101160002068C00608D52068C00605D52068C006DE
:1011700002D52068C006F3D42F602E602E612F6147
:10118000009820632068C00608D52068C00605D5F1
:101190002068C00602D52068C006F3D42F602E60F8
:1011A0002E612F61A62020632368DB0608D5236803
:1011B000DB0605D52368DB0602D52368DB06F3D4FE
:1011C0002F602E602E612F61A82323632368DB0626
:1011D00008D52368DB0605D52368DB0602D523681E
:1011E000DB06F3D42F602E602E612F613F23236333
:1011F0002368DB0608D52368DB0605D52368DB06F4
:1012000002D52368DB06F3D42F602E602E612F6198
:10121000D32323632368DB0608D52368DB0605D5C3
:101220002368DB0602D52368DB06F3D42F602E602B
:101230002E612F6122632268D20608D52268D20669
:1012400005D52268D20602D52268D206F3D42F60D3
:101250002E602E612F61D52222632268D20608D526
:101260002268D20605D52268D20602D52268D206A7
:10127000F3D42F602E602E612F61802222632268BA
:10128000D20608D52268D20605D52268D20602D534
:101290002268D206F3D42F602E602E612F61D922EE
:1012A00022632268D20608D52268D20605D52268B4
:1012B000D20602D52268D206F3D42F602E602E61AA
:1012C0002F61F12222632268D20608D52268D20655
:1012D00005D52268D20602D52268D206F3D42F6043
:1012E0002E602E612F61DA2222632268D20608D591
:1012F0002268D20605D52268D20602D52268D20617
:10130000F3D42F602E602E612F6112222263226897
:10131000D20608D52268D20605D52268D20602D5A3
:101320002268D206F3D42F602E602E612F61DB225B
:1013300022632268D20608D52268D20605D5226823
:10134000D20602D52268D206F3D42F602E602E6119
:101350002F6121632168C90608D52168C90605D512
:101360002168C90602D52168C906F3D42F602E6012
:101370002E612F61202121632168C90608D52168CB
:10138000C90605D52168C90602D52168C906F3D466
:101390002F602E602E612F61022121632168C90612
:1013A00008D52168C90605D52168C90602D5216876
:1013B000C906F3D42F602E602E612F618D21216329
:1013C0002168C90608D52168C90605D52168C9065E
:1013D00002D52168C906F3D42F602E602E612F61DB
:1013E000142121632168C90608D52168C90605D5DD
:1013F0002168C90602D52168C906F3D42F602E6082
:101400002E612F61A42121632168C90608D52168B6
:10141000C90605D52168C90602D52168C906F3D4D5
:101420002F602E602E612F6120632068C00608D5D2
:101430002068C00605D52068C00602D52068C00611
:10144000F3D42F602E60FFF7B7F92E612F61AF2024
:1014500020632068C00608D52068C00605D520682E
:10146000C00602D52068C006F3D42F602E6001B0FC
:10147000F0BDC04610B146401249CA1C1248426035
:10148000026001225206436813434360036813431A
:101490000360822282614A1CC2618322C26282622C
:1014A0008A1C4262812242678267084B5A60416609
:1014B00019600263426302640548064901600163E2
:1014C0007047C046810004003C804240C4804240D6
:1014D000A0320A40004C4C0080B5E9481049FFF7A3
:1014E00029F8032041020F4802680A4302600121E3
:1014F0000A0203681343036000224261072242622A
:10150000836B934383631202836B93438363826A87
:10151000042313438362826A0A43826280BDC04609
:10152000D819000000320F4010B50D4C0D4920466F
:10153000FFF736F80C492046FFF710F80B484168D2
:101540000B4A0A40511C4160816812220A432D2136
:101550008A438260016801220A43026010BDC046CE
:1015600000A04640DA190000DC19000004B1464032
:1015700000FCFFFF0C48002101600320C1430B4821
:101580000246083A13680B40136001680122914338
:101590000160110203688B4303601103001F02689E
:1015A0000A4302607047C04608030B4008010B4025
:1015B00010B5084C08492046FFF774F80749204643
:1015C000FEF7F8FF06480168012211430160054853
:1015D000026010BD00008640E6190000EC19000012
:1015E000281086400811864010B5154C1549204634
:1015F000FFF78AF814492046FFF762F80320C10379
:10160000124802688A4302600169114A0A40911C2B
:10161000016141690B220A4334218A4342614168D6
:101620000122114043689343591841609102094BCC
:101630001C680C431C6001681143016010BDC0466A
:1016400000801040001A0000021A000000911040B3
:101650000000FFFF2890104080B500F019F8FFF758
:101660000BFFFFF787FFFFF7A3FFFFF735FFFFF73C
:10167000BBFFFFF759FF2420034900220A54B8207A
:1016800002490A5480BDC046340520205C05202054
:1016900070B50C480C4941600C4A51600C4B5960C4
:1016A0000C4C61600C4D69600C4E71600C4901601E
:1016B000116019602160296031601020FEF7D2FEB0
:1016C00070BDC04600080A40030000B100280A406F
:1016D0000008864000280F400088104000A84640BF
:1016E0000100002610B512480068C0B20B281ED1B8
:1016F0007548C1690F4A13887E2B13D813885C1C68
:1017000014800D4AD1540268D20708D00268D2076B
:1017100005D00268D20702D00268D207F3D1C9B25D
:10172000816101E00020108004480121017010BD9A
:1017300020901040A206202020062020A006202075
:101740000120C00302490860024908607047C04692
:1017500080E200E000E100E070470000F0B589B0F1
:1017600005AC0EC4039008A9302008704448012439
:101770002246FEF77CFE434801680822914301603F
:10178000414E11980490109802900F9801900E9875
:1017900000903068800608D43068800605D4306830
:1017A000800602D430688006F3D53746083F386893
:1017B000364D284024303860301F036834490B40D0
:1017C000344A9B18036033685B0612D533685B06A6
:1017D0000FD533685B060CD533685B06F3D408E09D
:1017E00033689B0608D433689B0605D433689B0690
:1017F00002D433689B06F3D53B682B4025251D4357
:101800003D6003680B40134303603068400612D507
:10181000306840060FD5306840060CD53068400669
:10182000F3D408E03068800608D43068800605D418
:101830003068800602D430688006F3D57068C1B283
:10184000C909039A11704106C90F059A11708106E2
:10185000C90F069A1170C106C90F079A11700107C6
:10186000C90F009A11704107C90F019A11708107C1
:10187000C90F029A117004400498047009B0F0BDB9
:1018800000200F4028300F4018320F4000F8FFFFB3
:10189000F8FF00F00700010080B57D2109024843F0
:1018A000FEF7E0FD80BD000007490A68D20708D0B6
:1018B0000A68D20705D00A68D20702D00A68D207A0
:1018C000F3D1C2B28A61704708911040FFF7C4FE9D
:1018D000FFF736FFFFF7C2FB00242046FFF732FB7D
:1018E0002046FFF75FFB0EA0FEF7DAFC0125284635
:1018F0002946FEF713FFC8263046FFF7CDFF2846DE
:101900002146FEF70BFF3046FFF7C6FF06A0FEF7A5
:10191000C7FC00F00DF87D208000FFF7BDFFF8E761
:1019200073746172740D00006F6B6F6B0D000000BB
:10193000F0B585B013480390134802901348019006
:1019400013480090134C144D144E154F2046294651
:1019500032463B46FFF702FF33782A782178387801
:101960000B4C2478094D2D78074E3678054F3F787B
:10197000009001940295039604970AA0FEF716FCC6
:1019800005B0F0BD1F0620201E0620201D062020C9
:101990001C06202018062020190620201A062020C8
:1019A0001B06202078313A25642C78323A25642CA5
:1019B00078333A25642C78343A25642C78353A25E6
:1019C000642C78363A25642C78373A25642C78389C
:1019D0003A25640D0A000000080008000400000118
:1019E0000000071000000800630000002200000053
:1019F000FF180000000000000000000000000000D0
:101A0000040000001800000000300000000000008A
:101A1000201A000000002020A80800002801000073
:04000005000000C136
:00000001FF
