:020000040000FA
:10000000C80920209D010000A1010000A3010000FB
:1000100000000000000000000000000000000000E0
:10002000000000000000000000000000A50100002A
:100030000000000000000000A7010000A90100006E
:10004000AB01000075100000AB010000AB01000027
:10005000AB010000AB010000AB010000AB010000F0
:1000600000000000AB010000AB0100000000000038
:1000700000000000AB010000AB0100004D220000B9
:1000800009220000AB010000AB010000AB01000041
:10009000AB010000AB010000000000000000000008
:1000A000AB010000AB0100000000000000000000F8
:1000B000AB01000000000000AB010000AB0100003C
:1000C00000F002F800F05BF812A030C808382418DD
:1000D0002D18AC4201D100F052F80FCCA246AB462D
:1000E0000CA730CF2D1B083F3F197C427F1E544484
:1000F0002D090426F441641EAC4201D300F03FF800
:100100000126334200D0FB1A3343984754465D46DC
:10011000DFE700009C290000BC290000000000006F
:10012000103A02D378C878C1FAD8520701D330C840
:1001300030C101D504680C60704700000000000069
:100140007047000000000000002300240025002666
:10015000103A01D378C1FBD8520700D330C100D583
:100160000B6070471FB500F065FC04000020002103
:1001700002F024FB401C60601FBD10B510BD00F0F4
:1001800005FC1146FFF7EEFF02F0D2F800F026FC66
:1001900003B4FFF7F2FF03BC02F0B0F806480047D3
:1001A000FEE7FEE7FEE7FEE7FEE7FEE70348044959
:1001B000044A054B70470000C1000000C80720201A
:1001C000C8092020C8082020C80820200FB400B586
:1001D0008DB010A909900B900020C04300910A90A7
:1001E00000200C90074878440690074878446A46F7
:1001F00007900F9909A800F099F90DB008BC04B058
:10020000184700006703000081030000FFB51D468A
:100210000027FF4383B05C68002001909E68A969B5
:1002200004987F1C88470090296A88470028F6D1E7
:100230000098401C0CD0032040028443002E19DD9E
:10024000600614D500982B2809D02D280FD103E083
:100250000020C04307B0F0BD012080020443A9691B
:1002600004987F1C8847761E002E009002DD0098BF
:10027000302803D00598002825D035E00120A96951
:1002800040020443761E04987F1C8847002E00908D
:1002900003DD782805D0582803D00598002810D011
:1002A00022E00598002801D010281DD10120A9695D
:1002B00040028443761E04987F1C884700901020DB
:1002C00002E0082000E00A2005900DE00121059AD7
:1002D00049020C430199761E514308180190A969FF
:1002E00004987F1C88470090002E05DD0599009832
:1002F00000F006F90028E9DAE96904988847A005C2
:1003000002D40120C043A5E7E00722D1600611D541
:100310006005019800D5404229680A1D2A600968D5
:10032000220501D5087014E0220701D5088010E0ED
:1003300008600EE02868011D29600068210502D5CB
:100340000199017005E02107019901D5018000E0C4
:10035000016038467EE7FFB5144683B000200026D2
:1003600000905068019091699768049888470C99AB
:1003700005460698084305D009E0A1690498761C53
:1003800088470546216A284688470028F5D1681C19
:1003900003D00198C00704D017E00020C04307B085
:1003A000F0BD2068011D2160006800900DE00198FB
:1003B000C00704D1009805700098401C0090A16906
:1003C000761C04987F1E88470546002F1CDD681C9C
:1003D0001AD0069800280FD0E817C00E4019411116
:1003E00040098A000699400151182A1A096801201B
:1003F00090400142DBD107E00C980028D7D1284675
:10040000216A88470028D2D0E169049888470C986F
:10041000002807D1002E05DD0198C00702D1009801
:1004200000210170A068B84204DD0C98002804D0B7
:10043000002F02D00120C043B1E73046AFE70000F3
:1004400010B5044603E001F061FF401C08D020789D
:100450000549641C0028F6D10A2001F057FF10BDA1
:100460000020C04310BD00001805202070477047D1
:1004700070470102C21504D00123DB071943002A8B
:100480000ADB9E239A1A02D40846D0407047FF2206
:1004900041001206914201D900207047C017C043A5
:1004A00070471F22030C02D10F2200041CD0030E40
:1004B00001D10002083A030F01D10001121F830F7E
:1004C00001D18000921E002801DB4000521ED2059F
:1004D0005118021251181922904004D3491C0028C7
:1004E00001D14908490008467047C10FC90700D02B
:1004F0004042012292071143D3E701218907D0E747
:100500003A2800D23038202302469A43412A01D3A8
:1005100010463738884201D30020C043704700009E
:1005200002685118137801601846704710B5D16001
:1005300005497944516105497944116200211161ED
:10054000114600F031F810BDEBFFFFFF590000002D
:100550004268002A08D001680B78491C002B03D0A0
:10056000521E06C0184670470121C160881E7047A0
:100570004268002A0BD0C3680168002B07D183684A
:100580008B4204D0491E521C06C000207047002038
:10059000C043704710B5044600F018FA0068005DCB
:1005A000C007C00F10BD0000F3B50C468FB000208F
:1005B0000C90012000260E9008460C3003906269D2
:1005C000039801219047051E2ED0252D2DD0216A9C
:1005D0008847002818D06269039801219047216A52
:1005E00088470028F7D16269411E0398904700E0D0
:1005F000761CA1690F988847216A88470028F7D19F
:10060000E1690F988847DAE7A1690F988847A842FF
:10061000074601D1761CD2E7E1690F9888477F1C15
:1006200002D10C98002877D06BE16269039800270B
:100630003D46394690472A280CD16269039801212A
:100640009047012506E00A214F433F18303FEBD485
:100650001020054362690398012190470146303913
:100660000A2903D2AC498F42DEDCECE7E90600D46C
:10067000AA4F6C280AD04C2810D0682824D06A28A9
:100680002ED074280CD07A280AD00DE06269039825
:10069000012190476C2823D004211CE02020054331
:1006A0006269039801219047A760652865604FD073
:1006B00026DC582839D01ADC452849D012DC2528F8
:1006C00034D04128B0D143E06269039801219047BA
:1006D000682802D008210D43E6E70120C002DEE7CA
:1006E0000220DCE7462833D047289DD130E05B2844
:1006F00070D061282CD063286CD0642894D161E03C
:100700006F284FD009DC662822D0672820D06928BE
:1007100026D06E2817D12EE0EFE070284DD0732838
:100720006FD075284ED078280DD154E0A1690F986C
:1007300088472528054600D16CE7E1690F9888476E
:100740006D1C00D16DE7DCE00A224CE00A2252E089
:10075000012023466A460F99C043C046C046C5E003
:1007600040212846234608436060A80701D500229F
:1007700039E000223FE0E80700D020E72068011DB3
:1007800021600068290501D5067018E7290701D501
:10079000068014E7A90703D5F117066041600EE74C
:1007A00006600CE740212846234608436060A807FE
:1007B00001D5082217E008221DE0594928460840C3
:1007C000606016E040212846234608436060A80781
:1007D000BCD5B9E715E04021284608436060A8076A
:1007E00007D52346102201200F99C043C046C046BA
:1007F0007CE01022234601200F99C043FFF706FD3D
:1008000074E0002163280B460191009102910D9143
:1008100002D05B2807D03BE0E80601D40120A060AD
:100820000120009034E0E06801210D906269039896
:1008300090475E2807D101200190E06801210D90CA
:100840006269039890472169002906D10B4604AAE2
:100850008F00491C0829D351FADB002851D02169A7
:10086000002926D00298401C029062690398012159
:1008700090475D28F1D10198002808D0002004ABF2
:100880008100401C5A58D24308285A50F8DB04AB68
:100890002069002820791CD04007029A00980D9BFF
:1008A0000092224602901F480F991DD5C046C046AF
:1008B0001CE0C117C90E09184A114909930004AA7E
:1008C0009A184901411A13680120884003431360B4
:1008D000CBE74007224613480F9902D5C046C046D1
:1008E00004E0FFF738FD01E0C046C04600280ADA00
:1008F000401C06D10E98002803D00020C04311B040
:10090000F0BD0C98FBE7E90702D10C99491C0C914A
:10091000361800200E9052E6CCCCCC0CFFFFFF7FA7
:10092000F1F7FFFFFEFFFFFF10B5FF231B0644009A
:100930009C421DD84C009C421AD80346124A0B43D5
:1009400007D4401A02D3EFF3008010BDEFF300800C
:1009500010BD081A03D3EFF30080904305E0EFF3D6
:10096000008001219043C907084380F3008810BD2F
:100970000D231B041A4204D01146002000F036F863
:1009800010BD00F04BF810BD00000090754600F05F
:100990004DF8AE46050069465346C008C00085467E
:1009A00018B020B5FFF702FC60BCB6460026002751
:1009B000C0C5C0C5C0C5C0C5C0C5C0C5C0C5C0C50F
:1009C000403D490849008D467047000010B500F0D1
:1009D00031F8001D10BD00BFE51D000010B5044634
:1009E000C046C0462046FFF7D3FB10BDC80212D553
:1009F0004803400F002804D0C803C04301218840A9
:100A00007047EFF300800001000903210907084344
:100A100080F30088704700207047000010B502483E
:100A200000F00CF810BD00000000C07F00487047C7
:100A300018002020004870473800202010B50C46D0
:100A40001107090F092904D00A290AD008290CD155
:100A500004E011460820FFF7C9FF06E0510606D55D
:100A600001E0510601D50120C007214610BDD10685
:100A700007D501010909CC084907000E0006044307
:100A800009E0410F20024907000A0143200E000639
:100A90001D22D14101430846E7E7000082078B078A
:100AA0009A423FD170B5920F0AD0032402780B7896
:100AB000401C491C002A33D09A4231D12042F5D142
:100AC000214EF40104C808C9951B9543254018D14F
:100AD0009A420FD104C808C9951B9543254010D1EF
:100AE0009A4207D104C808C9951B9543254008D1EF
:100AF0009A42E7D012BA1BBA01209A4200D2404271
:100B000070BD12BA1BBA2DBA18241000E0401900AB
:100B1000E140401A05D12E00E64002D1083CF4D154
:100B2000D01A70BD02780B78401C491C002A09D0ED
:100B30009A4207D102780B78401C491C002A01D048
:100B40009A42EFD0D01A70470101010170B5012817
:100B500015D8CA087D2A12D22B4B1C461034012806
:100B6000254600D01D46012296032E60012800D0A4
:100B70002346D0031860254800F0C8F970BD12481C
:100B8000FFF75EFC70BDC04670B5012816D8CA08D4
:100B90007D2A13D21C4A1346103301281D4600D06B
:100BA0001546012426032E60012800D01A46600352
:100BB00010600448002200F0A9F970BD0248FFF758
:100BC0003FFC70BD00808640902A000070B501286F
:100BD00016D8CA087D2A13D20B4A134610330128AF
:100BE0001D4600D01546012426062E60012800D09F
:100BF0001A46600610600548002200F087F970BDB3
:100C000003A0FFF71DFC70BD90120A400020864033
:100C10000A434F5F436F6E74726F6C207061726134
:100C20006D65746572206572726F722121210D00ED
:100C3000811E091F00BFFCD270470000B0B5112211
:100C4000120283580C4C1C400B894D881D438B7934
:100C50002B430A4D1D4063198350CB798C881C436C
:100C6000097821435D239B001940801842689A430C
:100C700051184160B0BDC04680CCFFFF7F330000FB
:100C800010B50122120383180C785C6049788150FA
:100C900010BD0000F0B583B00B794A79002A2AD044
:100CA0001A4A1B4C1B4F21252D01202B00D07035DB
:100CB000861802190092C219002B00D188251768E6
:100CC000464C27407F191760576827407D195560AB
:100CD0003568804F3D40356075683D407560002542
:100CE000009C256065608F24E443156925401561EB
:100CF00055692540556101AA13718B7953710968B3
:100D00000191114600F008F803B0F0BD381800005A
:100D10005818000078180000F0B584B06B4A8218AB
:100D20000292734BC618784BC21800922A4BC41813
:100D30000A7901910D68294F202A03920AD0254B88
:100D4000C018002A17D16B1E029A536023683B40DB
:100D5000882517E0681E029A506020683840204BB2
:100D600018432060606838401843606001204507E0
:100D70001C4F104608E06B08029A536023683B4002
:100D80000525ED012B432360009903683B402B436D
:100D9000036030684F4B18403060706818407060D6
:100DA0000020086048608F20C0432369034023610E
:100DB0006369034063610198407903990843BD2149
:100DC00001401068084B0340C818801C106004B034
:100DD000F0BDC046741800007018000024493E00A1
:100DE00001040000FFFFFFCF4000FFCF70B5374A7E
:100DF00082184B6853603E4BC3180878222857D896
:100E0000840001A52C59A746A70E0000B10E0000D2
:100E1000A70E0000B10E0000B10E0000B10E0000E0
:100E2000B10E0000B10E0000B10E0000B10E0000C6
:100E3000B10E0000B10E0000B10E0000B10E0000B6
:100E4000B10E0000B10E0000950E0000B10E0000C2
:100E5000950E0000B10E0000B10E0000B10E0000B2
:100E6000B10E0000B10E0000B10E0000B10E000086
:100E7000B10E0000B10E0000B10E0000B10E000076
:100E8000B10E0000B10E0000950E0000B10E000082
:100E9000950E0000032424071568A5430124640768
:100EA0002C19146004E0032424071568A543156079
:100EB0000C8AD460CC68064D25401C68054E26403F
:100EC00074191C60097A0143116070BD0418000098
:100ED000777702008888FDFF10B507239B0419402F
:100EE00092008018024A84589C436118815010BDBA
:100EF0003018000010B5029CA400001911431943DA
:100F0000014A815010BDC046501800009200801860
:100F1000014A81507047C0461018000010B50122E8
:100F2000120383180C789C604B7883508978014AAF
:100F3000815010BD0C110000B0B51122120283586F
:100F40000124A34383508B780C881C438B88234354
:100F5000094C1C408358094D1D402B1983508B7937
:100F6000CC791C43097A21437E23194080184268BA
:100F70009A4351184160B0BD18670000E798FDFF23
:100F800010B50122120383180C789C6049788150B7
:100F900010BD000070B5012815D8CA087D2A12D2EC
:100FA0000B4B1C4610340128254600D01D4601225B
:100FB00016022E60012800D0234650021860054812
:100FC000FFF7A4FF70BD04A0FFF73AFA70BDC0465A
:100FD00090120A40008086400A444F5F436F6E744F
:100FE000726F6C20706172616D65746572206572DC
:100FF000726F722121210D00554800210160554872
:10100000016055480160554801607047401E032843
:1010100004D8800002A1085800687047002070477B
:101020007C002020840020208C00202094002020A0
:1010300080B5064802210160054A116001210904BA
:101040000160116003A0FFF7FBF980BD80E200E0C2
:1010500000E100E04D6F746F7220696E6974696120
:101060006C697A6564207375636365737366756C08
:101070006C790D0070B501218C0633480246103A98
:1010800013681A01314A09D4234213D0CD061668D9
:101090002F4C24682E420AD1641C09E016682C4D9E
:1010A0002D68264201D16C1E02E06C1C00E0641E1B
:1010B000274D2C600C07002B08D4234212D0156852
:1010C000244C2468002D0AD4641C09E01668214DC4
:1010D0002D68264201D16C1E02E06C1C00E0641EEB
:1010E0001C4D2C608C041D0608D4234212D01568B8
:1010F000194C24682D060AD4641C09E01668164DA4
:101100002D68264201D16C1E02E06C1C00E0641EBA
:10111000114D2C60CC055D0009D423420FD08B0704
:1011200012680E4909681A4206D0491E05E0126885
:101130000A4909682242F8D0491C084A116001682E
:10114000074A0A43026070BD48100A4080130A40F3
:10115000780020208000202088002020900020207F
:10116000800084DCF0B5024CF834802502E0C046F3
:1011700098002020002121702246083A1170224652
:10118000103A11702246183A11702246203A117016
:101190002246283A11702246303A11702246383AD7
:1011A00011702246403A11702246483A1170224688
:1011B000503A11702246583A11702246603A117026
:1011C0002246683A11702246703A11702246783AE7
:1011D00011702246803A11702246883A11702246D8
:1011E000903A11702246983A11702246A03A117036
:1011F0002246A83A11702246B03A11702246B83AF7
:1012000011702246C03A11702246C83A1170224627
:10121000D03A11702246D83A11702246E03A117045
:101220002246E83A11702246F03A11702246F83A06
:10123000117001221302E418203D9BD1014DF935B4
:10124000802401E09800202029702E46083E31704D
:101250002E46103E31702E46183E31702E46203EEE
:1012600031702E46283E31702E46303E31702E466B
:10127000383E31702E46403E31702E46483E317029
:101280002E46503E31702E46583E31702E46603EFE
:1012900031702E46683E31702E46703E31702E46BB
:1012A000783E31702E46803E31702E46883E317039
:1012B0002E46903E31702E46983E31702E46A03E0E
:1012C00031702E46A83E31702E46B03E31702E460B
:1012D000B83E31702E46C03E31702E46C83E317049
:1012E0002E46D03E31702E46D83E31702E46E03E1E
:1012F00031702E46E83E31702E46F03E3170EE18C9
:10130000F83D2970203C35469ED1024DFA358024A7
:1013100002E0C0469800202029702E46083E317019
:101320002E46103E31702E46183E31702E46203E1D
:1013300031702E46283E31702E46303E31702E469A
:10134000383E31702E46403E31702E46483E317058
:101350002E46503E31702E46583E31702E46603E2D
:1013600031702E46683E31702E46703E31702E46EA
:10137000783E31702E46803E31702E46883E317068
:101380002E46903E31702E46983E31702E46A03E3D
:1013900031702E46A83E31702E46B03E31702E463A
:1013A000B83E31702E46C03E31702E46C83E317078
:1013B0002E46D03E31702E46D83E31702E46E03E4D
:1013C00031702E46E83E31702E46F03E3170EE18F8
:1013D000F83D2970203C35469ED1FC4DFB358024DC
:1013E00029702E46083E31702E46103E31702E4632
:1013F000183E31702E46203E31702E46283E317008
:101400002E46303E31702E46383E31702E46403EDC
:1014100031702E46483E31702E46503E31702E4679
:10142000583E31702E46603E31702E46683E317017
:101430002E46703E31702E46783E31702E46803EEC
:1014400031702E46883E31702E46903E31702E46C9
:10145000983E31702E46A03E31702E46A83E317027
:101460002E46B03E31702E46B83E31702E46C03EFC
:1014700031702E46C83E31702E46D03E31702E4619
:10148000D83E31702E46E03E31702E46E83E317037
:101490002E46F03E3170EE18F83D2970203C35465E
:1014A0009ED1CA4DFC35802429702E46083E3170ED
:1014B0002E46103E31702E46183E31702E46203E8C
:1014C00031702E46283E31702E46303E31702E4609
:1014D000383E31702E46403E31702E46483E3170C7
:1014E0002E46503E31702E46583E31702E46603E9C
:1014F00031702E46683E31702E46703E31702E4659
:10150000783E31702E46803E31702E46883E3170D6
:101510002E46903E31702E46983E31702E46A03EAB
:1015200031702E46A83E31702E46B03E31702E46A8
:10153000B83E31702E46C03E31702E46C83E3170E6
:101540002E46D03E31702E46D83E31702E46E03EBB
:1015500031702E46E83E31702E46F03E3170EE1866
:10156000F83D2970203C35469ED1E04DFD35802464
:1015700029702E46083E31702E46103E31702E46A0
:10158000183E31702E46203E31702E46283E317076
:101590002E46303E31702E46383E31702E46403E4B
:1015A00031702E46483E31702E46503E31702E46E8
:1015B000583E31702E46603E31702E46683E317086
:1015C0002E46703E31702E46783E31702E46803E5B
:1015D00031702E46883E31702E46903E31702E4638
:1015E000983E31702E46A03E31702E46A83E317096
:1015F0002E46B03E31702E46B83E31702E46C03E6B
:1016000031702E46C83E31702E46D03E31702E4687
:10161000D83E31702E46E03E31702E46E83E3170A5
:101620002E46F03E3170EE18F83D2970203C3546CC
:101630009ED1AE4DFE35802429702E46083E317075
:101640002E46103E31702E46183E31702E46203EFA
:1016500031702E46283E31702E46303E31702E4677
:10166000383E31702E46403E31702E46483E317035
:101670002E46503E31702E46583E31702E46603E0A
:1016800031702E46683E31702E46703E31702E46C7
:10169000783E31702E46803E31702E46883E317045
:1016A0002E46903E31702E46983E31702E46A03E1A
:1016B00031702E46A83E31702E46B03E31702E4617
:1016C000B83E31702E46C03E31702E46C83E317055
:1016D0002E46D03E31702E46D83E31702E46E03E2A
:1016E00031702E46E83E31702E46F03E3170EE18D5
:1016F000F83D2970203C35469ED17C4DFF35802435
:1017000029702E46083E31702E46103E31702E460E
:10171000183E31702E46203E31702E46283E3170E4
:101720002E46303E31702E46383E31702E46403EB9
:1017300031702E46483E31702E46503E31702E4656
:10174000583E31702E46603E31702E46683E3170F4
:101750002E46703E31702E46783E31702E46803EC9
:1017600031702E46883E31702E46903E31702E46A6
:10177000983E31702E46A03E31702E46A83E317004
:101780002E46B03E31702E46B83E31702E46C03ED9
:1017900031702E46C83E31702E46D03E31702E46F6
:1017A000D83E31702E46E03E31702E46E83E317014
:1017B0002E46F03E3170EE18F83D2970203C35463B
:1017C0009ED1D30292039A4C8E4D05E098002020C2
:1017D000491C082900D188E023612261B0260E430C
:1017E000F6B22E632E68F60608D52E68F60605D5E5
:1017F0002E68F60602D52E68F606F3D42260236022
:101800002361226100262E632F68FF0608D52F680A
:10181000FF0605D52F68FF0602D52F68FF06F3D413
:10182000226023602361226110272F632F68FF0647
:1018300008D52F68FF0605D52F68FF0602D52F684B
:10184000FF06F3D42260236004E022602360361D8B
:10185000802EBDD0F7002548C719785C236022612F
:1018600028632868C00608D52868C00605D52868FA
:10187000C00602D52868C006F3D4226023607F1812
:10188000387A2360226128632868C00608D5286852
:10189000C00605D52868C00602D52868C006F3D45E
:1018A00022602360387C2360226128632868C00698
:1018B00008D52868C00605D52868C00602D528685E
:1018C000C006F3D422602360387E2360226128633F
:1018D0002868C006B9D52868C006B6D52868C006ED
:1018E000B3D52868C006F3D4AFE7F0BD9800202038
:1018F00010B50122D1029203414B012813D00028D8
:1019000025D119601A603F48A62404630468E406E0
:101910001AD50468E40617D50468E40614D50468EB
:10192000E406F3D410E019601A603648A724046373
:101930000468E40608D50468E40605D50468E406EE
:1019400002D50468E406F3D4103B1A60196010BD98
:1019500010B50122D1029203294B012827D000287B
:101960004DD119601A602748C82404630468E4064E
:1019700008D50468E40605D50468E40602D50468C1
:10198000E406F3D41C46103C2260216019601A6002
:10199000A12404630468E4062ED50468E4062BD56C
:1019A0000468E40628D50468E406F3D424E019604A
:1019B0001A601448C02404630468E40608D5046867
:1019C000E40605D50468E40602D50468E406F3D409
:1019D0001C46103C2260216019601A60A024046338
:1019E0000468E40608D50468E40605D50468E4063E
:1019F00002D50468E406F3D4103B1A60196010BDE8
:101A0000A0320A4010B14640F0B581B00124A602D0
:101A1000074D2E61C820009000F071FC2E60E60298
:101A20002E61A7032F61FE4CAE20206302E0C0466A
:101A300090320A402068C00608D52068C00605D547
:101A40002068C00602D52068C006F3D42F602E603F
:101A50002E612F61002222632068C00608D520680D
:101A6000C00605D52068C00602D52068C006F3D49C
:101A70002F602E602E612F61102020632068C00629
:101A800008D52068C00605D52068C00602D52068A4
:101A9000C006F3D42F602E602E612F614021216398
:101AA0002068C00608D52068C00605D52068C00695
:101AB00002D52068C006F3D42F602E602E612F61FE
:101AC000812020632068C00608D52068C00605D59F
:101AD0002068C00602D52068C006F3D42F602E60AF
:101AE0002E612F61CF2020632068C00608D52068B2
:101AF000C00605D52068C00602D52068C006F3D40C
:101B00002F602E602E612F61A12020632068C00607
:101B100008D52068C00605D52068C00602D5206813
:101B2000C006F3D42F602E602E612F6100982063D1
:101B30002068C00608D52068C00605D52068C00604
:101B400002D52068C006F3D42F602E602E612F616D
:101B5000A62020632368DB0608D52368DB0605D5AD
:101B60002368DB0602D52368DB06F3D42F602E60E2
:101B70002E612F61A82323632368DB0608D5236821
:101B8000DB0605D52368DB0602D52368DB06F3D424
:101B90002F602E602E612F613F2323632368DB06B5
:101BA00008D52368DB0605D52368DB0602D5236844
:101BB000DB06F3D42F602E602E612F61D3232363C5
:101BC0002368DB0608D52368DB0605D52368DB061A
:101BD00002D52368DB06F3D42F602E602E612F61BF
:101BE00022632268D20608D52268D20605D522686B
:101BF000D20602D52268D206F3D42F602E602E6161
:101C00002F61D52222632268D20608D52268D20627
:101C100005D52268D20602D52268D206F3D42F60F9
:101C20002E602E612F61802222632268D20608D5A1
:101C30002268D20605D52268D20602D52268D206CD
:101C4000F3D42F602E602E612F61D9222263226887
:101C5000D20608D52268D20605D52268D20602D55A
:101C60002268D206F3D42F602E602E612F61F122FC
:101C700022632268D20608D52268D20605D52268DA
:101C8000D20602D52268D206F3D42F602E602E61D0
:101C90002F61DA2222632268D20608D52268D20692
:101CA00005D52268D20602D52268D206F3D42F6069
:101CB0002E602E612F61122222632268D20608D57F
:101CC0002268D20605D52268D20602D52268D2063D
:101CD000F3D42F602E602E612F61DB2222632268F5
:101CE000D20608D52268D20605D52268D20602D5CA
:101CF0002268D206F3D42F602E602E612F612163FB
:101D00002168C90608D52168C90605D52168C90614
:101D100002D52168C906F3D42F602E602E612F6191
:101D2000202121632168C90608D52168C90605D587
:101D30002168C90602D52168C906F3D42F602E6038
:101D40002E612F61022121632168C90608D521680F
:101D5000C90605D52168C90602D52168C906F3D48C
:101D60002F602E602E612F618D2121632168C906AD
:101D700008D52168C90605D52168C90602D521689C
:101D8000C906F3D42F602E602E612F6114212163C8
:101D90002168C90608D52168C90605D52168C90684
:101DA00002D52168C906F3D42F602E602E612F6101
:101DB000A42121632168C90608D52168C90605D573
:101DC0002168C90602D52168C906F3D42F602E60A8
:101DD0002E612F6120632068C00608D52068C006E8
:101DE00005D52068C00602D52068C006F3D42F6050
:101DF0002E60FFF7B7F92E612F61AF2020632068B6
:101E0000C00608D52068C00605D52068C00602D5E2
:101E10002068C006F3D42F602E6001B0F0BDC0462C
:101E200010B1464070B5284A87201061012148044E
:101E3000264B18608520D0600C041C60244C606028
:101E40004D071D60D065CD06224805608225A5643A
:101E5000214D6E1CE6648326E665A665AE1C6665AC
:101E60009563812656629662D66326666666266705
:101E700056609660E6671660D664166526646664EA
:101E800055661566E5602560E5625561A560956457
:101E90001A46403A114C14601C608903104A1368BA
:101EA0000B43136011690F4B0B4313610E490A6A10
:101EB0000E4B1A430A620A681A430A600146303917
:101EC0000B4A0A60026070BD8C804240D0120A400A
:101ED0000C804240D0320A408100040000F300032D
:101EE00090130A401040505128100A40800084DCB2
:101EF000004C4C00F0B581B01B4C1C492046FFF74C
:101F00000DF81B492046FEF7C5FE7D20C6000025C2
:101F1000204631462A46FEF7F9FF00951027204655
:101F200029463A462B46FEF7E5FF204629462A4633
:101F3000FEF7D2FF01240C4831462246FEF7E6FFA9
:101F400000940948064629463A462B46FEF7D2FF3A
:101F5000304629462246FEF7BFFF0648846003212B
:101F6000016001B0F0BDC04600208640482A000054
:101F70004C2A000000318640F0B581B01B4C1C4952
:101F80002046FEF7CBFF1B492046FEF7C5FE7D200D
:101F9000C6000025204631462A46FEF7B7FF0095C9
:101FA0001027204629463A462B46FEF7A3FF204637
:101FB00029462A46FEF790FF01240C483146224666
:101FC000FEF7A4FF00940948064629463A462B46E8
:101FD000FEF790FF304629462246FEF77DFF064871
:101FE00084600321016001B0F0BDC04600808640DE
:101FF000542A0000582A00000091864010B50D4C6C
:102000000D492046FEF73CFE0C492046FEF716FE21
:102010000B4841680B4A0A40511C416081681222FA
:102020000A432D218A438260016801220A4302602B
:1020300010BDC04600A04640602A0000622A000091
:1020400004B1464000FCFFFF094800210160094837
:1020500001680322914301600121090342680A4398
:102060004260FF20000204490A6882430A60704708
:1020700008030B4000010B4000E400E010B50C4CDD
:102080000C492046FEF74AFF0B492046FEF7AEFEFC
:102090000A48016801221143016009480168802350
:1020A0000B437F218B4303600648026010BDC0468E
:1020B000004008406C2A0000702A000028500840A8
:1020C00010E400E00851084010B5154C15492046B1
:1020D000FEF756FF14492046FEF72EFF0320C103EA
:1020E000124802688A4302600169114A0A40911C41
:1020F000016141690B220A4334218A4342614168EC
:102100000122114043689343591841609102094BE1
:102110001C680C431C6001681143016010BDC0467F
:1021200000801040842A0000862A000000911040A0
:102130000000FFFF2890104080B500F01FF8FFF767
:1021400071FEFFF781FFFFF7D5FEFFF715FFFFF7E1
:1021500095FFFFF7B9FFFFF751FF742004490022F4
:102160000A54B82003490A54242003490A5480BD64
:102170002C06202070052020A4062020F0B581B078
:102180000D480E4941600E4A51600E4B59600E4C8D
:1021900061600E4D69600E4E71600E4F79600E49A0
:1021A0000160116019602160296031603960102080
:1021B000FEF73EFD01B0F0BD00080A40030000B18B
:1021C00000280A40002886400088864000480840D1
:1021D0000088104000A8464001000026012081032D
:1021E000084A1160C10311600103116041031160CD
:1021F0000106116041061160010211604002106089
:102200007047C04690120A4080B50B480068C0B2C3
:10221000012810D109480168494241600848016815
:1022200041600848016849424160074801684942E5
:10223000416000F03BF980BD20500840780020202C
:10224000800020208800202090002020B0B582B09F
:102250001A480068C0B20B282DD119480068194DE2
:1022600029887E2916D829884A1C2A80164C605451
:10227000C0B22D2811D02B281AD117A101AA4D4B7D
:102280002046FDF7A3FF28880019401E0021017099
:1022900029800DE0002028800AE00CA101AA0D4B46
:1022A0002046FDF793FF28880019401E0021017089
:1022B0000B480121017002B0B0BDC0462090104013
:1022C00024911040BE0720203C0720202533733D79
:1022D00025642D00340720202533733D25642B0011
:1022E000BC0720200120C0030249086002490860A1
:1022F0007047C04680E200E000E100E0704780B532
:102300007D2109024843FEF793FC80BD07490A6816
:10231000D20708D00A68D20705D00A68D20702D0CF
:102320000A68D207F3D1C2B28A617047089110409F
:1023300082B0FFF701FFFFF7D5FFFFF765FB002431
:102340002046FFF7D5FA2046FFF702FB1248036844
:1023500012480268124800680090BB48012100F052
:1023600011F910480368104802681048006800908E
:10237000B648214600F006F9FFF730FFFEF758FE99
:102380000B4C0C4D2168286800F016F80A20FFF766
:10239000B6FF00F0FFF8F5E7000020200400202041
:1023A0006C0520200C002020100020203807202061
:1023B00034072020C007202010B50C46C10F6E4AFC
:1023C0001170E10F6D4A1170C1174840401AFEF7B5
:1023D0008CF89D490860E0174440201AFEF785F804
:1023E0009A49086010BDC046F0B583B00446006845
:1023F000616800F0C1FA0546A060206B00282DD06E
:1024000001284ED1A169284600F05EFA0290A06230
:10241000E6682846314600F0AFFA0146606900F0F0
:1024200053FA019020623046314600F0DDF9014652
:10243000284600F0A1FA216900F0D6F90146E069CA
:1024400000F042FA074660620198029900F0CCF968
:10245000394600F0C9F90146E06A1EE06169284684
:1024600000F032FA02902062A069294600F02CFAAE
:10247000A16A00F0B9F90190A062E66828463146E9
:1024800000F07AFA0146E06900F01EFA0746606241
:102490000298019900F0A8F9394600F0A5F9E06228
:1024A00000E0E668E560266103B0F0BDF0B581B0FC
:1024B000314804780120FEF7A9FD002C00D04042ED
:1024C000FEF713F8604E70602C4804780220FEF787
:1024D0009DFD002C00D04042FEF707F85B4D686080
:1024E000FEF78AFD3046FFF77FFF2846FFF77CFFA7
:1024F000F66A234F3046394600F04AF9002806D1E3
:1025000000273046394600F04EF9002802D14E48E7
:10251000C7623E46EC6A1A4F2046394600F038F949
:10252000002806D100272046394600F03CF9002853
:1025300000D1EF623046FDF79CFF01460E4C20783B
:10254000FEF704FB4048C06AFDF793FF0146207880
:10255000FEF73CFBE86AFDF78CFF0146074C20784C
:10256000FEF712FBE86AFDF784FF01462078FEF7CC
:1025700011FD01B0F0BDC046080020200900202058
:1025800000C0794410B5029C42618361C46101635B
:1025900010BD000080B590B01F480F901F480E90EE
:1025A0001F480D901F480C901F480B901F480A9021
:1025B0001F4809901F4808901F4807901F48069021
:1025C0001F4805901F4804900120FEF71FFDFDF7EE
:1025D0008CFF00900220FEF719FDFDF786FF0190A9
:1025E0001948006802901948006803900EA800F08E
:1025F000B3F804A800F0B0F80CA800F0ADF80AA8F1
:1026000000F0AAF86846102100F022F808A800F0AF
:10261000A3F810B080BDC046434300004141424290
:102620004141000043434242464600004444454580
:102630004444000046464545546732005467312CF7
:102640005370322C5370312CCC06202000072020F0
:1026500070B5002941D003240C404C4A27D005789E
:102660004B1E1668F60708D01668F60705D01668E0
:10267000F60702D01668F607F3D19561451C012CC8
:1026800011D02D788B1E1668F60708D01668F6074D
:1026900005D01668F60702D01668F607F3D19561E3
:1026A000851C022C07D1284604291BD215E00B46B5
:1026B000042917D211E02C78CB1E1568ED0708D03D
:1026C0001568ED0705D01568ED0702D01568ED0710
:1026D000F3D19461C01C042904D270BD9161001D26
:1026E000002BFAD001781468E40708D01468E407D6
:1026F00005D01468E40702D01468E407F3D19161AF
:1027000041781468E40708D01468E40705D0146819
:10271000E40702D01468E407F3D19161817814686A
:10272000E40708D01468E40705D01468E40702D071
:102730001468E407F3D191611B1FC1781468E407A2
:10274000CCD01468E407C9D01468E407C6D0146874
:10275000E407F3D1C2E7C0460178002914D00B4A40
:1027600004E09161581C597800290DD00346106887
:10277000C007F6D01068C007F3D01068C007F0D0CB
:102780001068C007F3D1ECE77047C04608911040CD
:1027900010B500F06FF8EFF30080800001D5012044
:1027A00010BD002010BD10B500F064F8EFF30080FC
:1027B0004000800F012800D0002010BD10B5002976
:1027C0000AD00878002807D005487844FEF766F953
:1027D000002801D0002010BD0248784410BD000040
:1027E00006030000FE02000070B50125ED0704009D
:1027F0004C4020D4441A01D2001B0919C60D4B00CD
:10280000F2B2FF2A29D01B0E2CD000020C02284362
:102810002C43D31ADC40051910D2280A02D3401CDD
:102820006D0611D0761EF6058019FF2A00DA70BDFC
:10283000C00DC00570BD694000F0A4F8012005433B
:10284000C541521C761CE8E764089C40C901614000
:102850008900E7D10124A043E4E71B0E440200D025
:10286000034870BD002AFCD1C00FC00770BD00BF77
:102870000000C07F0123DB0502000A430DD4DA42C9
:1028800003D49A4207D488427047D84214D4D9421C
:1028900012D48842704780427047DA4203D59A4288
:1028A000F9D5814270475B004200DA4204D24A0007
:1028B000DA4201D28142704710B5024AFEF734F87D
:1028C00010BD00BF0900130470B5420064414B0005
:1028D0005C41120E39D01B0E38D0FF2A3CD0FF2BA2
:1028E0003AD0D2187F3A40024902400A490A4518B4
:1028F000ED0106004E43000A090A48430104731A19
:102900004019190C4318990F04D05B08012149079D
:102910005B1A521CD80904D3401CF50301D19D0653
:1029200007D0FF2A08D2D50506D0E4072043401976
:1029300070BD0125A843F4E7002A01DCE00770BD63
:102940002402FF202043C00570BD1B0EFF2A03D0C8
:10295000FF2B01D0E00770BDFF2636064500B542CB
:1029600006D84D00B54203D8D218FF2A00D0E7E7B9
:10297000004870BD0000C07F70B50125ED07040060
:102980004C4022D4441A02D26C40001B0919C60DD7
:102990004B00F2B2FF2A4BD01B0E50D000020C02AB
:1029A000A8432C43D31ADC40051B05D5AD0019D331
:1029B0006D08761E521E37D0F605280A01D28019FE
:1029C00070BD70416D0603D070BD6940FFF712FF06
:1029D0009C4009026140490001D0401E70BD0124A5
:1029E000A04370BD6D081DD001202B0C01D12D041A
:1029F00010302B0E01D12D0208302B0F01D12D01EB
:102A0000001DAB0F01D1AD00801CEB0F01D16D009B
:102A1000401C361A121A6D00680AF5054019012A81
:102A200002DB70BD002070BDC036300AC00770BD2B
:102A30001B0E440201D1FF2B00D1024870BD002AB9
:102A4000F0D070BD0000C07F08070000E803000060
:102A50000000010008070000E8030000000100007A
:102A60000800040000010000071000000807000033
:102A7000220000003F9C0000010000000000000058
:102A800000000000040000001800000000300000FA
:102A90000A414F5F436F6E74726F6C207061726198
:102AA0006D65746572206572726F722121210D004F
:102AB000E02B000000002020180000002001000092
:102AC000F82B000018002020B00900004801000089
:102AD0001001000043000000F8FFFFFF00404040ED
:102AE00040404040404041414141414040404040E1
:102AF000404040404040404040404040400502028D
:102B0000020202020202020202020202022020204B
:102B100020202020202020020202020202029090A7
:102B200090909090101010101010101010101010A5
:102B300010101010101010100202020202028888F9
:102B40008888888808080808080808080808080805
:102B500008080808080808080202020240000000ED
:102B60000000000000000000000000000000000065
:102B70000000000000000000000000000000000055
:102B80000000000000000000000000000000000045
:102B90000000000000000000000000000000000035
:102BA0000000000000000000000000000000000025
:102BB0000000000000000000000000000000000015
:102BC0000000000000000000000000000000000005
:102BD00000000000000000000000000000000000F5
:102BE000CDCC4C409A99214101010000CDCC4C4004
:082BF0009A9921410000000048
:04000005000000C136
:00000001FF
